{
  "abi": [
    {
      "inputs": [
        {
          "internalType": "address",
          "name": "_evmScriptExecutor",
          "type": "address"
        },
        {
          "internalType": "address",
          "name": "_governanceToken",
          "type": "address"
        }
      ],
      "stateMutability": "nonpayable",
      "type": "constructor"
    },
    {
      "anonymous": false,
      "inputs": [
        {
          "indexed": true,
          "internalType": "address",
          "name": "_evmScriptFactory",
          "type": "address"
        }
      ],
      "name": "EVMScriptFactoryAdded",
      "type": "event"
    },
    {
      "anonymous": false,
      "inputs": [
        {
          "indexed": true,
          "internalType": "address",
          "name": "_evmScriptFactory",
          "type": "address"
        }
      ],
      "name": "EVMScriptFactoryDeleted",
      "type": "event"
    },
    {
      "anonymous": false,
      "inputs": [
        {
          "indexed": true,
          "internalType": "uint256",
          "name": "_motionId",
          "type": "uint256"
        }
      ],
      "name": "MotionCanceled",
      "type": "event"
    },
    {
      "anonymous": false,
      "inputs": [
        {
          "indexed": true,
          "internalType": "uint256",
          "name": "_motionId",
          "type": "uint256"
        },
        {
          "indexed": false,
          "internalType": "address",
          "name": "_creator",
          "type": "address"
        },
        {
          "indexed": true,
          "internalType": "address",
          "name": "_evmScriptFactory",
          "type": "address"
        },
        {
          "indexed": false,
          "internalType": "bytes",
          "name": "_evmScriptCallData",
          "type": "bytes"
        },
        {
          "indexed": false,
          "internalType": "bytes",
          "name": "_evmScript",
          "type": "bytes"
        }
      ],
      "name": "MotionCreated",
      "type": "event"
    },
    {
      "anonymous": false,
      "inputs": [
        {
          "indexed": false,
          "internalType": "uint256",
          "name": "_motionDuration",
          "type": "uint256"
        }
      ],
      "name": "MotionDurationChanged",
      "type": "event"
    },
    {
      "anonymous": false,
      "inputs": [
        {
          "indexed": true,
          "internalType": "uint256",
          "name": "_motionId",
          "type": "uint256"
        }
      ],
      "name": "MotionEnacted",
      "type": "event"
    },
    {
      "anonymous": false,
      "inputs": [
        {
          "indexed": true,
          "internalType": "uint256",
          "name": "_motionId",
          "type": "uint256"
        },
        {
          "indexed": true,
          "internalType": "address",
          "name": "_objector",
          "type": "address"
        },
        {
          "indexed": false,
          "internalType": "uint256",
          "name": "_weight",
          "type": "uint256"
        },
        {
          "indexed": false,
          "internalType": "uint256",
          "name": "_votingPower",
          "type": "uint256"
        }
      ],
      "name": "MotionObjected",
      "type": "event"
    },
    {
      "anonymous": false,
      "inputs": [
        {
          "indexed": true,
          "internalType": "uint256",
          "name": "_motionId",
          "type": "uint256"
        }
      ],
      "name": "MotionRejected",
      "type": "event"
    },
    {
      "anonymous": false,
      "inputs": [
        {
          "indexed": false,
          "internalType": "uint256",
          "name": "_newMotionsCountLimit",
          "type": "uint256"
        }
      ],
      "name": "MotionsCountLimitChanged",
      "type": "event"
    },
    {
      "anonymous": false,
      "inputs": [
        {
          "indexed": false,
          "internalType": "uint256",
          "name": "_newThreshold",
          "type": "uint256"
        }
      ],
      "name": "ObjectionsThresholdChanged",
      "type": "event"
    },
    {
      "anonymous": false,
      "inputs": [
        {
          "indexed": true,
          "internalType": "address",
          "name": "previousOwner",
          "type": "address"
        },
        {
          "indexed": true,
          "internalType": "address",
          "name": "newOwner",
          "type": "address"
        }
      ],
      "name": "OwnershipTransferred",
      "type": "event"
    },
    {
      "inputs": [],
      "name": "MAX_MOTIONS_LIMIT",
      "outputs": [
        {
          "internalType": "uint256",
          "name": "",
          "type": "uint256"
        }
      ],
      "stateMutability": "view",
      "type": "function"
    },
    {
      "inputs": [],
      "name": "MAX_OBJECTIONS_THRESHOLD",
      "outputs": [
        {
          "internalType": "uint64",
          "name": "",
          "type": "uint64"
        }
      ],
      "stateMutability": "view",
      "type": "function"
    },
    {
      "inputs": [],
      "name": "MIN_MOTION_DURATION",
      "outputs": [
        {
          "internalType": "uint64",
          "name": "",
          "type": "uint64"
        }
      ],
      "stateMutability": "view",
      "type": "function"
    },
    {
      "inputs": [],
      "name": "NO_CREATOR_ERROR",
      "outputs": [
        {
          "internalType": "bool",
          "name": "",
          "type": "bool"
        }
      ],
      "stateMutability": "view",
      "type": "function"
    },
    {
      "inputs": [
        {
          "internalType": "address",
          "name": "_evmScriptFactory",
          "type": "address"
        }
      ],
      "name": "addEvmScriptFactory",
      "outputs": [],
      "stateMutability": "nonpayable",
      "type": "function"
    },
    {
      "inputs": [
        {
          "internalType": "uint256",
          "name": "_motionId",
          "type": "uint256"
        },
        {
          "internalType": "address",
          "name": "_objector",
          "type": "address"
        }
      ],
      "name": "canObjectToMotion",
      "outputs": [
        {
          "internalType": "bool",
          "name": "",
          "type": "bool"
        }
      ],
      "stateMutability": "view",
      "type": "function"
    },
    {
      "inputs": [
        {
          "internalType": "uint256",
          "name": "_motionId",
          "type": "uint256"
        }
      ],
      "name": "cancelMotion",
      "outputs": [],
      "stateMutability": "nonpayable",
      "type": "function"
    },
    {
      "inputs": [
        {
          "internalType": "address",
          "name": "_evmScriptFactory",
          "type": "address"
        },
        {
          "internalType": "bytes",
          "name": "_evmScriptCallData",
          "type": "bytes"
        }
      ],
      "name": "createMotion",
      "outputs": [
        {
          "internalType": "uint256",
          "name": "_motionId",
          "type": "uint256"
        }
      ],
      "stateMutability": "nonpayable",
      "type": "function"
    },
    {
      "inputs": [
        {
          "internalType": "address",
          "name": "_evmScriptFactory",
          "type": "address"
        }
      ],
      "name": "deleteEvmScriptFactory",
      "outputs": [],
      "stateMutability": "nonpayable",
      "type": "function"
    },
    {
      "inputs": [
        {
          "internalType": "uint256",
          "name": "_motionId",
          "type": "uint256"
        }
      ],
      "name": "enactMotion",
      "outputs": [],
      "stateMutability": "nonpayable",
      "type": "function"
    },
    {
      "inputs": [
        {
          "internalType": "uint256",
          "name": "",
          "type": "uint256"
        }
      ],
      "name": "evmScriptFactories",
      "outputs": [
        {
          "internalType": "address",
          "name": "",
          "type": "address"
        }
      ],
      "stateMutability": "view",
      "type": "function"
    },
    {
      "inputs": [],
      "name": "getMotions",
      "outputs": [
        {
          "components": [
            {
              "internalType": "uint256",
              "name": "id",
              "type": "uint256"
            },
            {
              "internalType": "address",
              "name": "evmScriptFactory",
              "type": "address"
            },
            {
              "internalType": "address",
              "name": "creator",
              "type": "address"
            },
            {
              "internalType": "uint256",
              "name": "duration",
              "type": "uint256"
            },
            {
              "internalType": "uint256",
              "name": "startDate",
              "type": "uint256"
            },
            {
              "internalType": "uint256",
              "name": "snapshotBlock",
              "type": "uint256"
            },
            {
              "internalType": "uint256",
              "name": "objectionsThreshold",
              "type": "uint256"
            },
            {
              "internalType": "uint256",
              "name": "objectionsAmount",
              "type": "uint256"
            },
            {
              "internalType": "uint256",
              "name": "objectionsAmountPct",
              "type": "uint256"
            },
            {
              "internalType": "bytes32",
              "name": "evmScriptHash",
              "type": "bytes32"
            },
            {
              "internalType": "bytes",
              "name": "evmScriptCallData",
              "type": "bytes"
            }
          ],
          "internalType": "struct EasyTrackMock.Motion[]",
          "name": "",
          "type": "tuple[]"
        }
      ],
      "stateMutability": "view",
      "type": "function"
    },
    {
      "inputs": [],
      "name": "governanceToken",
      "outputs": [
        {
          "internalType": "contract IMiniMeToken",
          "name": "",
          "type": "address"
        }
      ],
      "stateMutability": "view",
      "type": "function"
    },
    {
      "inputs": [],
      "name": "motionDuration",
      "outputs": [
        {
          "internalType": "uint256",
          "name": "",
          "type": "uint256"
        }
      ],
      "stateMutability": "view",
      "type": "function"
    },
    {
      "inputs": [
        {
          "internalType": "uint256",
          "name": "",
          "type": "uint256"
        }
      ],
      "name": "motions",
      "outputs": [
        {
          "internalType": "uint256",
          "name": "id",
          "type": "uint256"
        },
        {
          "internalType": "address",
          "name": "evmScriptFactory",
          "type": "address"
        },
        {
          "internalType": "address",
          "name": "creator",
          "type": "address"
        },
        {
          "internalType": "uint256",
          "name": "duration",
          "type": "uint256"
        },
        {
          "internalType": "uint256",
          "name": "startDate",
          "type": "uint256"
        },
        {
          "internalType": "uint256",
          "name": "snapshotBlock",
          "type": "uint256"
        },
        {
          "internalType": "uint256",
          "name": "objectionsThreshold",
          "type": "uint256"
        },
        {
          "internalType": "uint256",
          "name": "objectionsAmount",
          "type": "uint256"
        },
        {
          "internalType": "uint256",
          "name": "objectionsAmountPct",
          "type": "uint256"
        },
        {
          "internalType": "bytes32",
          "name": "evmScriptHash",
          "type": "bytes32"
        },
        {
          "internalType": "bytes",
          "name": "evmScriptCallData",
          "type": "bytes"
        }
      ],
      "stateMutability": "view",
      "type": "function"
    },
    {
      "inputs": [],
      "name": "motionsCountLimit",
      "outputs": [
        {
          "internalType": "uint256",
          "name": "",
          "type": "uint256"
        }
      ],
      "stateMutability": "view",
      "type": "function"
    },
    {
      "inputs": [
        {
          "internalType": "uint256",
          "name": "_motionId",
          "type": "uint256"
        }
      ],
      "name": "objectToMotion",
      "outputs": [],
      "stateMutability": "nonpayable",
      "type": "function"
    },
    {
      "inputs": [],
      "name": "objectionsThreshold",
      "outputs": [
        {
          "internalType": "uint256",
          "name": "",
          "type": "uint256"
        }
      ],
      "stateMutability": "view",
      "type": "function"
    },
    {
      "inputs": [],
      "name": "owner",
      "outputs": [
        {
          "internalType": "address",
          "name": "",
          "type": "address"
        }
      ],
      "stateMutability": "view",
      "type": "function"
    },
    {
      "inputs": [],
      "name": "renounceOwnership",
      "outputs": [],
      "stateMutability": "nonpayable",
      "type": "function"
    },
    {
      "inputs": [
        {
          "internalType": "uint256",
          "name": "_motionDuration",
          "type": "uint256"
        }
      ],
      "name": "setMotionDuration",
      "outputs": [],
      "stateMutability": "nonpayable",
      "type": "function"
    },
    {
      "inputs": [
        {
          "internalType": "uint256",
          "name": "_motionsCountLimit",
          "type": "uint256"
        }
      ],
      "name": "setMotionsCountLimit",
      "outputs": [],
      "stateMutability": "nonpayable",
      "type": "function"
    },
    {
      "inputs": [
        {
          "internalType": "uint256",
          "name": "_objectionsThreshold",
          "type": "uint256"
        }
      ],
      "name": "setObjectionsThreshold",
      "outputs": [],
      "stateMutability": "nonpayable",
      "type": "function"
    },
    {
      "inputs": [
        {
          "internalType": "address",
          "name": "newOwner",
          "type": "address"
        }
      ],
      "name": "transferOwnership",
      "outputs": [],
      "stateMutability": "nonpayable",
      "type": "function"
    }
  ],
  "bytecode": "60806040526000805460ff60a01b1916600160a01b1790556001600755600c6008556102586009553480156200003457600080fd5b50604051620020bc380380620020bc8339810160408190526200005791620000e7565b600080546001600160a01b031916339081178255604051909182917f8be0079c531659141344cd1fd0a4f28419497f9722a3daafe3b4186f6b6457e0908290a350600480546001600160a01b039384166001600160a01b031991821617909155600580549290931691161790556200011e565b80516001600160a01b0381168114620000e257600080fd5b919050565b60008060408385031215620000fa578182fd5b6200010583620000ca565b91506200011560208401620000ca565b90509250929050565b611f8e806200012e6000396000f3fe608060405234801561001057600080fd5b50600436106101585760003560e01c8063a8f7b7e0116100c3578063e6f5ed5d1161007c578063e6f5ed5d146102d5578063ef1ae2f6146102e8578063ef89ad95146102fb578063f2fde38b1461030e578063f96dae0a14610321578063fdc28ab81461033457600080fd5b8063a8f7b7e014610261578063b21d36a814610274578063c34205cd1461029e578063cdb6aefc146102b1578063d1d210f6146102ba578063e1637395146102cd57600080fd5b8063715018a611610115578063715018a6146101d257806388407bd4146101da5780638da5cb5b146101fc578063930c2b31146102215780639e381a391461022a578063a3e730781461024e57600080fd5b80633128cce01461015d57806331a40e6e14610179578063329696bc1461018e57806338c1f876146101a357806343665ace146101b657806364993a73146101c9575b600080fd5b61016660085481565b6040519081526020015b60405180910390f35b61018c610187366004611adb565b610347565b005b6101966103df565b6040516101709190611c7b565b61018c6101b1366004611adb565b61054a565b61018c6101c4366004611adb565b610862565b61016660095481565b61018c610ae0565b6101e361025881565b60405167ffffffffffffffff9091168152602001610170565b6000546001600160a01b03165b6040516001600160a01b039091168152602001610170565b61016660075481565b60005461023e90600160a01b900460ff1681565b6040519015158152602001610170565b61023e61025c366004611b0b565b610b84565b61018c61026f3660046119bc565b610cbf565b610287610282366004611adb565b610db4565b6040516101709b9a99989796959493929190611d6e565b61018c6102ac366004611adb565b610eb8565b6101e36101f481565b61018c6102c83660046119bc565b610fc6565b610166600c81565b6101666102e33660046119dd565b611128565b61018c6102f6366004611adb565b61132d565b610209610309366004611adb565b6113ac565b61018c61031c3660046119bc565b6113d6565b600554610209906001600160a01b031681565b61018c610342366004611adb565b6114f0565b60408051808201909152600f81526e159053155157d513d3d7d4d3505313608a1b60208201526102588210156103995760405162461bcd60e51b81526004016103909190611d5b565b60405180910390fd5b5067ffffffffffffffff81166009556040518181527f03765c4aa18fde3bfe4015073c2b138ce5a02536dd88ceae9739d3e0dbad5d0e906020015b60405180910390a150565b60606001805480602002602001604051908101604052809291908181526020016000905b828210156105415760008481526020908190206040805161016081018252600b86029092018054835260018101546001600160a01b03908116948401949094526002810154909316908201526003820154606082015260048201546080820152600582015460a0820152600682015460c0820152600782015460e082015260088201546101008201526009820154610120820152600a82018054919291610140840191906104b090611ed6565b80601f01602080910402602001604051908101604052809291908181526020018280546104dc90611ed6565b80156105295780601f106104fe57610100808354040283529160200191610529565b820191906000526020600020905b81548152906001019060200180831161050c57829003601f168201915b50505050508152505081526020019060010190610403565b50505050905090565b8060006003600083815260200190815260200160002054116040518060400160405280601081526020016f1353d51253d397d393d517d193d5539160821b815250906105a95760405162461bcd60e51b81526004016103909190611d5b565b506000828152600660209081526040808320338452825291829020548251808401909352601083526f1053149150511657d3d0929150d5115160821b9183019190915260ff161561060d5760405162461bcd60e51b81526004016103909190611d5b565b5060008281526006602090815260408083203384529091528120805460ff1916600117905561063b8361156d565b600580549082015460405163277166bf60e11b815233600482015260248101919091529192506000916001600160a01b0390911690634ee2cd7e9060440160206040518083038186803b15801561069157600080fd5b505afa1580156106a5573d6000803e3d6000fd5b505050506040513d601f19601f820116820180604052508101906106c99190611af3565b905060008111604051806040016040528060128152602001714e4f545f454e4f5547485f42414c414e434560701b815250906107185760405162461bcd60e51b81526004016103909190611d5b565b508082600701600082825461072d9190611e38565b90915550506005805490830154604051630981b24d60e41b815260048101919091526000916001600160a01b03169063981b24d09060240160206040518083038186803b15801561077d57600080fd5b505afa158015610791573d6000803e3d6000fd5b505050506040513d601f19601f820116820180604052508101906107b59190611af3565b90508083600701546127106107ca9190611e70565b6107d49190611e50565b60088401556040805183815260208101839052339187917ff9a71f422953d264aec70b976837b3fd0d4d258ea7cf7e3606cae3fda4016ba1910160405180910390a382600601548360080154111561085b5761082f856115bd565b60405185907f6a4120e111f0bfb3586b7dc9317f9ae5441ce866d1ad9d221ce6d76431f8442690600090a25b5050505050565b8060006003600083815260200190815260200160002054116040518060400160405280601081526020016f1353d51253d397d393d517d193d5539160821b815250906108c15760405162461bcd60e51b81526004016103909190611d5b565b5060006108cd8361156d565b905042816003015482600401546108e49190611e38565b1115604051806040016040528060118152602001701353d51253d397d393d517d41054d4d151607a1b8152509061092e5760405162461bcd60e51b81526004016103909190611d5b565b506001810154600282015460405163462a1dc160e11b81526000926001600160a01b0390811692638c543b82926109709290911690600a870190600401611bc4565b60006040518083038186803b15801561098857600080fd5b505afa15801561099c573d6000803e3d6000fd5b505050506040513d6000823e601f3d908101601f191682016040526109c49190810190611a68565b905080805190602001208260090154146040518060400160405280601281526020017115539156141150d5115117d0d3d35350539160721b81525090610a1d5760405162461bcd60e51b81526004016103909190611d5b565b50610a27846115bd565b6004805460405163188e4b8560e01b81526001600160a01b039091169163188e4b8591610a58913391869101611b62565b600060405180830381600087803b158015610a7257600080fd5b505af1158015610a86573d6000803e3d6000fd5b505050506040513d6000823e601f3d908101601f19168201604052610aae9190810190611a68565b5060405184907fd4fbbd7bf63590ce72807eb770b83aaf2f3a7958a4b2093fd9ab89b27609694290600090a250505050565b6000546001600160a01b03163314610b3a5760405162461bcd60e51b815260206004820181905260248201527f4f776e61626c653a2063616c6c6572206973206e6f7420746865206f776e65726044820152606401610390565b600080546040516001600160a01b03909116907f8be0079c531659141344cd1fd0a4f28419497f9722a3daafe3b4186f6b6457e0908390a3600080546001600160a01b0319169055565b60008260006003600083815260200190815260200160002054116040518060400160405280601081526020016f1353d51253d397d393d517d193d5539160821b81525090610be55760405162461bcd60e51b81526004016103909190611d5b565b506000610bf18561156d565b600580549082015460405163277166bf60e11b81526001600160a01b0388811660048301526024820192909252929350600092911690634ee2cd7e9060440160206040518083038186803b158015610c4857600080fd5b505afa158015610c5c573d6000803e3d6000fd5b505050506040513d601f19601f82011682018060405250810190610c809190611af3565b9050600081118015610cb5575060008681526006602090815260408083206001600160a01b038916845290915290205460ff16155b9695505050505050565b6001600160a01b0381166000908152600b60209081526040918290205482518084019093528183527f45564d5f5343524950545f464143544f52595f414c52454144595f41444445449183019190915215610d2d5760405162461bcd60e51b81526004016103909190611d5b565b50600a80546001810182557fc65a7bb8d6351c1cf70c95a316cc6a92839c986682d98bc35f958f4883f9d2a80180546001600160a01b0319166001600160a01b03841690811790915590546000828152600b60205260408082209290925590517fad9d3aaeb4f5294231891d7a78dad1323e582ee7bb6c18866c2307919c1d7ff19190a250565b60018181548110610dc457600080fd5b60009182526020909120600b9091020180546001820154600283015460038401546004850154600586015460068701546007880154600889015460098a0154600a8b0180549a9c506001600160a01b03998a169b9890991699969895979496939592949193909290610e3590611ed6565b80601f0160208091040260200160405190810160405280929190818152602001828054610e6190611ed6565b8015610eae5780601f10610e8357610100808354040283529160200191610eae565b820191906000526020600020905b815481529060010190602001808311610e9157829003601f168201915b505050505090508b565b8060006003600083815260200190815260200160002054116040518060400160405280601081526020016f1353d51253d397d393d517d193d5539160821b81525090610f175760405162461bcd60e51b81526004016103909190611d5b565b506000610f238361156d565b60028101549091506001600160a01b0316331480610f4a5750600054600160a01b900460ff165b6040518060400160405280600b81526020016a2727aa2fa1a922a0aa27a960a91b81525090610f8c5760405162461bcd60e51b81526004016103909190611d5b565b50610f96836115bd565b60405183907f801fcb98a9fa2e695209772f0a24f3f7ac36f6568659ae2e0cd7763fb73f286290600090a2505050565b6000610fd1826117cd565b600a54909150600090610fe690600190611e8f565b905080821461109e576000600a828154811061101257634e487b7160e01b600052603260045260246000fd5b600091825260209091200154600a80546001600160a01b03909216925082918590811061104f57634e487b7160e01b600052603260045260246000fd5b600091825260209091200180546001600160a01b0319166001600160a01b0392909216919091179055611083836001611e38565b6001600160a01b039091166000908152600b60205260409020555b600a8054806110bd57634e487b7160e01b600052603160045260246000fd5b60008281526020808220830160001990810180546001600160a01b03191690559092019092556001600160a01b038516808352600b90915260408083208390555190917f669c97c106e46a1b4c87bf5001cd28e54eb43b851a5bc4b344c942241358c98f91a2505050565b6008546001546040805180820190915260158152741353d51253d394d7d31253525517d4915050d21151605a1b602082015260009290911061117d5760405162461bcd60e51b81526004016103909190611d5b565b5060405163462a1dc160e11b81526000906001600160a01b03851690638c543b82906111af9033908790600401611b62565b60006040518083038186803b1580156111c757600080fd5b505afa1580156111db573d6000803e3d6000fd5b505050506040513d6000823e601f3d908101601f191682016040526112039190810190611a68565b600180548082018255600091825260028054939450600b9091027fb10e2d527612073b26eecdfd717e6a320cf44b4afac2b0732d9fcbe2b7fa0cf6019290919061124c90611f11565b91829055508082556001820180546001600160a01b0388166001600160a01b03199182161790915560028301805490911633179055600980546003840155426004840155436005840155600754600684015583516020808601919091209184019190915585519194506112c691600a84019187019061184f565b506001546000848152600360205260409081902091909155516001600160a01b0386169084907f2775db1f1f2dd97c60ba2903b3ca235c9cecb3cb47a9cb464f86578b9877f4a49061131d90339089908890611b8e565b60405180910390a3505092915050565b60408051808201909152600f81526e56414c55455f544f4f5f4c4152474560881b60208201526101f48211156113765760405162461bcd60e51b81526004016103909190611d5b565b5060078190556040518181527fd60715ce58337415334d06256811f30ed8db120287970870d8505e5ed9074c60906020016103d4565b600a81815481106113bc57600080fd5b6000918252602090912001546001600160a01b0316905081565b6000546001600160a01b031633146114305760405162461bcd60e51b815260206004820181905260248201527f4f776e61626c653a2063616c6c6572206973206e6f7420746865206f776e65726044820152606401610390565b6001600160a01b0381166114955760405162461bcd60e51b815260206004820152602660248201527f4f776e61626c653a206e6577206f776e657220697320746865207a65726f206160448201526564647265737360d01b6064820152608401610390565b600080546040516001600160a01b03808516939216917f8be0079c531659141344cd1fd0a4f28419497f9722a3daafe3b4186f6b6457e091a3600080546001600160a01b0319166001600160a01b0392909216919091179055565b60408051808201909152600f81526e56414c55455f544f4f5f4c4152474560881b6020820152600c82106115375760405162461bcd60e51b81526004016103909190611d5b565b5060088190556040518181527f5e368703b7ab35fe9ef4dbc482cd414476841204c7484b8e834d0d3ac4ed8672906020016103d4565b60008181526003602052604081205460019061158a908290611e8f565b815481106115a857634e487b7160e01b600052603260045260246000fd5b90600052602060002090600b02019050919050565b6000818152600360205260408120546115d890600190611e8f565b600180549192506000916115ec9190611e8f565b90508082146117205760006001828154811061161857634e487b7160e01b600052603260045260246000fd5b90600052602060002090600b02019050806001848154811061164a57634e487b7160e01b600052603260045260246000fd5b600091825260209091208254600b9092020190815560018083015490820180546001600160a01b039283166001600160a01b031991821617909155600280850154908401805491909316911617905560038083015490820155600480830154908201556005808301549082015560068083015490820155600780830154908201556008808301549082015560098083015490820155600a8083018054918301916116f390611ed6565b6116fe9291906118d3565b5061170e91508490506001611e38565b90546000908152600360205260409020555b600180548061173f57634e487b7160e01b600052603160045260246000fd5b600082815260208120600b600019909301928302018181556001810180546001600160a01b0319908116909155600282018054909116905560038101829055600481018290556005810182905560068101829055600781018290556008810182905560098101829055906117b6600a83018261194e565b505090555050600090815260036020526040812055565b6001600160a01b0381166000908152600b6020908152604091829020548251808401909352601b83527f45564d5f5343524950545f464143544f52595f4e4f545f464f554e000000000091830191909152908161183d5760405162461bcd60e51b81526004016103909190611d5b565b50611849600182611e8f565b92915050565b82805461185b90611ed6565b90600052602060002090601f01602090048101928261187d57600085556118c3565b82601f1061189657805160ff19168380011785556118c3565b828001600101855582156118c3579182015b828111156118c35782518255916020019190600101906118a8565b506118cf92915061198b565b5090565b8280546118df90611ed6565b90600052602060002090601f01602090048101928261190157600085556118c3565b82601f1061191257805485556118c3565b828001600101855582156118c357600052602060002091601f016020900482015b828111156118c3578254825591600101919060010190611933565b50805461195a90611ed6565b6000825580601f1061196a575050565b601f016020900490600052602060002090810190611988919061198b565b50565b5b808211156118cf576000815560010161198c565b80356001600160a01b03811681146119b757600080fd5b919050565b6000602082840312156119cd578081fd5b6119d6826119a0565b9392505050565b600080604083850312156119ef578081fd5b6119f8836119a0565b9150602083013567ffffffffffffffff811115611a13578182fd5b8301601f81018513611a23578182fd5b8035611a36611a3182611e10565b611ddf565b818152866020838501011115611a4a578384fd5b81602084016020830137908101602001929092525090939092509050565b600060208284031215611a79578081fd5b815167ffffffffffffffff811115611a8f578182fd5b8201601f81018413611a9f578182fd5b8051611aad611a3182611e10565b818152856020838501011115611ac1578384fd5b611ad2826020830160208601611ea6565b95945050505050565b600060208284031215611aec578081fd5b5035919050565b600060208284031215611b04578081fd5b5051919050565b60008060408385031215611b1d578182fd5b82359150611b2d602084016119a0565b90509250929050565b60008151808452611b4e816020860160208601611ea6565b601f01601f19169290920160200192915050565b6001600160a01b0383168152604060208201819052600090611b8690830184611b36565b949350505050565b6001600160a01b0384168152606060208201819052600090611bb290830185611b36565b8281036040840152610cb58185611b36565b60018060a01b03831681526000602060408184015281845483600182811c915080831680611bf357607f831692505b858310811415611c1157634e487b7160e01b87526022600452602487fd5b6040880183905260608801818015611c305760018114611c4157611c6b565b60ff19861682528782019650611c6b565b60008b815260209020895b86811015611c6557815484820152908501908901611c4c565b83019750505b50949a9950505050505050505050565b60006020808301818452808551808352604092508286019150828160051b870101848801865b83811015611d4d57603f19898403018552815180518452878101516001600160a01b0390811689860152878201511687850152606080820151908501526080808201519085015260a0808201519085015260c0808201519085015260e08082015190850152610100808201519085015261012080820151908501526101409081015161016091850182905290611d3981860183611b36565b968901969450505090860190600101611ca1565b509098975050505050505050565b6020815260006119d66020830184611b36565b60006101608d835260018060a01b03808e166020850152808d166040850152508a60608401528960808401528860a08401528760c08401528660e0840152856101008401528461012084015280610140840152611dcd81840185611b36565b9e9d5050505050505050505050505050565b604051601f8201601f1916810167ffffffffffffffff81118282101715611e0857611e08611f42565b604052919050565b600067ffffffffffffffff821115611e2a57611e2a611f42565b50601f01601f191660200190565b60008219821115611e4b57611e4b611f2c565b500190565b600082611e6b57634e487b7160e01b81526012600452602481fd5b500490565b6000816000190483118215151615611e8a57611e8a611f2c565b500290565b600082821015611ea157611ea1611f2c565b500390565b60005b83811015611ec1578181015183820152602001611ea9565b83811115611ed0576000848401525b50505050565b600181811c90821680611eea57607f821691505b60208210811415611f0b57634e487b7160e01b600052602260045260246000fd5b50919050565b6000600019821415611f2557611f25611f2c565b5060010190565b634e487b7160e01b600052601160045260246000fd5b634e487b7160e01b600052604160045260246000fdfea2646970667358221220070d51bae0181de74c257c97ae7ec71b409e21f5dbb7781bbf4e67c7ac2dcedc64736f6c63430008040033",
  "bytecodeSha1": "85a296cc325906c9458332540d3398a52e9acba6",
  "compiler": {
    "evm_version": "istanbul",
    "optimizer": {
      "enabled": true,
      "runs": 200
    },
    "version": "0.8.4+commit.c7e474f2"
  },
  "contractName": "EasyTrackMock",
  "language": "Solidity",
  "natspec": {
    "kind": "dev",
    "methods": {
      "owner()": {
        "details": "Returns the address of the current owner."
      },
      "renounceOwnership()": {
        "details": "Leaves the contract without owner. It will not be possible to call `onlyOwner` functions anymore. Can only be called by the current owner. NOTE: Renouncing ownership will leave the contract without an owner, thereby removing any functionality that is only available to the owner."
      },
      "setMotionDuration(uint256)": {
        "notice": "Set duration of new created motions. Can be called only by the owner of contract."
      },
      "setObjectionsThreshold(uint256)": {
        "notice": "Set percent of governance tokens required to reject a proposal. Can be callend only by owner of contract."
      },
      "transferOwnership(address)": {
        "details": "Transfers ownership of the contract to a new account (`newOwner`). Can only be called by the current owner."
      }
    },
    "stateVariables": {
      "MAX_OBJECTIONS_THRESHOLD": {
        "details": "upper bound for objectionsThreshold value. Stored in basis points (1% = 100)"
      },
      "MIN_MOTION_DURATION": {
        "details": "lower bound for motionDuration value"
      },
      "NO_CREATOR_ERROR": {
        "details": "trigger for creator error"
      },
      "objectionsThreshold": {
        "details": "Percent of governance tokens required to reject a proposal values stored in basis points (1% = 100). Default value is 0.5%"
      }
    },
    "version": 1
  },
  "opcodes": "PUSH1 0x80 PUSH1 0x40 MSTORE CALLVALUE DUP1 ISZERO PUSH2 0x10 JUMPI PUSH1 0x0 DUP1 REVERT JUMPDEST POP PUSH1 0x4 CALLDATASIZE LT PUSH2 0x158 JUMPI PUSH1 0x0 CALLDATALOAD PUSH1 0xE0 SHR DUP1 PUSH4 0xA8F7B7E0 GT PUSH2 0xC3 JUMPI DUP1 PUSH4 0xE6F5ED5D GT PUSH2 0x7C JUMPI DUP1 PUSH4 0xE6F5ED5D EQ PUSH2 0x2D5 JUMPI DUP1 PUSH4 0xEF1AE2F6 EQ PUSH2 0x2E8 JUMPI DUP1 PUSH4 0xEF89AD95 EQ PUSH2 0x2FB JUMPI DUP1 PUSH4 0xF2FDE38B EQ PUSH2 0x30E JUMPI DUP1 PUSH4 0xF96DAE0A EQ PUSH2 0x321 JUMPI DUP1 PUSH4 0xFDC28AB8 EQ PUSH2 0x334 JUMPI PUSH1 0x0 DUP1 REVERT JUMPDEST DUP1 PUSH4 0xA8F7B7E0 EQ PUSH2 0x261 JUMPI DUP1 PUSH4 0xB21D36A8 EQ PUSH2 0x274 JUMPI DUP1 PUSH4 0xC34205CD EQ PUSH2 0x29E JUMPI DUP1 PUSH4 0xCDB6AEFC EQ PUSH2 0x2B1 JUMPI DUP1 PUSH4 0xD1D210F6 EQ PUSH2 0x2BA JUMPI DUP1 PUSH4 0xE1637395 EQ PUSH2 0x2CD JUMPI PUSH1 0x0 DUP1 REVERT JUMPDEST DUP1 PUSH4 0x715018A6 GT PUSH2 0x115 JUMPI DUP1 PUSH4 0x715018A6 EQ PUSH2 0x1D2 JUMPI DUP1 PUSH4 0x88407BD4 EQ PUSH2 0x1DA JUMPI DUP1 PUSH4 0x8DA5CB5B EQ PUSH2 0x1FC JUMPI DUP1 PUSH4 0x930C2B31 EQ PUSH2 0x221 JUMPI DUP1 PUSH4 0x9E381A39 EQ PUSH2 0x22A JUMPI DUP1 PUSH4 0xA3E73078 EQ PUSH2 0x24E JUMPI PUSH1 0x0 DUP1 REVERT JUMPDEST DUP1 PUSH4 0x3128CCE0 EQ PUSH2 0x15D JUMPI DUP1 PUSH4 0x31A40E6E EQ PUSH2 0x179 JUMPI DUP1 PUSH4 0x329696BC EQ PUSH2 0x18E JUMPI DUP1 PUSH4 0x38C1F876 EQ PUSH2 0x1A3 JUMPI DUP1 PUSH4 0x43665ACE EQ PUSH2 0x1B6 JUMPI DUP1 PUSH4 0x64993A73 EQ PUSH2 0x1C9 JUMPI JUMPDEST PUSH1 0x0 DUP1 REVERT JUMPDEST PUSH2 0x166 PUSH1 0x8 SLOAD DUP2 JUMP JUMPDEST PUSH1 0x40 MLOAD SWAP1 DUP2 MSTORE PUSH1 0x20 ADD JUMPDEST PUSH1 0x40 MLOAD DUP1 SWAP2 SUB SWAP1 RETURN JUMPDEST PUSH2 0x18C PUSH2 0x187 CALLDATASIZE PUSH1 0x4 PUSH2 0x1ADB JUMP JUMPDEST PUSH2 0x347 JUMP JUMPDEST STOP JUMPDEST PUSH2 0x196 PUSH2 0x3DF JUMP JUMPDEST PUSH1 0x40 MLOAD PUSH2 0x170 SWAP2 SWAP1 PUSH2 0x1C7B JUMP JUMPDEST PUSH2 0x18C PUSH2 0x1B1 CALLDATASIZE PUSH1 0x4 PUSH2 0x1ADB JUMP JUMPDEST PUSH2 0x54A JUMP JUMPDEST PUSH2 0x18C PUSH2 0x1C4 CALLDATASIZE PUSH1 0x4 PUSH2 0x1ADB JUMP JUMPDEST PUSH2 0x862 JUMP JUMPDEST PUSH2 0x166 PUSH1 0x9 SLOAD DUP2 JUMP JUMPDEST PUSH2 0x18C PUSH2 0xAE0 JUMP JUMPDEST PUSH2 0x1E3 PUSH2 0x258 DUP2 JUMP JUMPDEST PUSH1 0x40 MLOAD PUSH8 0xFFFFFFFFFFFFFFFF SWAP1 SWAP2 AND DUP2 MSTORE PUSH1 0x20 ADD PUSH2 0x170 JUMP JUMPDEST PUSH1 0x0 SLOAD PUSH1 0x1 PUSH1 0x1 PUSH1 0xA0 SHL SUB AND JUMPDEST PUSH1 0x40 MLOAD PUSH1 0x1 PUSH1 0x1 PUSH1 0xA0 SHL SUB SWAP1 SWAP2 AND DUP2 MSTORE PUSH1 0x20 ADD PUSH2 0x170 JUMP JUMPDEST PUSH2 0x166 PUSH1 0x7 SLOAD DUP2 JUMP JUMPDEST PUSH1 0x0 SLOAD PUSH2 0x23E SWAP1 PUSH1 0x1 PUSH1 0xA0 SHL SWAP1 DIV PUSH1 0xFF AND DUP2 JUMP JUMPDEST PUSH1 0x40 MLOAD SWAP1 ISZERO ISZERO DUP2 MSTORE PUSH1 0x20 ADD PUSH2 0x170 JUMP JUMPDEST PUSH2 0x23E PUSH2 0x25C CALLDATASIZE PUSH1 0x4 PUSH2 0x1B0B JUMP JUMPDEST PUSH2 0xB84 JUMP JUMPDEST PUSH2 0x18C PUSH2 0x26F CALLDATASIZE PUSH1 0x4 PUSH2 0x19BC JUMP JUMPDEST PUSH2 0xCBF JUMP JUMPDEST PUSH2 0x287 PUSH2 0x282 CALLDATASIZE PUSH1 0x4 PUSH2 0x1ADB JUMP JUMPDEST PUSH2 0xDB4 JUMP JUMPDEST PUSH1 0x40 MLOAD PUSH2 0x170 SWAP12 SWAP11 SWAP10 SWAP9 SWAP8 SWAP7 SWAP6 SWAP5 SWAP4 SWAP3 SWAP2 SWAP1 PUSH2 0x1D6E JUMP JUMPDEST PUSH2 0x18C PUSH2 0x2AC CALLDATASIZE PUSH1 0x4 PUSH2 0x1ADB JUMP JUMPDEST PUSH2 0xEB8 JUMP JUMPDEST PUSH2 0x1E3 PUSH2 0x1F4 DUP2 JUMP JUMPDEST PUSH2 0x18C PUSH2 0x2C8 CALLDATASIZE PUSH1 0x4 PUSH2 0x19BC JUMP JUMPDEST PUSH2 0xFC6 JUMP JUMPDEST PUSH2 0x166 PUSH1 0xC DUP2 JUMP JUMPDEST PUSH2 0x166 PUSH2 0x2E3 CALLDATASIZE PUSH1 0x4 PUSH2 0x19DD JUMP JUMPDEST PUSH2 0x1128 JUMP JUMPDEST PUSH2 0x18C PUSH2 0x2F6 CALLDATASIZE PUSH1 0x4 PUSH2 0x1ADB JUMP JUMPDEST PUSH2 0x132D JUMP JUMPDEST PUSH2 0x209 PUSH2 0x309 CALLDATASIZE PUSH1 0x4 PUSH2 0x1ADB JUMP JUMPDEST PUSH2 0x13AC JUMP JUMPDEST PUSH2 0x18C PUSH2 0x31C CALLDATASIZE PUSH1 0x4 PUSH2 0x19BC JUMP JUMPDEST PUSH2 0x13D6 JUMP JUMPDEST PUSH1 0x5 SLOAD PUSH2 0x209 SWAP1 PUSH1 0x1 PUSH1 0x1 PUSH1 0xA0 SHL SUB AND DUP2 JUMP JUMPDEST PUSH2 0x18C PUSH2 0x342 CALLDATASIZE PUSH1 0x4 PUSH2 0x1ADB JUMP JUMPDEST PUSH2 0x14F0 JUMP JUMPDEST PUSH1 0x40 DUP1 MLOAD DUP1 DUP3 ADD SWAP1 SWAP2 MSTORE PUSH1 0xF DUP2 MSTORE PUSH15 0x159053155157D513D3D7D4D3505313 PUSH1 0x8A SHL PUSH1 0x20 DUP3 ADD MSTORE PUSH2 0x258 DUP3 LT ISZERO PUSH2 0x399 JUMPI PUSH1 0x40 MLOAD PUSH3 0x461BCD PUSH1 0xE5 SHL DUP2 MSTORE PUSH1 0x4 ADD PUSH2 0x390 SWAP2 SWAP1 PUSH2 0x1D5B JUMP JUMPDEST PUSH1 0x40 MLOAD DUP1 SWAP2 SUB SWAP1 REVERT JUMPDEST POP PUSH8 0xFFFFFFFFFFFFFFFF DUP2 AND PUSH1 0x9 SSTORE PUSH1 0x40 MLOAD DUP2 DUP2 MSTORE PUSH32 0x3765C4AA18FDE3BFE4015073C2B138CE5A02536DD88CEAE9739D3E0DBAD5D0E SWAP1 PUSH1 0x20 ADD JUMPDEST PUSH1 0x40 MLOAD DUP1 SWAP2 SUB SWAP1 LOG1 POP JUMP JUMPDEST PUSH1 0x60 PUSH1 0x1 DUP1 SLOAD DUP1 PUSH1 0x20 MUL PUSH1 0x20 ADD PUSH1 0x40 MLOAD SWAP1 DUP2 ADD PUSH1 0x40 MSTORE DUP1 SWAP3 SWAP2 SWAP1 DUP2 DUP2 MSTORE PUSH1 0x20 ADD PUSH1 0x0 SWAP1 JUMPDEST DUP3 DUP3 LT ISZERO PUSH2 0x541 JUMPI PUSH1 0x0 DUP5 DUP2 MSTORE PUSH1 0x20 SWAP1 DUP2 SWAP1 KECCAK256 PUSH1 0x40 DUP1 MLOAD PUSH2 0x160 DUP2 ADD DUP3 MSTORE PUSH1 0xB DUP7 MUL SWAP1 SWAP3 ADD DUP1 SLOAD DUP4 MSTORE PUSH1 0x1 DUP2 ADD SLOAD PUSH1 0x1 PUSH1 0x1 PUSH1 0xA0 SHL SUB SWAP1 DUP2 AND SWAP5 DUP5 ADD SWAP5 SWAP1 SWAP5 MSTORE PUSH1 0x2 DUP2 ADD SLOAD SWAP1 SWAP4 AND SWAP1 DUP3 ADD MSTORE PUSH1 0x3 DUP3 ADD SLOAD PUSH1 0x60 DUP3 ADD MSTORE PUSH1 0x4 DUP3 ADD SLOAD PUSH1 0x80 DUP3 ADD MSTORE PUSH1 0x5 DUP3 ADD SLOAD PUSH1 0xA0 DUP3 ADD MSTORE PUSH1 0x6 DUP3 ADD SLOAD PUSH1 0xC0 DUP3 ADD MSTORE PUSH1 0x7 DUP3 ADD SLOAD PUSH1 0xE0 DUP3 ADD MSTORE PUSH1 0x8 DUP3 ADD SLOAD PUSH2 0x100 DUP3 ADD MSTORE PUSH1 0x9 DUP3 ADD SLOAD PUSH2 0x120 DUP3 ADD MSTORE PUSH1 0xA DUP3 ADD DUP1 SLOAD SWAP2 SWAP3 SWAP2 PUSH2 0x140 DUP5 ADD SWAP2 SWAP1 PUSH2 0x4B0 SWAP1 PUSH2 0x1ED6 JUMP JUMPDEST DUP1 PUSH1 0x1F ADD PUSH1 0x20 DUP1 SWAP2 DIV MUL PUSH1 0x20 ADD PUSH1 0x40 MLOAD SWAP1 DUP2 ADD PUSH1 0x40 MSTORE DUP1 SWAP3 SWAP2 SWAP1 DUP2 DUP2 MSTORE PUSH1 0x20 ADD DUP3 DUP1 SLOAD PUSH2 0x4DC SWAP1 PUSH2 0x1ED6 JUMP JUMPDEST DUP1 ISZERO PUSH2 0x529 JUMPI DUP1 PUSH1 0x1F LT PUSH2 0x4FE JUMPI PUSH2 0x100 DUP1 DUP4 SLOAD DIV MUL DUP4 MSTORE SWAP2 PUSH1 0x20 ADD SWAP2 PUSH2 0x529 JUMP JUMPDEST DUP3 ADD SWAP2 SWAP1 PUSH1 0x0 MSTORE PUSH1 0x20 PUSH1 0x0 KECCAK256 SWAP1 JUMPDEST DUP2 SLOAD DUP2 MSTORE SWAP1 PUSH1 0x1 ADD SWAP1 PUSH1 0x20 ADD DUP1 DUP4 GT PUSH2 0x50C JUMPI DUP3 SWAP1 SUB PUSH1 0x1F AND DUP3 ADD SWAP2 JUMPDEST POP POP POP POP POP DUP2 MSTORE POP POP DUP2 MSTORE PUSH1 0x20 ADD SWAP1 PUSH1 0x1 ADD SWAP1 PUSH2 0x403 JUMP JUMPDEST POP POP POP POP SWAP1 POP SWAP1 JUMP JUMPDEST DUP1 PUSH1 0x0 PUSH1 0x3 PUSH1 0x0 DUP4 DUP2 MSTORE PUSH1 0x20 ADD SWAP1 DUP2 MSTORE PUSH1 0x20 ADD PUSH1 0x0 KECCAK256 SLOAD GT PUSH1 0x40 MLOAD DUP1 PUSH1 0x40 ADD PUSH1 0x40 MSTORE DUP1 PUSH1 0x10 DUP2 MSTORE PUSH1 0x20 ADD PUSH16 0x1353D51253D397D393D517D193D55391 PUSH1 0x82 SHL DUP2 MSTORE POP SWAP1 PUSH2 0x5A9 JUMPI PUSH1 0x40 MLOAD PUSH3 0x461BCD PUSH1 0xE5 SHL DUP2 MSTORE PUSH1 0x4 ADD PUSH2 0x390 SWAP2 SWAP1 PUSH2 0x1D5B JUMP JUMPDEST POP PUSH1 0x0 DUP3 DUP2 MSTORE PUSH1 0x6 PUSH1 0x20 SWAP1 DUP2 MSTORE PUSH1 0x40 DUP1 DUP4 KECCAK256 CALLER DUP5 MSTORE DUP3 MSTORE SWAP2 DUP3 SWAP1 KECCAK256 SLOAD DUP3 MLOAD DUP1 DUP5 ADD SWAP1 SWAP4 MSTORE PUSH1 0x10 DUP4 MSTORE PUSH16 0x1053149150511657D3D0929150D51151 PUSH1 0x82 SHL SWAP2 DUP4 ADD SWAP2 SWAP1 SWAP2 MSTORE PUSH1 0xFF AND ISZERO PUSH2 0x60D JUMPI PUSH1 0x40 MLOAD PUSH3 0x461BCD PUSH1 0xE5 SHL DUP2 MSTORE PUSH1 0x4 ADD PUSH2 0x390 SWAP2 SWAP1 PUSH2 0x1D5B JUMP JUMPDEST POP PUSH1 0x0 DUP3 DUP2 MSTORE PUSH1 0x6 PUSH1 0x20 SWAP1 DUP2 MSTORE PUSH1 0x40 DUP1 DUP4 KECCAK256 CALLER DUP5 MSTORE SWAP1 SWAP2 MSTORE DUP2 KECCAK256 DUP1 SLOAD PUSH1 0xFF NOT AND PUSH1 0x1 OR SWAP1 SSTORE PUSH2 0x63B DUP4 PUSH2 0x156D JUMP JUMPDEST PUSH1 0x5 DUP1 SLOAD SWAP1 DUP3 ADD SLOAD PUSH1 0x40 MLOAD PUSH4 0x277166BF PUSH1 0xE1 SHL DUP2 MSTORE CALLER PUSH1 0x4 DUP3 ADD MSTORE PUSH1 0x24 DUP2 ADD SWAP2 SWAP1 SWAP2 MSTORE SWAP2 SWAP3 POP PUSH1 0x0 SWAP2 PUSH1 0x1 PUSH1 0x1 PUSH1 0xA0 SHL SUB SWAP1 SWAP2 AND SWAP1 PUSH4 0x4EE2CD7E SWAP1 PUSH1 0x44 ADD PUSH1 0x20 PUSH1 0x40 MLOAD DUP1 DUP4 SUB DUP2 DUP7 DUP1 EXTCODESIZE ISZERO DUP1 ISZERO PUSH2 0x691 JUMPI PUSH1 0x0 DUP1 REVERT JUMPDEST POP GAS STATICCALL ISZERO DUP1 ISZERO PUSH2 0x6A5 JUMPI RETURNDATASIZE PUSH1 0x0 DUP1 RETURNDATACOPY RETURNDATASIZE PUSH1 0x0 REVERT JUMPDEST POP POP POP POP PUSH1 0x40 MLOAD RETURNDATASIZE PUSH1 0x1F NOT PUSH1 0x1F DUP3 ADD AND DUP3 ADD DUP1 PUSH1 0x40 MSTORE POP DUP2 ADD SWAP1 PUSH2 0x6C9 SWAP2 SWAP1 PUSH2 0x1AF3 JUMP JUMPDEST SWAP1 POP PUSH1 0x0 DUP2 GT PUSH1 0x40 MLOAD DUP1 PUSH1 0x40 ADD PUSH1 0x40 MSTORE DUP1 PUSH1 0x12 DUP2 MSTORE PUSH1 0x20 ADD PUSH18 0x4E4F545F454E4F5547485F42414C414E4345 PUSH1 0x70 SHL DUP2 MSTORE POP SWAP1 PUSH2 0x718 JUMPI PUSH1 0x40 MLOAD PUSH3 0x461BCD PUSH1 0xE5 SHL DUP2 MSTORE PUSH1 0x4 ADD PUSH2 0x390 SWAP2 SWAP1 PUSH2 0x1D5B JUMP JUMPDEST POP DUP1 DUP3 PUSH1 0x7 ADD PUSH1 0x0 DUP3 DUP3 SLOAD PUSH2 0x72D SWAP2 SWAP1 PUSH2 0x1E38 JUMP JUMPDEST SWAP1 SWAP2 SSTORE POP POP PUSH1 0x5 DUP1 SLOAD SWAP1 DUP4 ADD SLOAD PUSH1 0x40 MLOAD PUSH4 0x981B24D PUSH1 0xE4 SHL DUP2 MSTORE PUSH1 0x4 DUP2 ADD SWAP2 SWAP1 SWAP2 MSTORE PUSH1 0x0 SWAP2 PUSH1 0x1 PUSH1 0x1 PUSH1 0xA0 SHL SUB AND SWAP1 PUSH4 0x981B24D0 SWAP1 PUSH1 0x24 ADD PUSH1 0x20 PUSH1 0x40 MLOAD DUP1 DUP4 SUB DUP2 DUP7 DUP1 EXTCODESIZE ISZERO DUP1 ISZERO PUSH2 0x77D JUMPI PUSH1 0x0 DUP1 REVERT JUMPDEST POP GAS STATICCALL ISZERO DUP1 ISZERO PUSH2 0x791 JUMPI RETURNDATASIZE PUSH1 0x0 DUP1 RETURNDATACOPY RETURNDATASIZE PUSH1 0x0 REVERT JUMPDEST POP POP POP POP PUSH1 0x40 MLOAD RETURNDATASIZE PUSH1 0x1F NOT PUSH1 0x1F DUP3 ADD AND DUP3 ADD DUP1 PUSH1 0x40 MSTORE POP DUP2 ADD SWAP1 PUSH2 0x7B5 SWAP2 SWAP1 PUSH2 0x1AF3 JUMP JUMPDEST SWAP1 POP DUP1 DUP4 PUSH1 0x7 ADD SLOAD PUSH2 0x2710 PUSH2 0x7CA SWAP2 SWAP1 PUSH2 0x1E70 JUMP JUMPDEST PUSH2 0x7D4 SWAP2 SWAP1 PUSH2 0x1E50 JUMP JUMPDEST PUSH1 0x8 DUP5 ADD SSTORE PUSH1 0x40 DUP1 MLOAD DUP4 DUP2 MSTORE PUSH1 0x20 DUP2 ADD DUP4 SWAP1 MSTORE CALLER SWAP2 DUP8 SWAP2 PUSH32 0xF9A71F422953D264AEC70B976837B3FD0D4D258EA7CF7E3606CAE3FDA4016BA1 SWAP2 ADD PUSH1 0x40 MLOAD DUP1 SWAP2 SUB SWAP1 LOG3 DUP3 PUSH1 0x6 ADD SLOAD DUP4 PUSH1 0x8 ADD SLOAD GT ISZERO PUSH2 0x85B JUMPI PUSH2 0x82F DUP6 PUSH2 0x15BD JUMP JUMPDEST PUSH1 0x40 MLOAD DUP6 SWAP1 PUSH32 0x6A4120E111F0BFB3586B7DC9317F9AE5441CE866D1AD9D221CE6D76431F84426 SWAP1 PUSH1 0x0 SWAP1 LOG2 JUMPDEST POP POP POP POP POP JUMP JUMPDEST DUP1 PUSH1 0x0 PUSH1 0x3 PUSH1 0x0 DUP4 DUP2 MSTORE PUSH1 0x20 ADD SWAP1 DUP2 MSTORE PUSH1 0x20 ADD PUSH1 0x0 KECCAK256 SLOAD GT PUSH1 0x40 MLOAD DUP1 PUSH1 0x40 ADD PUSH1 0x40 MSTORE DUP1 PUSH1 0x10 DUP2 MSTORE PUSH1 0x20 ADD PUSH16 0x1353D51253D397D393D517D193D55391 PUSH1 0x82 SHL DUP2 MSTORE POP SWAP1 PUSH2 0x8C1 JUMPI PUSH1 0x40 MLOAD PUSH3 0x461BCD PUSH1 0xE5 SHL DUP2 MSTORE PUSH1 0x4 ADD PUSH2 0x390 SWAP2 SWAP1 PUSH2 0x1D5B JUMP JUMPDEST POP PUSH1 0x0 PUSH2 0x8CD DUP4 PUSH2 0x156D JUMP JUMPDEST SWAP1 POP TIMESTAMP DUP2 PUSH1 0x3 ADD SLOAD DUP3 PUSH1 0x4 ADD SLOAD PUSH2 0x8E4 SWAP2 SWAP1 PUSH2 0x1E38 JUMP JUMPDEST GT ISZERO PUSH1 0x40 MLOAD DUP1 PUSH1 0x40 ADD PUSH1 0x40 MSTORE DUP1 PUSH1 0x11 DUP2 MSTORE PUSH1 0x20 ADD PUSH17 0x1353D51253D397D393D517D41054D4D151 PUSH1 0x7A SHL DUP2 MSTORE POP SWAP1 PUSH2 0x92E JUMPI PUSH1 0x40 MLOAD PUSH3 0x461BCD PUSH1 0xE5 SHL DUP2 MSTORE PUSH1 0x4 ADD PUSH2 0x390 SWAP2 SWAP1 PUSH2 0x1D5B JUMP JUMPDEST POP PUSH1 0x1 DUP2 ADD SLOAD PUSH1 0x2 DUP3 ADD SLOAD PUSH1 0x40 MLOAD PUSH4 0x462A1DC1 PUSH1 0xE1 SHL DUP2 MSTORE PUSH1 0x0 SWAP3 PUSH1 0x1 PUSH1 0x1 PUSH1 0xA0 SHL SUB SWAP1 DUP2 AND SWAP3 PUSH4 0x8C543B82 SWAP3 PUSH2 0x970 SWAP3 SWAP1 SWAP2 AND SWAP1 PUSH1 0xA DUP8 ADD SWAP1 PUSH1 0x4 ADD PUSH2 0x1BC4 JUMP JUMPDEST PUSH1 0x0 PUSH1 0x40 MLOAD DUP1 DUP4 SUB DUP2 DUP7 DUP1 EXTCODESIZE ISZERO DUP1 ISZERO PUSH2 0x988 JUMPI PUSH1 0x0 DUP1 REVERT JUMPDEST POP GAS STATICCALL ISZERO DUP1 ISZERO PUSH2 0x99C JUMPI RETURNDATASIZE PUSH1 0x0 DUP1 RETURNDATACOPY RETURNDATASIZE PUSH1 0x0 REVERT JUMPDEST POP POP POP POP PUSH1 0x40 MLOAD RETURNDATASIZE PUSH1 0x0 DUP3 RETURNDATACOPY PUSH1 0x1F RETURNDATASIZE SWAP1 DUP2 ADD PUSH1 0x1F NOT AND DUP3 ADD PUSH1 0x40 MSTORE PUSH2 0x9C4 SWAP2 SWAP1 DUP2 ADD SWAP1 PUSH2 0x1A68 JUMP JUMPDEST SWAP1 POP DUP1 DUP1 MLOAD SWAP1 PUSH1 0x20 ADD KECCAK256 DUP3 PUSH1 0x9 ADD SLOAD EQ PUSH1 0x40 MLOAD DUP1 PUSH1 0x40 ADD PUSH1 0x40 MSTORE DUP1 PUSH1 0x12 DUP2 MSTORE PUSH1 0x20 ADD PUSH18 0x15539156141150D5115117D0D3D353505391 PUSH1 0x72 SHL DUP2 MSTORE POP SWAP1 PUSH2 0xA1D JUMPI PUSH1 0x40 MLOAD PUSH3 0x461BCD PUSH1 0xE5 SHL DUP2 MSTORE PUSH1 0x4 ADD PUSH2 0x390 SWAP2 SWAP1 PUSH2 0x1D5B JUMP JUMPDEST POP PUSH2 0xA27 DUP5 PUSH2 0x15BD JUMP JUMPDEST PUSH1 0x4 DUP1 SLOAD PUSH1 0x40 MLOAD PUSH4 0x188E4B85 PUSH1 0xE0 SHL DUP2 MSTORE PUSH1 0x1 PUSH1 0x1 PUSH1 0xA0 SHL SUB SWAP1 SWAP2 AND SWAP2 PUSH4 0x188E4B85 SWAP2 PUSH2 0xA58 SWAP2 CALLER SWAP2 DUP7 SWAP2 ADD PUSH2 0x1B62 JUMP JUMPDEST PUSH1 0x0 PUSH1 0x40 MLOAD DUP1 DUP4 SUB DUP2 PUSH1 0x0 DUP8 DUP1 EXTCODESIZE ISZERO DUP1 ISZERO PUSH2 0xA72 JUMPI PUSH1 0x0 DUP1 REVERT JUMPDEST POP GAS CALL ISZERO DUP1 ISZERO PUSH2 0xA86 JUMPI RETURNDATASIZE PUSH1 0x0 DUP1 RETURNDATACOPY RETURNDATASIZE PUSH1 0x0 REVERT JUMPDEST POP POP POP POP PUSH1 0x40 MLOAD RETURNDATASIZE PUSH1 0x0 DUP3 RETURNDATACOPY PUSH1 0x1F RETURNDATASIZE SWAP1 DUP2 ADD PUSH1 0x1F NOT AND DUP3 ADD PUSH1 0x40 MSTORE PUSH2 0xAAE SWAP2 SWAP1 DUP2 ADD SWAP1 PUSH2 0x1A68 JUMP JUMPDEST POP PUSH1 0x40 MLOAD DUP5 SWAP1 PUSH32 0xD4FBBD7BF63590CE72807EB770B83AAF2F3A7958A4B2093FD9AB89B276096942 SWAP1 PUSH1 0x0 SWAP1 LOG2 POP POP POP POP JUMP JUMPDEST PUSH1 0x0 SLOAD PUSH1 0x1 PUSH1 0x1 PUSH1 0xA0 SHL SUB AND CALLER EQ PUSH2 0xB3A JUMPI PUSH1 0x40 MLOAD PUSH3 0x461BCD PUSH1 0xE5 SHL DUP2 MSTORE PUSH1 0x20 PUSH1 0x4 DUP3 ADD DUP2 SWAP1 MSTORE PUSH1 0x24 DUP3 ADD MSTORE PUSH32 0x4F776E61626C653A2063616C6C6572206973206E6F7420746865206F776E6572 PUSH1 0x44 DUP3 ADD MSTORE PUSH1 0x64 ADD PUSH2 0x390 JUMP JUMPDEST PUSH1 0x0 DUP1 SLOAD PUSH1 0x40 MLOAD PUSH1 0x1 PUSH1 0x1 PUSH1 0xA0 SHL SUB SWAP1 SWAP2 AND SWAP1 PUSH32 0x8BE0079C531659141344CD1FD0A4F28419497F9722A3DAAFE3B4186F6B6457E0 SWAP1 DUP4 SWAP1 LOG3 PUSH1 0x0 DUP1 SLOAD PUSH1 0x1 PUSH1 0x1 PUSH1 0xA0 SHL SUB NOT AND SWAP1 SSTORE JUMP JUMPDEST PUSH1 0x0 DUP3 PUSH1 0x0 PUSH1 0x3 PUSH1 0x0 DUP4 DUP2 MSTORE PUSH1 0x20 ADD SWAP1 DUP2 MSTORE PUSH1 0x20 ADD PUSH1 0x0 KECCAK256 SLOAD GT PUSH1 0x40 MLOAD DUP1 PUSH1 0x40 ADD PUSH1 0x40 MSTORE DUP1 PUSH1 0x10 DUP2 MSTORE PUSH1 0x20 ADD PUSH16 0x1353D51253D397D393D517D193D55391 PUSH1 0x82 SHL DUP2 MSTORE POP SWAP1 PUSH2 0xBE5 JUMPI PUSH1 0x40 MLOAD PUSH3 0x461BCD PUSH1 0xE5 SHL DUP2 MSTORE PUSH1 0x4 ADD PUSH2 0x390 SWAP2 SWAP1 PUSH2 0x1D5B JUMP JUMPDEST POP PUSH1 0x0 PUSH2 0xBF1 DUP6 PUSH2 0x156D JUMP JUMPDEST PUSH1 0x5 DUP1 SLOAD SWAP1 DUP3 ADD SLOAD PUSH1 0x40 MLOAD PUSH4 0x277166BF PUSH1 0xE1 SHL DUP2 MSTORE PUSH1 0x1 PUSH1 0x1 PUSH1 0xA0 SHL SUB DUP9 DUP2 AND PUSH1 0x4 DUP4 ADD MSTORE PUSH1 0x24 DUP3 ADD SWAP3 SWAP1 SWAP3 MSTORE SWAP3 SWAP4 POP PUSH1 0x0 SWAP3 SWAP2 AND SWAP1 PUSH4 0x4EE2CD7E SWAP1 PUSH1 0x44 ADD PUSH1 0x20 PUSH1 0x40 MLOAD DUP1 DUP4 SUB DUP2 DUP7 DUP1 EXTCODESIZE ISZERO DUP1 ISZERO PUSH2 0xC48 JUMPI PUSH1 0x0 DUP1 REVERT JUMPDEST POP GAS STATICCALL ISZERO DUP1 ISZERO PUSH2 0xC5C JUMPI RETURNDATASIZE PUSH1 0x0 DUP1 RETURNDATACOPY RETURNDATASIZE PUSH1 0x0 REVERT JUMPDEST POP POP POP POP PUSH1 0x40 MLOAD RETURNDATASIZE PUSH1 0x1F NOT PUSH1 0x1F DUP3 ADD AND DUP3 ADD DUP1 PUSH1 0x40 MSTORE POP DUP2 ADD SWAP1 PUSH2 0xC80 SWAP2 SWAP1 PUSH2 0x1AF3 JUMP JUMPDEST SWAP1 POP PUSH1 0x0 DUP2 GT DUP1 ISZERO PUSH2 0xCB5 JUMPI POP PUSH1 0x0 DUP7 DUP2 MSTORE PUSH1 0x6 PUSH1 0x20 SWAP1 DUP2 MSTORE PUSH1 0x40 DUP1 DUP4 KECCAK256 PUSH1 0x1 PUSH1 0x1 PUSH1 0xA0 SHL SUB DUP10 AND DUP5 MSTORE SWAP1 SWAP2 MSTORE SWAP1 KECCAK256 SLOAD PUSH1 0xFF AND ISZERO JUMPDEST SWAP7 SWAP6 POP POP POP POP POP POP JUMP JUMPDEST PUSH1 0x1 PUSH1 0x1 PUSH1 0xA0 SHL SUB DUP2 AND PUSH1 0x0 SWAP1 DUP2 MSTORE PUSH1 0xB PUSH1 0x20 SWAP1 DUP2 MSTORE PUSH1 0x40 SWAP2 DUP3 SWAP1 KECCAK256 SLOAD DUP3 MLOAD DUP1 DUP5 ADD SWAP1 SWAP4 MSTORE DUP2 DUP4 MSTORE PUSH32 0x45564D5F5343524950545F464143544F52595F414C52454144595F4144444544 SWAP2 DUP4 ADD SWAP2 SWAP1 SWAP2 MSTORE ISZERO PUSH2 0xD2D JUMPI PUSH1 0x40 MLOAD PUSH3 0x461BCD PUSH1 0xE5 SHL DUP2 MSTORE PUSH1 0x4 ADD PUSH2 0x390 SWAP2 SWAP1 PUSH2 0x1D5B JUMP JUMPDEST POP PUSH1 0xA DUP1 SLOAD PUSH1 0x1 DUP2 ADD DUP3 SSTORE PUSH32 0xC65A7BB8D6351C1CF70C95A316CC6A92839C986682D98BC35F958F4883F9D2A8 ADD DUP1 SLOAD PUSH1 0x1 PUSH1 0x1 PUSH1 0xA0 SHL SUB NOT AND PUSH1 0x1 PUSH1 0x1 PUSH1 0xA0 SHL SUB DUP5 AND SWAP1 DUP2 OR SWAP1 SWAP2 SSTORE SWAP1 SLOAD PUSH1 0x0 DUP3 DUP2 MSTORE PUSH1 0xB PUSH1 0x20 MSTORE PUSH1 0x40 DUP1 DUP3 KECCAK256 SWAP3 SWAP1 SWAP3 SSTORE SWAP1 MLOAD PUSH32 0xAD9D3AAEB4F5294231891D7A78DAD1323E582EE7BB6C18866C2307919C1D7FF1 SWAP2 SWAP1 LOG2 POP JUMP JUMPDEST PUSH1 0x1 DUP2 DUP2 SLOAD DUP2 LT PUSH2 0xDC4 JUMPI PUSH1 0x0 DUP1 REVERT JUMPDEST PUSH1 0x0 SWAP2 DUP3 MSTORE PUSH1 0x20 SWAP1 SWAP2 KECCAK256 PUSH1 0xB SWAP1 SWAP2 MUL ADD DUP1 SLOAD PUSH1 0x1 DUP3 ADD SLOAD PUSH1 0x2 DUP4 ADD SLOAD PUSH1 0x3 DUP5 ADD SLOAD PUSH1 0x4 DUP6 ADD SLOAD PUSH1 0x5 DUP7 ADD SLOAD PUSH1 0x6 DUP8 ADD SLOAD PUSH1 0x7 DUP9 ADD SLOAD PUSH1 0x8 DUP10 ADD SLOAD PUSH1 0x9 DUP11 ADD SLOAD PUSH1 0xA DUP12 ADD DUP1 SLOAD SWAP11 SWAP13 POP PUSH1 0x1 PUSH1 0x1 PUSH1 0xA0 SHL SUB SWAP10 DUP11 AND SWAP12 SWAP9 SWAP1 SWAP10 AND SWAP10 SWAP7 SWAP9 SWAP6 SWAP8 SWAP5 SWAP7 SWAP4 SWAP6 SWAP3 SWAP5 SWAP2 SWAP4 SWAP1 SWAP3 SWAP1 PUSH2 0xE35 SWAP1 PUSH2 0x1ED6 JUMP JUMPDEST DUP1 PUSH1 0x1F ADD PUSH1 0x20 DUP1 SWAP2 DIV MUL PUSH1 0x20 ADD PUSH1 0x40 MLOAD SWAP1 DUP2 ADD PUSH1 0x40 MSTORE DUP1 SWAP3 SWAP2 SWAP1 DUP2 DUP2 MSTORE PUSH1 0x20 ADD DUP3 DUP1 SLOAD PUSH2 0xE61 SWAP1 PUSH2 0x1ED6 JUMP JUMPDEST DUP1 ISZERO PUSH2 0xEAE JUMPI DUP1 PUSH1 0x1F LT PUSH2 0xE83 JUMPI PUSH2 0x100 DUP1 DUP4 SLOAD DIV MUL DUP4 MSTORE SWAP2 PUSH1 0x20 ADD SWAP2 PUSH2 0xEAE JUMP JUMPDEST DUP3 ADD SWAP2 SWAP1 PUSH1 0x0 MSTORE PUSH1 0x20 PUSH1 0x0 KECCAK256 SWAP1 JUMPDEST DUP2 SLOAD DUP2 MSTORE SWAP1 PUSH1 0x1 ADD SWAP1 PUSH1 0x20 ADD DUP1 DUP4 GT PUSH2 0xE91 JUMPI DUP3 SWAP1 SUB PUSH1 0x1F AND DUP3 ADD SWAP2 JUMPDEST POP POP POP POP POP SWAP1 POP DUP12 JUMP JUMPDEST DUP1 PUSH1 0x0 PUSH1 0x3 PUSH1 0x0 DUP4 DUP2 MSTORE PUSH1 0x20 ADD SWAP1 DUP2 MSTORE PUSH1 0x20 ADD PUSH1 0x0 KECCAK256 SLOAD GT PUSH1 0x40 MLOAD DUP1 PUSH1 0x40 ADD PUSH1 0x40 MSTORE DUP1 PUSH1 0x10 DUP2 MSTORE PUSH1 0x20 ADD PUSH16 0x1353D51253D397D393D517D193D55391 PUSH1 0x82 SHL DUP2 MSTORE POP SWAP1 PUSH2 0xF17 JUMPI PUSH1 0x40 MLOAD PUSH3 0x461BCD PUSH1 0xE5 SHL DUP2 MSTORE PUSH1 0x4 ADD PUSH2 0x390 SWAP2 SWAP1 PUSH2 0x1D5B JUMP JUMPDEST POP PUSH1 0x0 PUSH2 0xF23 DUP4 PUSH2 0x156D JUMP JUMPDEST PUSH1 0x2 DUP2 ADD SLOAD SWAP1 SWAP2 POP PUSH1 0x1 PUSH1 0x1 PUSH1 0xA0 SHL SUB AND CALLER EQ DUP1 PUSH2 0xF4A JUMPI POP PUSH1 0x0 SLOAD PUSH1 0x1 PUSH1 0xA0 SHL SWAP1 DIV PUSH1 0xFF AND JUMPDEST PUSH1 0x40 MLOAD DUP1 PUSH1 0x40 ADD PUSH1 0x40 MSTORE DUP1 PUSH1 0xB DUP2 MSTORE PUSH1 0x20 ADD PUSH11 0x2727AA2FA1A922A0AA27A9 PUSH1 0xA9 SHL DUP2 MSTORE POP SWAP1 PUSH2 0xF8C JUMPI PUSH1 0x40 MLOAD PUSH3 0x461BCD PUSH1 0xE5 SHL DUP2 MSTORE PUSH1 0x4 ADD PUSH2 0x390 SWAP2 SWAP1 PUSH2 0x1D5B JUMP JUMPDEST POP PUSH2 0xF96 DUP4 PUSH2 0x15BD JUMP JUMPDEST PUSH1 0x40 MLOAD DUP4 SWAP1 PUSH32 0x801FCB98A9FA2E695209772F0A24F3F7AC36F6568659AE2E0CD7763FB73F2862 SWAP1 PUSH1 0x0 SWAP1 LOG2 POP POP POP JUMP JUMPDEST PUSH1 0x0 PUSH2 0xFD1 DUP3 PUSH2 0x17CD JUMP JUMPDEST PUSH1 0xA SLOAD SWAP1 SWAP2 POP PUSH1 0x0 SWAP1 PUSH2 0xFE6 SWAP1 PUSH1 0x1 SWAP1 PUSH2 0x1E8F JUMP JUMPDEST SWAP1 POP DUP1 DUP3 EQ PUSH2 0x109E JUMPI PUSH1 0x0 PUSH1 0xA DUP3 DUP2 SLOAD DUP2 LT PUSH2 0x1012 JUMPI PUSH4 0x4E487B71 PUSH1 0xE0 SHL PUSH1 0x0 MSTORE PUSH1 0x32 PUSH1 0x4 MSTORE PUSH1 0x24 PUSH1 0x0 REVERT JUMPDEST PUSH1 0x0 SWAP2 DUP3 MSTORE PUSH1 0x20 SWAP1 SWAP2 KECCAK256 ADD SLOAD PUSH1 0xA DUP1 SLOAD PUSH1 0x1 PUSH1 0x1 PUSH1 0xA0 SHL SUB SWAP1 SWAP3 AND SWAP3 POP DUP3 SWAP2 DUP6 SWAP1 DUP2 LT PUSH2 0x104F JUMPI PUSH4 0x4E487B71 PUSH1 0xE0 SHL PUSH1 0x0 MSTORE PUSH1 0x32 PUSH1 0x4 MSTORE PUSH1 0x24 PUSH1 0x0 REVERT JUMPDEST PUSH1 0x0 SWAP2 DUP3 MSTORE PUSH1 0x20 SWAP1 SWAP2 KECCAK256 ADD DUP1 SLOAD PUSH1 0x1 PUSH1 0x1 PUSH1 0xA0 SHL SUB NOT AND PUSH1 0x1 PUSH1 0x1 PUSH1 0xA0 SHL SUB SWAP3 SWAP1 SWAP3 AND SWAP2 SWAP1 SWAP2 OR SWAP1 SSTORE PUSH2 0x1083 DUP4 PUSH1 0x1 PUSH2 0x1E38 JUMP JUMPDEST PUSH1 0x1 PUSH1 0x1 PUSH1 0xA0 SHL SUB SWAP1 SWAP2 AND PUSH1 0x0 SWAP1 DUP2 MSTORE PUSH1 0xB PUSH1 0x20 MSTORE PUSH1 0x40 SWAP1 KECCAK256 SSTORE JUMPDEST PUSH1 0xA DUP1 SLOAD DUP1 PUSH2 0x10BD JUMPI PUSH4 0x4E487B71 PUSH1 0xE0 SHL PUSH1 0x0 MSTORE PUSH1 0x31 PUSH1 0x4 MSTORE PUSH1 0x24 PUSH1 0x0 REVERT JUMPDEST PUSH1 0x0 DUP3 DUP2 MSTORE PUSH1 0x20 DUP1 DUP3 KECCAK256 DUP4 ADD PUSH1 0x0 NOT SWAP1 DUP2 ADD DUP1 SLOAD PUSH1 0x1 PUSH1 0x1 PUSH1 0xA0 SHL SUB NOT AND SWAP1 SSTORE SWAP1 SWAP3 ADD SWAP1 SWAP3 SSTORE PUSH1 0x1 PUSH1 0x1 PUSH1 0xA0 SHL SUB DUP6 AND DUP1 DUP4 MSTORE PUSH1 0xB SWAP1 SWAP2 MSTORE PUSH1 0x40 DUP1 DUP4 KECCAK256 DUP4 SWAP1 SSTORE MLOAD SWAP1 SWAP2 PUSH32 0x669C97C106E46A1B4C87BF5001CD28E54EB43B851A5BC4B344C942241358C98F SWAP2 LOG2 POP POP POP JUMP JUMPDEST PUSH1 0x8 SLOAD PUSH1 0x1 SLOAD PUSH1 0x40 DUP1 MLOAD DUP1 DUP3 ADD SWAP1 SWAP2 MSTORE PUSH1 0x15 DUP2 MSTORE PUSH21 0x1353D51253D394D7D31253525517D4915050D21151 PUSH1 0x5A SHL PUSH1 0x20 DUP3 ADD MSTORE PUSH1 0x0 SWAP3 SWAP1 SWAP2 LT PUSH2 0x117D JUMPI PUSH1 0x40 MLOAD PUSH3 0x461BCD PUSH1 0xE5 SHL DUP2 MSTORE PUSH1 0x4 ADD PUSH2 0x390 SWAP2 SWAP1 PUSH2 0x1D5B JUMP JUMPDEST POP PUSH1 0x40 MLOAD PUSH4 0x462A1DC1 PUSH1 0xE1 SHL DUP2 MSTORE PUSH1 0x0 SWAP1 PUSH1 0x1 PUSH1 0x1 PUSH1 0xA0 SHL SUB DUP6 AND SWAP1 PUSH4 0x8C543B82 SWAP1 PUSH2 0x11AF SWAP1 CALLER SWAP1 DUP8 SWAP1 PUSH1 0x4 ADD PUSH2 0x1B62 JUMP JUMPDEST PUSH1 0x0 PUSH1 0x40 MLOAD DUP1 DUP4 SUB DUP2 DUP7 DUP1 EXTCODESIZE ISZERO DUP1 ISZERO PUSH2 0x11C7 JUMPI PUSH1 0x0 DUP1 REVERT JUMPDEST POP GAS STATICCALL ISZERO DUP1 ISZERO PUSH2 0x11DB JUMPI RETURNDATASIZE PUSH1 0x0 DUP1 RETURNDATACOPY RETURNDATASIZE PUSH1 0x0 REVERT JUMPDEST POP POP POP POP PUSH1 0x40 MLOAD RETURNDATASIZE PUSH1 0x0 DUP3 RETURNDATACOPY PUSH1 0x1F RETURNDATASIZE SWAP1 DUP2 ADD PUSH1 0x1F NOT AND DUP3 ADD PUSH1 0x40 MSTORE PUSH2 0x1203 SWAP2 SWAP1 DUP2 ADD SWAP1 PUSH2 0x1A68 JUMP JUMPDEST PUSH1 0x1 DUP1 SLOAD DUP1 DUP3 ADD DUP3 SSTORE PUSH1 0x0 SWAP2 DUP3 MSTORE PUSH1 0x2 DUP1 SLOAD SWAP4 SWAP5 POP PUSH1 0xB SWAP1 SWAP2 MUL PUSH32 0xB10E2D527612073B26EECDFD717E6A320CF44B4AFAC2B0732D9FCBE2B7FA0CF6 ADD SWAP3 SWAP1 SWAP2 SWAP1 PUSH2 0x124C SWAP1 PUSH2 0x1F11 JUMP JUMPDEST SWAP2 DUP3 SWAP1 SSTORE POP DUP1 DUP3 SSTORE PUSH1 0x1 DUP3 ADD DUP1 SLOAD PUSH1 0x1 PUSH1 0x1 PUSH1 0xA0 SHL SUB DUP9 AND PUSH1 0x1 PUSH1 0x1 PUSH1 0xA0 SHL SUB NOT SWAP2 DUP3 AND OR SWAP1 SWAP2 SSTORE PUSH1 0x2 DUP4 ADD DUP1 SLOAD SWAP1 SWAP2 AND CALLER OR SWAP1 SSTORE PUSH1 0x9 DUP1 SLOAD PUSH1 0x3 DUP5 ADD SSTORE TIMESTAMP PUSH1 0x4 DUP5 ADD SSTORE NUMBER PUSH1 0x5 DUP5 ADD SSTORE PUSH1 0x7 SLOAD PUSH1 0x6 DUP5 ADD SSTORE DUP4 MLOAD PUSH1 0x20 DUP1 DUP7 ADD SWAP2 SWAP1 SWAP2 KECCAK256 SWAP2 DUP5 ADD SWAP2 SWAP1 SWAP2 SSTORE DUP6 MLOAD SWAP2 SWAP5 POP PUSH2 0x12C6 SWAP2 PUSH1 0xA DUP5 ADD SWAP2 DUP8 ADD SWAP1 PUSH2 0x184F JUMP JUMPDEST POP PUSH1 0x1 SLOAD PUSH1 0x0 DUP5 DUP2 MSTORE PUSH1 0x3 PUSH1 0x20 MSTORE PUSH1 0x40 SWAP1 DUP2 SWAP1 KECCAK256 SWAP2 SWAP1 SWAP2 SSTORE MLOAD PUSH1 0x1 PUSH1 0x1 PUSH1 0xA0 SHL SUB DUP7 AND SWAP1 DUP5 SWAP1 PUSH32 0x2775DB1F1F2DD97C60BA2903B3CA235C9CECB3CB47A9CB464F86578B9877F4A4 SWAP1 PUSH2 0x131D SWAP1 CALLER SWAP1 DUP10 SWAP1 DUP9 SWAP1 PUSH2 0x1B8E JUMP JUMPDEST PUSH1 0x40 MLOAD DUP1 SWAP2 SUB SWAP1 LOG3 POP POP SWAP3 SWAP2 POP POP JUMP JUMPDEST PUSH1 0x40 DUP1 MLOAD DUP1 DUP3 ADD SWAP1 SWAP2 MSTORE PUSH1 0xF DUP2 MSTORE PUSH15 0x56414C55455F544F4F5F4C41524745 PUSH1 0x88 SHL PUSH1 0x20 DUP3 ADD MSTORE PUSH2 0x1F4 DUP3 GT ISZERO PUSH2 0x1376 JUMPI PUSH1 0x40 MLOAD PUSH3 0x461BCD PUSH1 0xE5 SHL DUP2 MSTORE PUSH1 0x4 ADD PUSH2 0x390 SWAP2 SWAP1 PUSH2 0x1D5B JUMP JUMPDEST POP PUSH1 0x7 DUP2 SWAP1 SSTORE PUSH1 0x40 MLOAD DUP2 DUP2 MSTORE PUSH32 0xD60715CE58337415334D06256811F30ED8DB120287970870D8505E5ED9074C60 SWAP1 PUSH1 0x20 ADD PUSH2 0x3D4 JUMP JUMPDEST PUSH1 0xA DUP2 DUP2 SLOAD DUP2 LT PUSH2 0x13BC JUMPI PUSH1 0x0 DUP1 REVERT JUMPDEST PUSH1 0x0 SWAP2 DUP3 MSTORE PUSH1 0x20 SWAP1 SWAP2 KECCAK256 ADD SLOAD PUSH1 0x1 PUSH1 0x1 PUSH1 0xA0 SHL SUB AND SWAP1 POP DUP2 JUMP JUMPDEST PUSH1 0x0 SLOAD PUSH1 0x1 PUSH1 0x1 PUSH1 0xA0 SHL SUB AND CALLER EQ PUSH2 0x1430 JUMPI PUSH1 0x40 MLOAD PUSH3 0x461BCD PUSH1 0xE5 SHL DUP2 MSTORE PUSH1 0x20 PUSH1 0x4 DUP3 ADD DUP2 SWAP1 MSTORE PUSH1 0x24 DUP3 ADD MSTORE PUSH32 0x4F776E61626C653A2063616C6C6572206973206E6F7420746865206F776E6572 PUSH1 0x44 DUP3 ADD MSTORE PUSH1 0x64 ADD PUSH2 0x390 JUMP JUMPDEST PUSH1 0x1 PUSH1 0x1 PUSH1 0xA0 SHL SUB DUP2 AND PUSH2 0x1495 JUMPI PUSH1 0x40 MLOAD PUSH3 0x461BCD PUSH1 0xE5 SHL DUP2 MSTORE PUSH1 0x20 PUSH1 0x4 DUP3 ADD MSTORE PUSH1 0x26 PUSH1 0x24 DUP3 ADD MSTORE PUSH32 0x4F776E61626C653A206E6577206F776E657220697320746865207A65726F2061 PUSH1 0x44 DUP3 ADD MSTORE PUSH6 0x646472657373 PUSH1 0xD0 SHL PUSH1 0x64 DUP3 ADD MSTORE PUSH1 0x84 ADD PUSH2 0x390 JUMP JUMPDEST PUSH1 0x0 DUP1 SLOAD PUSH1 0x40 MLOAD PUSH1 0x1 PUSH1 0x1 PUSH1 0xA0 SHL SUB DUP1 DUP6 AND SWAP4 SWAP3 AND SWAP2 PUSH32 0x8BE0079C531659141344CD1FD0A4F28419497F9722A3DAAFE3B4186F6B6457E0 SWAP2 LOG3 PUSH1 0x0 DUP1 SLOAD PUSH1 0x1 PUSH1 0x1 PUSH1 0xA0 SHL SUB NOT AND PUSH1 0x1 PUSH1 0x1 PUSH1 0xA0 SHL SUB SWAP3 SWAP1 SWAP3 AND SWAP2 SWAP1 SWAP2 OR SWAP1 SSTORE JUMP JUMPDEST PUSH1 0x40 DUP1 MLOAD DUP1 DUP3 ADD SWAP1 SWAP2 MSTORE PUSH1 0xF DUP2 MSTORE PUSH15 0x56414C55455F544F4F5F4C41524745 PUSH1 0x88 SHL PUSH1 0x20 DUP3 ADD MSTORE PUSH1 0xC DUP3 LT PUSH2 0x1537 JUMPI PUSH1 0x40 MLOAD PUSH3 0x461BCD PUSH1 0xE5 SHL DUP2 MSTORE PUSH1 0x4 ADD PUSH2 0x390 SWAP2 SWAP1 PUSH2 0x1D5B JUMP JUMPDEST POP PUSH1 0x8 DUP2 SWAP1 SSTORE PUSH1 0x40 MLOAD DUP2 DUP2 MSTORE PUSH32 0x5E368703B7AB35FE9EF4DBC482CD414476841204C7484B8E834D0D3AC4ED8672 SWAP1 PUSH1 0x20 ADD PUSH2 0x3D4 JUMP JUMPDEST PUSH1 0x0 DUP2 DUP2 MSTORE PUSH1 0x3 PUSH1 0x20 MSTORE PUSH1 0x40 DUP2 KECCAK256 SLOAD PUSH1 0x1 SWAP1 PUSH2 0x158A SWAP1 DUP3 SWAP1 PUSH2 0x1E8F JUMP JUMPDEST DUP2 SLOAD DUP2 LT PUSH2 0x15A8 JUMPI PUSH4 0x4E487B71 PUSH1 0xE0 SHL PUSH1 0x0 MSTORE PUSH1 0x32 PUSH1 0x4 MSTORE PUSH1 0x24 PUSH1 0x0 REVERT JUMPDEST SWAP1 PUSH1 0x0 MSTORE PUSH1 0x20 PUSH1 0x0 KECCAK256 SWAP1 PUSH1 0xB MUL ADD SWAP1 POP SWAP2 SWAP1 POP JUMP JUMPDEST PUSH1 0x0 DUP2 DUP2 MSTORE PUSH1 0x3 PUSH1 0x20 MSTORE PUSH1 0x40 DUP2 KECCAK256 SLOAD PUSH2 0x15D8 SWAP1 PUSH1 0x1 SWAP1 PUSH2 0x1E8F JUMP JUMPDEST PUSH1 0x1 DUP1 SLOAD SWAP2 SWAP3 POP PUSH1 0x0 SWAP2 PUSH2 0x15EC SWAP2 SWAP1 PUSH2 0x1E8F JUMP JUMPDEST SWAP1 POP DUP1 DUP3 EQ PUSH2 0x1720 JUMPI PUSH1 0x0 PUSH1 0x1 DUP3 DUP2 SLOAD DUP2 LT PUSH2 0x1618 JUMPI PUSH4 0x4E487B71 PUSH1 0xE0 SHL PUSH1 0x0 MSTORE PUSH1 0x32 PUSH1 0x4 MSTORE PUSH1 0x24 PUSH1 0x0 REVERT JUMPDEST SWAP1 PUSH1 0x0 MSTORE PUSH1 0x20 PUSH1 0x0 KECCAK256 SWAP1 PUSH1 0xB MUL ADD SWAP1 POP DUP1 PUSH1 0x1 DUP5 DUP2 SLOAD DUP2 LT PUSH2 0x164A JUMPI PUSH4 0x4E487B71 PUSH1 0xE0 SHL PUSH1 0x0 MSTORE PUSH1 0x32 PUSH1 0x4 MSTORE PUSH1 0x24 PUSH1 0x0 REVERT JUMPDEST PUSH1 0x0 SWAP2 DUP3 MSTORE PUSH1 0x20 SWAP1 SWAP2 KECCAK256 DUP3 SLOAD PUSH1 0xB SWAP1 SWAP3 MUL ADD SWAP1 DUP2 SSTORE PUSH1 0x1 DUP1 DUP4 ADD SLOAD SWAP1 DUP3 ADD DUP1 SLOAD PUSH1 0x1 PUSH1 0x1 PUSH1 0xA0 SHL SUB SWAP3 DUP4 AND PUSH1 0x1 PUSH1 0x1 PUSH1 0xA0 SHL SUB NOT SWAP2 DUP3 AND OR SWAP1 SWAP2 SSTORE PUSH1 0x2 DUP1 DUP6 ADD SLOAD SWAP1 DUP5 ADD DUP1 SLOAD SWAP2 SWAP1 SWAP4 AND SWAP2 AND OR SWAP1 SSTORE PUSH1 0x3 DUP1 DUP4 ADD SLOAD SWAP1 DUP3 ADD SSTORE PUSH1 0x4 DUP1 DUP4 ADD SLOAD SWAP1 DUP3 ADD SSTORE PUSH1 0x5 DUP1 DUP4 ADD SLOAD SWAP1 DUP3 ADD SSTORE PUSH1 0x6 DUP1 DUP4 ADD SLOAD SWAP1 DUP3 ADD SSTORE PUSH1 0x7 DUP1 DUP4 ADD SLOAD SWAP1 DUP3 ADD SSTORE PUSH1 0x8 DUP1 DUP4 ADD SLOAD SWAP1 DUP3 ADD SSTORE PUSH1 0x9 DUP1 DUP4 ADD SLOAD SWAP1 DUP3 ADD SSTORE PUSH1 0xA DUP1 DUP4 ADD DUP1 SLOAD SWAP2 DUP4 ADD SWAP2 PUSH2 0x16F3 SWAP1 PUSH2 0x1ED6 JUMP JUMPDEST PUSH2 0x16FE SWAP3 SWAP2 SWAP1 PUSH2 0x18D3 JUMP JUMPDEST POP PUSH2 0x170E SWAP2 POP DUP5 SWAP1 POP PUSH1 0x1 PUSH2 0x1E38 JUMP JUMPDEST SWAP1 SLOAD PUSH1 0x0 SWAP1 DUP2 MSTORE PUSH1 0x3 PUSH1 0x20 MSTORE PUSH1 0x40 SWAP1 KECCAK256 SSTORE JUMPDEST PUSH1 0x1 DUP1 SLOAD DUP1 PUSH2 0x173F JUMPI PUSH4 0x4E487B71 PUSH1 0xE0 SHL PUSH1 0x0 MSTORE PUSH1 0x31 PUSH1 0x4 MSTORE PUSH1 0x24 PUSH1 0x0 REVERT JUMPDEST PUSH1 0x0 DUP3 DUP2 MSTORE PUSH1 0x20 DUP2 KECCAK256 PUSH1 0xB PUSH1 0x0 NOT SWAP1 SWAP4 ADD SWAP3 DUP4 MUL ADD DUP2 DUP2 SSTORE PUSH1 0x1 DUP2 ADD DUP1 SLOAD PUSH1 0x1 PUSH1 0x1 PUSH1 0xA0 SHL SUB NOT SWAP1 DUP2 AND SWAP1 SWAP2 SSTORE PUSH1 0x2 DUP3 ADD DUP1 SLOAD SWAP1 SWAP2 AND SWAP1 SSTORE PUSH1 0x3 DUP2 ADD DUP3 SWAP1 SSTORE PUSH1 0x4 DUP2 ADD DUP3 SWAP1 SSTORE PUSH1 0x5 DUP2 ADD DUP3 SWAP1 SSTORE PUSH1 0x6 DUP2 ADD DUP3 SWAP1 SSTORE PUSH1 0x7 DUP2 ADD DUP3 SWAP1 SSTORE PUSH1 0x8 DUP2 ADD DUP3 SWAP1 SSTORE PUSH1 0x9 DUP2 ADD DUP3 SWAP1 SSTORE SWAP1 PUSH2 0x17B6 PUSH1 0xA DUP4 ADD DUP3 PUSH2 0x194E JUMP JUMPDEST POP POP SWAP1 SSTORE POP POP PUSH1 0x0 SWAP1 DUP2 MSTORE PUSH1 0x3 PUSH1 0x20 MSTORE PUSH1 0x40 DUP2 KECCAK256 SSTORE JUMP JUMPDEST PUSH1 0x1 PUSH1 0x1 PUSH1 0xA0 SHL SUB DUP2 AND PUSH1 0x0 SWAP1 DUP2 MSTORE PUSH1 0xB PUSH1 0x20 SWAP1 DUP2 MSTORE PUSH1 0x40 SWAP2 DUP3 SWAP1 KECCAK256 SLOAD DUP3 MLOAD DUP1 DUP5 ADD SWAP1 SWAP4 MSTORE PUSH1 0x1B DUP4 MSTORE PUSH32 0x45564D5F5343524950545F464143544F52595F4E4F545F464F554E0000000000 SWAP2 DUP4 ADD SWAP2 SWAP1 SWAP2 MSTORE SWAP1 DUP2 PUSH2 0x183D JUMPI PUSH1 0x40 MLOAD PUSH3 0x461BCD PUSH1 0xE5 SHL DUP2 MSTORE PUSH1 0x4 ADD PUSH2 0x390 SWAP2 SWAP1 PUSH2 0x1D5B JUMP JUMPDEST POP PUSH2 0x1849 PUSH1 0x1 DUP3 PUSH2 0x1E8F JUMP JUMPDEST SWAP3 SWAP2 POP POP JUMP JUMPDEST DUP3 DUP1 SLOAD PUSH2 0x185B SWAP1 PUSH2 0x1ED6 JUMP JUMPDEST SWAP1 PUSH1 0x0 MSTORE PUSH1 0x20 PUSH1 0x0 KECCAK256 SWAP1 PUSH1 0x1F ADD PUSH1 0x20 SWAP1 DIV DUP2 ADD SWAP3 DUP3 PUSH2 0x187D JUMPI PUSH1 0x0 DUP6 SSTORE PUSH2 0x18C3 JUMP JUMPDEST DUP3 PUSH1 0x1F LT PUSH2 0x1896 JUMPI DUP1 MLOAD PUSH1 0xFF NOT AND DUP4 DUP1 ADD OR DUP6 SSTORE PUSH2 0x18C3 JUMP JUMPDEST DUP3 DUP1 ADD PUSH1 0x1 ADD DUP6 SSTORE DUP3 ISZERO PUSH2 0x18C3 JUMPI SWAP2 DUP3 ADD JUMPDEST DUP3 DUP2 GT ISZERO PUSH2 0x18C3 JUMPI DUP3 MLOAD DUP3 SSTORE SWAP2 PUSH1 0x20 ADD SWAP2 SWAP1 PUSH1 0x1 ADD SWAP1 PUSH2 0x18A8 JUMP JUMPDEST POP PUSH2 0x18CF SWAP3 SWAP2 POP PUSH2 0x198B JUMP JUMPDEST POP SWAP1 JUMP JUMPDEST DUP3 DUP1 SLOAD PUSH2 0x18DF SWAP1 PUSH2 0x1ED6 JUMP JUMPDEST SWAP1 PUSH1 0x0 MSTORE PUSH1 0x20 PUSH1 0x0 KECCAK256 SWAP1 PUSH1 0x1F ADD PUSH1 0x20 SWAP1 DIV DUP2 ADD SWAP3 DUP3 PUSH2 0x1901 JUMPI PUSH1 0x0 DUP6 SSTORE PUSH2 0x18C3 JUMP JUMPDEST DUP3 PUSH1 0x1F LT PUSH2 0x1912 JUMPI DUP1 SLOAD DUP6 SSTORE PUSH2 0x18C3 JUMP JUMPDEST DUP3 DUP1 ADD PUSH1 0x1 ADD DUP6 SSTORE DUP3 ISZERO PUSH2 0x18C3 JUMPI PUSH1 0x0 MSTORE PUSH1 0x20 PUSH1 0x0 KECCAK256 SWAP2 PUSH1 0x1F ADD PUSH1 0x20 SWAP1 DIV DUP3 ADD JUMPDEST DUP3 DUP2 GT ISZERO PUSH2 0x18C3 JUMPI DUP3 SLOAD DUP3 SSTORE SWAP2 PUSH1 0x1 ADD SWAP2 SWAP1 PUSH1 0x1 ADD SWAP1 PUSH2 0x1933 JUMP JUMPDEST POP DUP1 SLOAD PUSH2 0x195A SWAP1 PUSH2 0x1ED6 JUMP JUMPDEST PUSH1 0x0 DUP3 SSTORE DUP1 PUSH1 0x1F LT PUSH2 0x196A JUMPI POP POP JUMP JUMPDEST PUSH1 0x1F ADD PUSH1 0x20 SWAP1 DIV SWAP1 PUSH1 0x0 MSTORE PUSH1 0x20 PUSH1 0x0 KECCAK256 SWAP1 DUP2 ADD SWAP1 PUSH2 0x1988 SWAP2 SWAP1 PUSH2 0x198B JUMP JUMPDEST POP JUMP JUMPDEST JUMPDEST DUP1 DUP3 GT ISZERO PUSH2 0x18CF JUMPI PUSH1 0x0 DUP2 SSTORE PUSH1 0x1 ADD PUSH2 0x198C JUMP JUMPDEST DUP1 CALLDATALOAD PUSH1 0x1 PUSH1 0x1 PUSH1 0xA0 SHL SUB DUP2 AND DUP2 EQ PUSH2 0x19B7 JUMPI PUSH1 0x0 DUP1 REVERT JUMPDEST SWAP2 SWAP1 POP JUMP JUMPDEST PUSH1 0x0 PUSH1 0x20 DUP3 DUP5 SUB SLT ISZERO PUSH2 0x19CD JUMPI DUP1 DUP2 REVERT JUMPDEST PUSH2 0x19D6 DUP3 PUSH2 0x19A0 JUMP JUMPDEST SWAP4 SWAP3 POP POP POP JUMP JUMPDEST PUSH1 0x0 DUP1 PUSH1 0x40 DUP4 DUP6 SUB SLT ISZERO PUSH2 0x19EF JUMPI DUP1 DUP2 REVERT JUMPDEST PUSH2 0x19F8 DUP4 PUSH2 0x19A0 JUMP JUMPDEST SWAP2 POP PUSH1 0x20 DUP4 ADD CALLDATALOAD PUSH8 0xFFFFFFFFFFFFFFFF DUP2 GT ISZERO PUSH2 0x1A13 JUMPI DUP2 DUP3 REVERT JUMPDEST DUP4 ADD PUSH1 0x1F DUP2 ADD DUP6 SGT PUSH2 0x1A23 JUMPI DUP2 DUP3 REVERT JUMPDEST DUP1 CALLDATALOAD PUSH2 0x1A36 PUSH2 0x1A31 DUP3 PUSH2 0x1E10 JUMP JUMPDEST PUSH2 0x1DDF JUMP JUMPDEST DUP2 DUP2 MSTORE DUP7 PUSH1 0x20 DUP4 DUP6 ADD ADD GT ISZERO PUSH2 0x1A4A JUMPI DUP4 DUP5 REVERT JUMPDEST DUP2 PUSH1 0x20 DUP5 ADD PUSH1 0x20 DUP4 ADD CALLDATACOPY SWAP1 DUP2 ADD PUSH1 0x20 ADD SWAP3 SWAP1 SWAP3 MSTORE POP SWAP1 SWAP4 SWAP1 SWAP3 POP SWAP1 POP JUMP JUMPDEST PUSH1 0x0 PUSH1 0x20 DUP3 DUP5 SUB SLT ISZERO PUSH2 0x1A79 JUMPI DUP1 DUP2 REVERT JUMPDEST DUP2 MLOAD PUSH8 0xFFFFFFFFFFFFFFFF DUP2 GT ISZERO PUSH2 0x1A8F JUMPI DUP2 DUP3 REVERT JUMPDEST DUP3 ADD PUSH1 0x1F DUP2 ADD DUP5 SGT PUSH2 0x1A9F JUMPI DUP2 DUP3 REVERT JUMPDEST DUP1 MLOAD PUSH2 0x1AAD PUSH2 0x1A31 DUP3 PUSH2 0x1E10 JUMP JUMPDEST DUP2 DUP2 MSTORE DUP6 PUSH1 0x20 DUP4 DUP6 ADD ADD GT ISZERO PUSH2 0x1AC1 JUMPI DUP4 DUP5 REVERT JUMPDEST PUSH2 0x1AD2 DUP3 PUSH1 0x20 DUP4 ADD PUSH1 0x20 DUP7 ADD PUSH2 0x1EA6 JUMP JUMPDEST SWAP6 SWAP5 POP POP POP POP POP JUMP JUMPDEST PUSH1 0x0 PUSH1 0x20 DUP3 DUP5 SUB SLT ISZERO PUSH2 0x1AEC JUMPI DUP1 DUP2 REVERT JUMPDEST POP CALLDATALOAD SWAP2 SWAP1 POP JUMP JUMPDEST PUSH1 0x0 PUSH1 0x20 DUP3 DUP5 SUB SLT ISZERO PUSH2 0x1B04 JUMPI DUP1 DUP2 REVERT JUMPDEST POP MLOAD SWAP2 SWAP1 POP JUMP JUMPDEST PUSH1 0x0 DUP1 PUSH1 0x40 DUP4 DUP6 SUB SLT ISZERO PUSH2 0x1B1D JUMPI DUP2 DUP3 REVERT JUMPDEST DUP3 CALLDATALOAD SWAP2 POP PUSH2 0x1B2D PUSH1 0x20 DUP5 ADD PUSH2 0x19A0 JUMP JUMPDEST SWAP1 POP SWAP3 POP SWAP3 SWAP1 POP JUMP JUMPDEST PUSH1 0x0 DUP2 MLOAD DUP1 DUP5 MSTORE PUSH2 0x1B4E DUP2 PUSH1 0x20 DUP7 ADD PUSH1 0x20 DUP7 ADD PUSH2 0x1EA6 JUMP JUMPDEST PUSH1 0x1F ADD PUSH1 0x1F NOT AND SWAP3 SWAP1 SWAP3 ADD PUSH1 0x20 ADD SWAP3 SWAP2 POP POP JUMP JUMPDEST PUSH1 0x1 PUSH1 0x1 PUSH1 0xA0 SHL SUB DUP4 AND DUP2 MSTORE PUSH1 0x40 PUSH1 0x20 DUP3 ADD DUP2 SWAP1 MSTORE PUSH1 0x0 SWAP1 PUSH2 0x1B86 SWAP1 DUP4 ADD DUP5 PUSH2 0x1B36 JUMP JUMPDEST SWAP5 SWAP4 POP POP POP POP JUMP JUMPDEST PUSH1 0x1 PUSH1 0x1 PUSH1 0xA0 SHL SUB DUP5 AND DUP2 MSTORE PUSH1 0x60 PUSH1 0x20 DUP3 ADD DUP2 SWAP1 MSTORE PUSH1 0x0 SWAP1 PUSH2 0x1BB2 SWAP1 DUP4 ADD DUP6 PUSH2 0x1B36 JUMP JUMPDEST DUP3 DUP2 SUB PUSH1 0x40 DUP5 ADD MSTORE PUSH2 0xCB5 DUP2 DUP6 PUSH2 0x1B36 JUMP JUMPDEST PUSH1 0x1 DUP1 PUSH1 0xA0 SHL SUB DUP4 AND DUP2 MSTORE PUSH1 0x0 PUSH1 0x20 PUSH1 0x40 DUP2 DUP5 ADD MSTORE DUP2 DUP5 SLOAD DUP4 PUSH1 0x1 DUP3 DUP2 SHR SWAP2 POP DUP1 DUP4 AND DUP1 PUSH2 0x1BF3 JUMPI PUSH1 0x7F DUP4 AND SWAP3 POP JUMPDEST DUP6 DUP4 LT DUP2 EQ ISZERO PUSH2 0x1C11 JUMPI PUSH4 0x4E487B71 PUSH1 0xE0 SHL DUP8 MSTORE PUSH1 0x22 PUSH1 0x4 MSTORE PUSH1 0x24 DUP8 REVERT JUMPDEST PUSH1 0x40 DUP9 ADD DUP4 SWAP1 MSTORE PUSH1 0x60 DUP9 ADD DUP2 DUP1 ISZERO PUSH2 0x1C30 JUMPI PUSH1 0x1 DUP2 EQ PUSH2 0x1C41 JUMPI PUSH2 0x1C6B JUMP JUMPDEST PUSH1 0xFF NOT DUP7 AND DUP3 MSTORE DUP8 DUP3 ADD SWAP7 POP PUSH2 0x1C6B JUMP JUMPDEST PUSH1 0x0 DUP12 DUP2 MSTORE PUSH1 0x20 SWAP1 KECCAK256 DUP10 JUMPDEST DUP7 DUP2 LT ISZERO PUSH2 0x1C65 JUMPI DUP2 SLOAD DUP5 DUP3 ADD MSTORE SWAP1 DUP6 ADD SWAP1 DUP10 ADD PUSH2 0x1C4C JUMP JUMPDEST DUP4 ADD SWAP8 POP POP JUMPDEST POP SWAP5 SWAP11 SWAP10 POP POP POP POP POP POP POP POP POP POP JUMP JUMPDEST PUSH1 0x0 PUSH1 0x20 DUP1 DUP4 ADD DUP2 DUP5 MSTORE DUP1 DUP6 MLOAD DUP1 DUP4 MSTORE PUSH1 0x40 SWAP3 POP DUP3 DUP7 ADD SWAP2 POP DUP3 DUP2 PUSH1 0x5 SHL DUP8 ADD ADD DUP5 DUP9 ADD DUP7 JUMPDEST DUP4 DUP2 LT ISZERO PUSH2 0x1D4D JUMPI PUSH1 0x3F NOT DUP10 DUP5 SUB ADD DUP6 MSTORE DUP2 MLOAD DUP1 MLOAD DUP5 MSTORE DUP8 DUP2 ADD MLOAD PUSH1 0x1 PUSH1 0x1 PUSH1 0xA0 SHL SUB SWAP1 DUP2 AND DUP10 DUP7 ADD MSTORE DUP8 DUP3 ADD MLOAD AND DUP8 DUP6 ADD MSTORE PUSH1 0x60 DUP1 DUP3 ADD MLOAD SWAP1 DUP6 ADD MSTORE PUSH1 0x80 DUP1 DUP3 ADD MLOAD SWAP1 DUP6 ADD MSTORE PUSH1 0xA0 DUP1 DUP3 ADD MLOAD SWAP1 DUP6 ADD MSTORE PUSH1 0xC0 DUP1 DUP3 ADD MLOAD SWAP1 DUP6 ADD MSTORE PUSH1 0xE0 DUP1 DUP3 ADD MLOAD SWAP1 DUP6 ADD MSTORE PUSH2 0x100 DUP1 DUP3 ADD MLOAD SWAP1 DUP6 ADD MSTORE PUSH2 0x120 DUP1 DUP3 ADD MLOAD SWAP1 DUP6 ADD MSTORE PUSH2 0x140 SWAP1 DUP2 ADD MLOAD PUSH2 0x160 SWAP2 DUP6 ADD DUP3 SWAP1 MSTORE SWAP1 PUSH2 0x1D39 DUP2 DUP7 ADD DUP4 PUSH2 0x1B36 JUMP JUMPDEST SWAP7 DUP10 ADD SWAP7 SWAP5 POP POP POP SWAP1 DUP7 ADD SWAP1 PUSH1 0x1 ADD PUSH2 0x1CA1 JUMP JUMPDEST POP SWAP1 SWAP9 SWAP8 POP POP POP POP POP POP POP POP JUMP JUMPDEST PUSH1 0x20 DUP2 MSTORE PUSH1 0x0 PUSH2 0x19D6 PUSH1 0x20 DUP4 ADD DUP5 PUSH2 0x1B36 JUMP JUMPDEST PUSH1 0x0 PUSH2 0x160 DUP14 DUP4 MSTORE PUSH1 0x1 DUP1 PUSH1 0xA0 SHL SUB DUP1 DUP15 AND PUSH1 0x20 DUP6 ADD MSTORE DUP1 DUP14 AND PUSH1 0x40 DUP6 ADD MSTORE POP DUP11 PUSH1 0x60 DUP5 ADD MSTORE DUP10 PUSH1 0x80 DUP5 ADD MSTORE DUP9 PUSH1 0xA0 DUP5 ADD MSTORE DUP8 PUSH1 0xC0 DUP5 ADD MSTORE DUP7 PUSH1 0xE0 DUP5 ADD MSTORE DUP6 PUSH2 0x100 DUP5 ADD MSTORE DUP5 PUSH2 0x120 DUP5 ADD MSTORE DUP1 PUSH2 0x140 DUP5 ADD MSTORE PUSH2 0x1DCD DUP2 DUP5 ADD DUP6 PUSH2 0x1B36 JUMP JUMPDEST SWAP15 SWAP14 POP POP POP POP POP POP POP POP POP POP POP POP POP POP JUMP JUMPDEST PUSH1 0x40 MLOAD PUSH1 0x1F DUP3 ADD PUSH1 0x1F NOT AND DUP2 ADD PUSH8 0xFFFFFFFFFFFFFFFF DUP2 GT DUP3 DUP3 LT OR ISZERO PUSH2 0x1E08 JUMPI PUSH2 0x1E08 PUSH2 0x1F42 JUMP JUMPDEST PUSH1 0x40 MSTORE SWAP2 SWAP1 POP JUMP JUMPDEST PUSH1 0x0 PUSH8 0xFFFFFFFFFFFFFFFF DUP3 GT ISZERO PUSH2 0x1E2A JUMPI PUSH2 0x1E2A PUSH2 0x1F42 JUMP JUMPDEST POP PUSH1 0x1F ADD PUSH1 0x1F NOT AND PUSH1 0x20 ADD SWAP1 JUMP JUMPDEST PUSH1 0x0 DUP3 NOT DUP3 GT ISZERO PUSH2 0x1E4B JUMPI PUSH2 0x1E4B PUSH2 0x1F2C JUMP JUMPDEST POP ADD SWAP1 JUMP JUMPDEST PUSH1 0x0 DUP3 PUSH2 0x1E6B JUMPI PUSH4 0x4E487B71 PUSH1 0xE0 SHL DUP2 MSTORE PUSH1 0x12 PUSH1 0x4 MSTORE PUSH1 0x24 DUP2 REVERT JUMPDEST POP DIV SWAP1 JUMP JUMPDEST PUSH1 0x0 DUP2 PUSH1 0x0 NOT DIV DUP4 GT DUP3 ISZERO ISZERO AND ISZERO PUSH2 0x1E8A JUMPI PUSH2 0x1E8A PUSH2 0x1F2C JUMP JUMPDEST POP MUL SWAP1 JUMP JUMPDEST PUSH1 0x0 DUP3 DUP3 LT ISZERO PUSH2 0x1EA1 JUMPI PUSH2 0x1EA1 PUSH2 0x1F2C JUMP JUMPDEST POP SUB SWAP1 JUMP JUMPDEST PUSH1 0x0 JUMPDEST DUP4 DUP2 LT ISZERO PUSH2 0x1EC1 JUMPI DUP2 DUP2 ADD MLOAD DUP4 DUP3 ADD MSTORE PUSH1 0x20 ADD PUSH2 0x1EA9 JUMP JUMPDEST DUP4 DUP2 GT ISZERO PUSH2 0x1ED0 JUMPI PUSH1 0x0 DUP5 DUP5 ADD MSTORE JUMPDEST POP POP POP POP JUMP JUMPDEST PUSH1 0x1 DUP2 DUP2 SHR SWAP1 DUP3 AND DUP1 PUSH2 0x1EEA JUMPI PUSH1 0x7F DUP3 AND SWAP2 POP JUMPDEST PUSH1 0x20 DUP3 LT DUP2 EQ ISZERO PUSH2 0x1F0B JUMPI PUSH4 0x4E487B71 PUSH1 0xE0 SHL PUSH1 0x0 MSTORE PUSH1 0x22 PUSH1 0x4 MSTORE PUSH1 0x24 PUSH1 0x0 REVERT JUMPDEST POP SWAP2 SWAP1 POP JUMP JUMPDEST PUSH1 0x0 PUSH1 0x0 NOT DUP3 EQ ISZERO PUSH2 0x1F25 JUMPI PUSH2 0x1F25 PUSH2 0x1F2C JUMP JUMPDEST POP PUSH1 0x1 ADD SWAP1 JUMP JUMPDEST PUSH4 0x4E487B71 PUSH1 0xE0 SHL PUSH1 0x0 MSTORE PUSH1 0x11 PUSH1 0x4 MSTORE PUSH1 0x24 PUSH1 0x0 REVERT JUMPDEST PUSH4 0x4E487B71 PUSH1 0xE0 SHL PUSH1 0x0 MSTORE PUSH1 0x41 PUSH1 0x4 MSTORE PUSH1 0x24 PUSH1 0x0 REVERT INVALID LOG2 PUSH5 0x6970667358 0x22 SLT KECCAK256 SMOD 0xD MLOAD 0xBA 0xE0 XOR SAR 0xE7 0x4C 0x25 PUSH29 0x97AE7EC71B409E21F5DBB7781BBF4E67C7AC2DCEDC64736F6C63430008 DIV STOP CALLER ",
  "sha1": "86821b92efcedf6c983a3aab17c1c312bcdcfb83",
  "source": "// SPDX-FileCopyrightText: 2021 Lido <info@lido.fi>\n// SPDX-License-Identifier: GPL-3.0\n\npragma solidity 0.8.4;\n\nimport \"@openzeppelin/contracts/access/Ownable.sol\";\nimport \"./EVMScriptExecutorMock.sol\";\n\ninterface IEVMScriptFactory {\n    function createEvmScript(address _creator, bytes memory _evmScriptCallData)\n        external\n        view\n        returns (bytes memory);\n}\n\ninterface IMiniMeToken {\n    function balanceOfAt(address _owner, uint256 _blockNumber) external pure returns (uint256);\n\n    function totalSupplyAt(uint256 _blockNumber) external view returns (uint256);\n}\n\ncontract EasyTrackMock is Ownable {\n    event MotionDurationChanged(uint256 _motionDuration);\n    event MotionsCountLimitChanged(uint256 _newMotionsCountLimit);\n    event ObjectionsThresholdChanged(uint256 _newThreshold);\n\n    event MotionObjected(\n        uint256 indexed _motionId,\n        address indexed _objector,\n        uint256 _weight,\n        uint256 _votingPower\n    );\n    event MotionRejected(uint256 indexed _motionId);\n    event MotionCanceled(uint256 indexed _motionId);\n    event MotionCreated(\n        uint256 indexed _motionId,\n        address _creator,\n        address indexed _evmScriptFactory,\n        bytes _evmScriptCallData,\n        bytes _evmScript\n    );\n    event MotionEnacted(uint256 indexed _motionId);\n    event EVMScriptFactoryAdded(address indexed _evmScriptFactory);\n    event EVMScriptFactoryDeleted(address indexed _evmScriptFactory);\n\n    string private constant ERROR_ALREADY_OBJECTED = \"ALREADY_OBJECTED\";\n    string private constant ERROR_NOT_ENOUGH_BALANCE = \"NOT_ENOUGH_BALANCE\";\n    string private constant ERROR_MOTIONS_LIMIT_REACHED = \"MOTIONS_LIMIT_REACHED\";\n    string private constant ERROR_MOTION_NOT_FOUND = \"MOTION_NOT_FOUND\";\n    string private constant ERROR_VALUE_TOO_SMALL = \"VALUE_TOO_SMALL\";\n    string private constant ERROR_VALUE_TOO_LARGE = \"VALUE_TOO_LARGE\";\n    string private constant ERROR_NOT_CREATOR = \"NOT_CREATOR\";\n    string private constant ERROR_MOTION_NOT_PASSED = \"MOTION_NOT_PASSED\";\n    string private constant ERROR_UNEXPECTED_COMMAND = \"UNEXPECTED_COMMAND\";\n    string private constant ERROR_EVM_SCRIPT_FACTORY_ALREADY_ADDED =\n        \"EVM_SCRIPT_FACTORY_ALREADY_ADDED\";\n    string private constant ERROR_EVM_SCRIPT_FACTORY_NOT_FOUND = \"EVM_SCRIPT_FACTORY_NOT_FOUN\";\n\n    uint256 public constant MAX_MOTIONS_LIMIT = 12;\n\n    struct Motion {\n        uint256 id;\n        address evmScriptFactory;\n        address creator;\n        uint256 duration;\n        uint256 startDate;\n        uint256 snapshotBlock;\n        uint256 objectionsThreshold;\n        uint256 objectionsAmount;\n        uint256 objectionsAmountPct;\n        bytes32 evmScriptHash;\n        bytes evmScriptCallData;\n    }\n\n    \n    /**\n     @dev trigger for creator error\n     */\n    bool public NO_CREATOR_ERROR = true;\n\n\n    /**\n     @dev upper bound for objectionsThreshold value.\n     Stored in basis points (1% = 100)\n     */\n    uint64 public constant MAX_OBJECTIONS_THRESHOLD = 500;\n\n\n    /**\n     @dev lower bound for motionDuration value\n     */\n    uint64 public constant MIN_MOTION_DURATION = 10 minutes;\n\n    Motion[] public motions;\n    uint256 private lastMotionId;\n    mapping(uint256 => uint256) private motionIndicesByMotionId;\n    EVMScriptExecutorMock evmScriptExecutor;\n\n    IMiniMeToken public governanceToken;\n\n    mapping(uint256 => mapping(address => bool)) objections;\n    /**\n     @dev Percent of governance tokens required to reject a proposal\n     values stored in basis points (1% = 100).\n     Default value is 0.5%\n     */\n    uint256 public objectionsThreshold = 1;\n    uint256 public motionsCountLimit = MAX_MOTIONS_LIMIT;\n    uint256 public motionDuration = MIN_MOTION_DURATION;\n\n    address[] public evmScriptFactories;\n    mapping(address => uint256) private evmScriptFactoryIndices;\n\n    constructor(address _evmScriptExecutor, address _governanceToken) {\n        evmScriptExecutor = EVMScriptExecutorMock(_evmScriptExecutor);\n        governanceToken = IMiniMeToken(_governanceToken);\n    }\n\n    /**\n     @notice Set duration of new created motions.\n     Can be called only by the owner of contract.\n     */\n    function setMotionDuration(uint256 _motionDuration) external  {\n        require(_motionDuration >= MIN_MOTION_DURATION, ERROR_VALUE_TOO_SMALL);\n        motionDuration = uint64(_motionDuration);\n        emit MotionDurationChanged(_motionDuration);\n    }\n\n    /**\n     @notice Set percent of governance tokens required to reject a proposal.\n     Can be callend only by owner of contract.\n     */\n    function setObjectionsThreshold(uint256 _objectionsThreshold) external {\n        require(_objectionsThreshold <= MAX_OBJECTIONS_THRESHOLD, ERROR_VALUE_TOO_LARGE);\n        objectionsThreshold = _objectionsThreshold;\n        emit ObjectionsThresholdChanged(_objectionsThreshold);\n    }\n\n    function setMotionsCountLimit(uint256 _motionsCountLimit) external {\n        require(_motionsCountLimit < MAX_MOTIONS_LIMIT, ERROR_VALUE_TOO_LARGE);\n        motionsCountLimit = _motionsCountLimit;\n        emit MotionsCountLimitChanged(_motionsCountLimit);\n    }\n\n    function createMotion(address _evmScriptFactory, bytes memory _evmScriptCallData)\n        external\n        returns (uint256 _motionId)\n    {\n        require(motions.length < motionsCountLimit, ERROR_MOTIONS_LIMIT_REACHED);\n        bytes memory command =\n            IEVMScriptFactory(_evmScriptFactory).createEvmScript(msg.sender, _evmScriptCallData);\n\n        Motion storage m = motions.push();\n        _motionId = ++lastMotionId;\n        m.id = _motionId;\n        m.evmScriptFactory = _evmScriptFactory;\n        m.creator = msg.sender;\n        m.duration = motionDuration;\n        m.startDate = block.timestamp;\n        m.snapshotBlock = block.number;\n        m.objectionsThreshold = objectionsThreshold;\n        m.evmScriptHash = keccak256(command);\n        m.evmScriptCallData = _evmScriptCallData;\n\n        motionIndicesByMotionId[_motionId] = motions.length;\n\n        emit MotionCreated(_motionId, msg.sender, _evmScriptFactory, _evmScriptCallData, command);\n    }\n\n    function cancelMotion(uint256 _motionId) external motionExists(_motionId) {\n        Motion storage m = _getMotion(_motionId);\n        require(m.creator == msg.sender || NO_CREATOR_ERROR, ERROR_NOT_CREATOR);\n        _deleteMotion(_motionId);\n        emit MotionCanceled(_motionId);\n    }\n\n    function enactMotion(uint256 _motionId) external motionExists(_motionId) {\n        Motion storage m = _getMotion(_motionId);\n        require(m.startDate + m.duration <= block.timestamp, ERROR_MOTION_NOT_PASSED);\n        bytes memory command =\n            IEVMScriptFactory(m.evmScriptFactory).createEvmScript(m.creator, m.evmScriptCallData);\n        require(m.evmScriptHash == keccak256(command), ERROR_UNEXPECTED_COMMAND);\n        _deleteMotion(_motionId);\n        evmScriptExecutor.executeEVMScript(msg.sender, command);\n        emit MotionEnacted(_motionId);\n    }\n\n    function objectToMotion(uint256 _motionId) external motionExists(_motionId) {\n        require(!objections[_motionId][msg.sender], ERROR_ALREADY_OBJECTED);\n        objections[_motionId][msg.sender] = true;\n\n        Motion storage m = _getMotion(_motionId);\n\n        uint256 balance = governanceToken.balanceOfAt(msg.sender, m.snapshotBlock);\n        require(balance > 0, ERROR_NOT_ENOUGH_BALANCE);\n\n        m.objectionsAmount += balance;\n        uint256 totalSupply = governanceToken.totalSupplyAt(m.snapshotBlock);\n        m.objectionsAmountPct = (10000 * m.objectionsAmount) / totalSupply;\n\n        emit MotionObjected(_motionId, msg.sender, balance, totalSupply);\n\n        if (m.objectionsAmountPct > m.objectionsThreshold) {\n            _deleteMotion(_motionId);\n            emit MotionRejected(_motionId);\n        }\n    }\n\n    function addEvmScriptFactory(address _evmScriptFactory) external {\n        require(\n            evmScriptFactoryIndices[_evmScriptFactory] == 0,\n            ERROR_EVM_SCRIPT_FACTORY_ALREADY_ADDED\n        );\n        evmScriptFactories.push(_evmScriptFactory);\n        evmScriptFactoryIndices[_evmScriptFactory] = evmScriptFactories.length;\n        emit EVMScriptFactoryAdded(_evmScriptFactory);\n    }\n\n    function deleteEvmScriptFactory(address _evmScriptFactory) external {\n        uint256 index = _getEvmScriptFactoryIndex(_evmScriptFactory);\n        uint256 lastIndex = evmScriptFactories.length - 1;\n\n        if (index != lastIndex) {\n            address lastEVMScriptFactory = evmScriptFactories[lastIndex];\n            evmScriptFactories[index] = lastEVMScriptFactory;\n            evmScriptFactoryIndices[lastEVMScriptFactory] = index + 1;\n        }\n\n        evmScriptFactories.pop();\n        delete evmScriptFactoryIndices[_evmScriptFactory];\n        emit EVMScriptFactoryDeleted(_evmScriptFactory);\n    }\n\n    function getMotions() external view returns (Motion[] memory) {\n        return motions;\n    }\n\n    function canObjectToMotion(uint256 _motionId, address _objector)\n        external\n        view\n        motionExists(_motionId)\n        returns (bool)\n    {\n        Motion storage m = _getMotion(_motionId);\n        uint256 balance = governanceToken.balanceOfAt(_objector, m.snapshotBlock);\n        return balance > 0 && !objections[_motionId][_objector];\n    }\n\n    function _deleteMotion(uint256 _motionId) private {\n        uint256 index = motionIndicesByMotionId[_motionId] - 1;\n        uint256 lastIndex = motions.length - 1;\n\n        if (index != lastIndex) {\n            Motion storage lastMotion = motions[lastIndex];\n            motions[index] = lastMotion;\n            motionIndicesByMotionId[lastMotion.id] = index + 1;\n        }\n\n        motions.pop();\n        delete motionIndicesByMotionId[_motionId];\n    }\n\n    function _getEvmScriptFactoryIndex(address _evmScriptFactory)\n        private\n        view\n        returns (uint256 _index)\n    {\n        _index = evmScriptFactoryIndices[_evmScriptFactory];\n        require(_index > 0, ERROR_EVM_SCRIPT_FACTORY_NOT_FOUND);\n        _index -= 1;\n    }\n\n    function _getMotion(uint256 _motionId) private view returns (Motion storage) {\n        return motions[motionIndicesByMotionId[_motionId] - 1];\n    }\n\n    modifier motionExists(uint256 _motionId) {\n        require(motionIndicesByMotionId[_motionId] > 0, ERROR_MOTION_NOT_FOUND);\n        _;\n    }\n}\n\n",
  "sourcePath": "contracts/mock/EasyTrackMock.sol",
  "type": "contract"
}