{
  "abi": [
    {
      "inputs": [
        {
          "internalType": "address",
          "name": "_trustedCaller",
          "type": "address"
        },
        {
          "internalType": "address",
          "name": "_referralPartnersRegistry",
          "type": "address"
        }
      ],
      "stateMutability": "nonpayable",
      "type": "constructor"
    },
    {
      "inputs": [
        {
          "internalType": "address",
          "name": "_creator",
          "type": "address"
        },
        {
          "internalType": "bytes",
          "name": "_evmScriptCallData",
          "type": "bytes"
        }
      ],
      "name": "createEVMScript",
      "outputs": [
        {
          "internalType": "bytes",
          "name": "",
          "type": "bytes"
        }
      ],
      "stateMutability": "view",
      "type": "function"
    },
    {
      "inputs": [
        {
          "internalType": "bytes",
          "name": "_evmScriptCallData",
          "type": "bytes"
        }
      ],
      "name": "decodeEVMScriptCallData",
      "outputs": [
        {
          "internalType": "address",
          "name": "",
          "type": "address"
        },
        {
          "internalType": "string",
          "name": "",
          "type": "string"
        }
      ],
      "stateMutability": "pure",
      "type": "function"
    },
    {
      "inputs": [],
      "name": "referralPartnersRegistry",
      "outputs": [
        {
          "internalType": "contract ReferralPartnersRegistry",
          "name": "",
          "type": "address"
        }
      ],
      "stateMutability": "view",
      "type": "function"
    },
    {
      "inputs": [],
      "name": "trustedCaller",
      "outputs": [
        {
          "internalType": "address",
          "name": "",
          "type": "address"
        }
      ],
      "stateMutability": "view",
      "type": "function"
    }
  ],
  "bytecode": "60c060405234801561001057600080fd5b5060405161082738038061082783398101604081905261002f916100d2565b60408051808201909152601e81527f545255535445445f43414c4c45525f49535f5a45524f5f414444524553530000602082015282906001600160a01b0382166100955760405162461bcd60e51b815260040161008c9190610105565b60405180910390fd5b506001600160601b0319606091821b811660805291901b1660a0525061015a565b80516001600160a01b03811681146100cd57600080fd5b919050565b600080604083850312156100e557600080fd5b6100ee836100b6565b91506100fc602084016100b6565b90509250929050565b600060208083528351808285015260005b8181101561013257858101830151858201604001528201610116565b81811115610144576000604083870101525b50601f01601f1916929092016040019392505050565b60805160601c60a05160601c6106966101916000396000818160bb01526101cd0152600081816056015261011801526106966000f3fe608060405234801561001057600080fd5b506004361061004c5760003560e01c8063268f076014610051578063ecf7c69014610095578063edbe2dec146100b6578063fea21c9c146100dd575b600080fd5b6100787f000000000000000000000000000000000000000000000000000000000000000081565b6040516001600160a01b0390911681526020015b60405180910390f35b6100a86100a3366004610472565b6100fd565b60405161008c92919061053c565b6100787f000000000000000000000000000000000000000000000000000000000000000081565b6100f06100eb3660046103f9565b610113565b60405161008c9190610560565b6000606061010a836102ba565b91509150915091565b6060827f00000000000000000000000000000000000000000000000000000000000000006001600160a01b0316816001600160a01b0316146040518060400160405280601381526020017221a0a62622a92fa4a9afa327a92124a22222a760691b8152509061019e5760405162461bcd60e51b81526004016101959190610560565b60405180910390fd5b5060006101aa846102ba565b5060405163709245d560e11b81526001600160a01b0380831660048301529192507f00000000000000000000000000000000000000000000000000000000000000009091169063e1248baa9060240160206040518083038186803b15801561021157600080fd5b505afa158015610225573d6000803e3d6000fd5b505050506040513d601f19601f820116820180604052508101906102499190610449565b156040518060400160405280601e81526020017f524546455252414c5f504152544e45525f414c52454144595f414444454400008152509061029e5760405162461bcd60e51b81526004016101959190610560565b506102b1816301dca63360e11b866102d2565b95945050505050565b600060608280602001905181019061010a919061036c565b6060600160e01b84835160046102e891906105cc565b85856040516020016102fe9594939291906104db565b60405160208183030381529060405290509392505050565b600082601f83011261032757600080fd5b813561033a610335826105a4565b610573565b81815284602083860101111561034f57600080fd5b816020850160208301376000918101602001919091529392505050565b6000806040838503121561037f57600080fd5b825161038a81610648565b602084015190925067ffffffffffffffff8111156103a757600080fd5b8301601f810185136103b857600080fd5b80516103c6610335826105a4565b8181528660208385010111156103db57600080fd5b6103ec826020830160208601610602565b8093505050509250929050565b6000806040838503121561040c57600080fd5b823561041781610648565b9150602083013567ffffffffffffffff81111561043357600080fd5b61043f85828601610316565b9150509250929050565b60006020828403121561045b57600080fd5b8151801515811461046b57600080fd5b9392505050565b60006020828403121561048457600080fd5b813567ffffffffffffffff81111561049b57600080fd5b6104a784828501610316565b949350505050565b600081518084526104c7816020860160208601610602565b601f01601f19169290920160200192915050565b6001600160e01b03198681168252606086901b6bffffffffffffffffffffffff1916600483015260e085901b811660188301528316601c820152815160009061052b816020808601908701610602565b919091016020019695505050505050565b6001600160a01b03831681526040602082018190526000906104a7908301846104af565b60208152600061046b60208301846104af565b604051601f8201601f1916810167ffffffffffffffff8111828210171561059c5761059c610632565b604052919050565b600067ffffffffffffffff8211156105be576105be610632565b50601f01601f191660200190565b600063ffffffff8083168185168083038211156105f957634e487b7160e01b600052601160045260246000fd5b01949350505050565b60005b8381101561061d578181015183820152602001610605565b8381111561062c576000848401525b50505050565b634e487b7160e01b600052604160045260246000fd5b6001600160a01b038116811461065d57600080fd5b5056fea26469706673582212209cdc6d9e7faebb6e7824cef6ecddcf5f247446fca73ff57fbcdcc3126005c8e964736f6c63430008060033",
  "bytecodeSha1": "0c90c08a223c70f41dc1face71f6c55fe93b28f1",
  "compiler": {
    "evm_version": "istanbul",
    "optimizer": {
      "enabled": true,
      "runs": 200
    },
    "version": "0.8.6+commit.11564f7e"
  },
  "contractName": "AddReferralPartner",
  "language": "Solidity",
  "natspec": {
    "author": "psirex, dzhon",
    "kind": "dev",
    "methods": {
      "createEVMScript(address,bytes)": {
        "notice": "Creates EVMScript to add new referral partner address to ReferralPartnersRegistry",
        "params": {
          "_creator": "Address who creates EVMScript",
          "_evmScriptCallData": "Encoded tuple: (address _referralPartner)"
        }
      },
      "decodeEVMScriptCallData(bytes)": {
        "notice": "Decodes call data used by createEVMScript method",
        "params": {
          "_evmScriptCallData": "Encoded tuple: (address _referralPartner, string _title)"
        },
        "returns": {
          "_0": "_referralPartner Address of new referral partner"
        }
      },
      "referralPartnersRegistry()": {
        "notice": "Address of ReferralPartnersRegistry"
      }
    },
    "notice": "Creates EVMScript to add new referral partner address to ReferralPartnersRegistry",
    "version": 1
  },
  "opcodes": "PUSH1 0x80 PUSH1 0x40 MSTORE CALLVALUE DUP1 ISZERO PUSH2 0x10 JUMPI PUSH1 0x0 DUP1 REVERT JUMPDEST POP PUSH1 0x4 CALLDATASIZE LT PUSH2 0x4C JUMPI PUSH1 0x0 CALLDATALOAD PUSH1 0xE0 SHR DUP1 PUSH4 0x268F0760 EQ PUSH2 0x51 JUMPI DUP1 PUSH4 0xECF7C690 EQ PUSH2 0x95 JUMPI DUP1 PUSH4 0xEDBE2DEC EQ PUSH2 0xB6 JUMPI DUP1 PUSH4 0xFEA21C9C EQ PUSH2 0xDD JUMPI JUMPDEST PUSH1 0x0 DUP1 REVERT JUMPDEST PUSH2 0x78 PUSH32 0x0 DUP2 JUMP JUMPDEST PUSH1 0x40 MLOAD PUSH1 0x1 PUSH1 0x1 PUSH1 0xA0 SHL SUB SWAP1 SWAP2 AND DUP2 MSTORE PUSH1 0x20 ADD JUMPDEST PUSH1 0x40 MLOAD DUP1 SWAP2 SUB SWAP1 RETURN JUMPDEST PUSH2 0xA8 PUSH2 0xA3 CALLDATASIZE PUSH1 0x4 PUSH2 0x472 JUMP JUMPDEST PUSH2 0xFD JUMP JUMPDEST PUSH1 0x40 MLOAD PUSH2 0x8C SWAP3 SWAP2 SWAP1 PUSH2 0x53C JUMP JUMPDEST PUSH2 0x78 PUSH32 0x0 DUP2 JUMP JUMPDEST PUSH2 0xF0 PUSH2 0xEB CALLDATASIZE PUSH1 0x4 PUSH2 0x3F9 JUMP JUMPDEST PUSH2 0x113 JUMP JUMPDEST PUSH1 0x40 MLOAD PUSH2 0x8C SWAP2 SWAP1 PUSH2 0x560 JUMP JUMPDEST PUSH1 0x0 PUSH1 0x60 PUSH2 0x10A DUP4 PUSH2 0x2BA JUMP JUMPDEST SWAP2 POP SWAP2 POP SWAP2 POP SWAP2 JUMP JUMPDEST PUSH1 0x60 DUP3 PUSH32 0x0 PUSH1 0x1 PUSH1 0x1 PUSH1 0xA0 SHL SUB AND DUP2 PUSH1 0x1 PUSH1 0x1 PUSH1 0xA0 SHL SUB AND EQ PUSH1 0x40 MLOAD DUP1 PUSH1 0x40 ADD PUSH1 0x40 MSTORE DUP1 PUSH1 0x13 DUP2 MSTORE PUSH1 0x20 ADD PUSH19 0x21A0A62622A92FA4A9AFA327A92124A22222A7 PUSH1 0x69 SHL DUP2 MSTORE POP SWAP1 PUSH2 0x19E JUMPI PUSH1 0x40 MLOAD PUSH3 0x461BCD PUSH1 0xE5 SHL DUP2 MSTORE PUSH1 0x4 ADD PUSH2 0x195 SWAP2 SWAP1 PUSH2 0x560 JUMP JUMPDEST PUSH1 0x40 MLOAD DUP1 SWAP2 SUB SWAP1 REVERT JUMPDEST POP PUSH1 0x0 PUSH2 0x1AA DUP5 PUSH2 0x2BA JUMP JUMPDEST POP PUSH1 0x40 MLOAD PUSH4 0x709245D5 PUSH1 0xE1 SHL DUP2 MSTORE PUSH1 0x1 PUSH1 0x1 PUSH1 0xA0 SHL SUB DUP1 DUP4 AND PUSH1 0x4 DUP4 ADD MSTORE SWAP2 SWAP3 POP PUSH32 0x0 SWAP1 SWAP2 AND SWAP1 PUSH4 0xE1248BAA SWAP1 PUSH1 0x24 ADD PUSH1 0x20 PUSH1 0x40 MLOAD DUP1 DUP4 SUB DUP2 DUP7 DUP1 EXTCODESIZE ISZERO DUP1 ISZERO PUSH2 0x211 JUMPI PUSH1 0x0 DUP1 REVERT JUMPDEST POP GAS STATICCALL ISZERO DUP1 ISZERO PUSH2 0x225 JUMPI RETURNDATASIZE PUSH1 0x0 DUP1 RETURNDATACOPY RETURNDATASIZE PUSH1 0x0 REVERT JUMPDEST POP POP POP POP PUSH1 0x40 MLOAD RETURNDATASIZE PUSH1 0x1F NOT PUSH1 0x1F DUP3 ADD AND DUP3 ADD DUP1 PUSH1 0x40 MSTORE POP DUP2 ADD SWAP1 PUSH2 0x249 SWAP2 SWAP1 PUSH2 0x449 JUMP JUMPDEST ISZERO PUSH1 0x40 MLOAD DUP1 PUSH1 0x40 ADD PUSH1 0x40 MSTORE DUP1 PUSH1 0x1E DUP2 MSTORE PUSH1 0x20 ADD PUSH32 0x524546455252414C5F504152544E45525F414C52454144595F41444445440000 DUP2 MSTORE POP SWAP1 PUSH2 0x29E JUMPI PUSH1 0x40 MLOAD PUSH3 0x461BCD PUSH1 0xE5 SHL DUP2 MSTORE PUSH1 0x4 ADD PUSH2 0x195 SWAP2 SWAP1 PUSH2 0x560 JUMP JUMPDEST POP PUSH2 0x2B1 DUP2 PUSH4 0x1DCA633 PUSH1 0xE1 SHL DUP7 PUSH2 0x2D2 JUMP JUMPDEST SWAP6 SWAP5 POP POP POP POP POP JUMP JUMPDEST PUSH1 0x0 PUSH1 0x60 DUP3 DUP1 PUSH1 0x20 ADD SWAP1 MLOAD DUP2 ADD SWAP1 PUSH2 0x10A SWAP2 SWAP1 PUSH2 0x36C JUMP JUMPDEST PUSH1 0x60 PUSH1 0x1 PUSH1 0xE0 SHL DUP5 DUP4 MLOAD PUSH1 0x4 PUSH2 0x2E8 SWAP2 SWAP1 PUSH2 0x5CC JUMP JUMPDEST DUP6 DUP6 PUSH1 0x40 MLOAD PUSH1 0x20 ADD PUSH2 0x2FE SWAP6 SWAP5 SWAP4 SWAP3 SWAP2 SWAP1 PUSH2 0x4DB JUMP JUMPDEST PUSH1 0x40 MLOAD PUSH1 0x20 DUP2 DUP4 SUB SUB DUP2 MSTORE SWAP1 PUSH1 0x40 MSTORE SWAP1 POP SWAP4 SWAP3 POP POP POP JUMP JUMPDEST PUSH1 0x0 DUP3 PUSH1 0x1F DUP4 ADD SLT PUSH2 0x327 JUMPI PUSH1 0x0 DUP1 REVERT JUMPDEST DUP2 CALLDATALOAD PUSH2 0x33A PUSH2 0x335 DUP3 PUSH2 0x5A4 JUMP JUMPDEST PUSH2 0x573 JUMP JUMPDEST DUP2 DUP2 MSTORE DUP5 PUSH1 0x20 DUP4 DUP7 ADD ADD GT ISZERO PUSH2 0x34F JUMPI PUSH1 0x0 DUP1 REVERT JUMPDEST DUP2 PUSH1 0x20 DUP6 ADD PUSH1 0x20 DUP4 ADD CALLDATACOPY PUSH1 0x0 SWAP2 DUP2 ADD PUSH1 0x20 ADD SWAP2 SWAP1 SWAP2 MSTORE SWAP4 SWAP3 POP POP POP JUMP JUMPDEST PUSH1 0x0 DUP1 PUSH1 0x40 DUP4 DUP6 SUB SLT ISZERO PUSH2 0x37F JUMPI PUSH1 0x0 DUP1 REVERT JUMPDEST DUP3 MLOAD PUSH2 0x38A DUP2 PUSH2 0x648 JUMP JUMPDEST PUSH1 0x20 DUP5 ADD MLOAD SWAP1 SWAP3 POP PUSH8 0xFFFFFFFFFFFFFFFF DUP2 GT ISZERO PUSH2 0x3A7 JUMPI PUSH1 0x0 DUP1 REVERT JUMPDEST DUP4 ADD PUSH1 0x1F DUP2 ADD DUP6 SGT PUSH2 0x3B8 JUMPI PUSH1 0x0 DUP1 REVERT JUMPDEST DUP1 MLOAD PUSH2 0x3C6 PUSH2 0x335 DUP3 PUSH2 0x5A4 JUMP JUMPDEST DUP2 DUP2 MSTORE DUP7 PUSH1 0x20 DUP4 DUP6 ADD ADD GT ISZERO PUSH2 0x3DB JUMPI PUSH1 0x0 DUP1 REVERT JUMPDEST PUSH2 0x3EC DUP3 PUSH1 0x20 DUP4 ADD PUSH1 0x20 DUP7 ADD PUSH2 0x602 JUMP JUMPDEST DUP1 SWAP4 POP POP POP POP SWAP3 POP SWAP3 SWAP1 POP JUMP JUMPDEST PUSH1 0x0 DUP1 PUSH1 0x40 DUP4 DUP6 SUB SLT ISZERO PUSH2 0x40C JUMPI PUSH1 0x0 DUP1 REVERT JUMPDEST DUP3 CALLDATALOAD PUSH2 0x417 DUP2 PUSH2 0x648 JUMP JUMPDEST SWAP2 POP PUSH1 0x20 DUP4 ADD CALLDATALOAD PUSH8 0xFFFFFFFFFFFFFFFF DUP2 GT ISZERO PUSH2 0x433 JUMPI PUSH1 0x0 DUP1 REVERT JUMPDEST PUSH2 0x43F DUP6 DUP3 DUP7 ADD PUSH2 0x316 JUMP JUMPDEST SWAP2 POP POP SWAP3 POP SWAP3 SWAP1 POP JUMP JUMPDEST PUSH1 0x0 PUSH1 0x20 DUP3 DUP5 SUB SLT ISZERO PUSH2 0x45B JUMPI PUSH1 0x0 DUP1 REVERT JUMPDEST DUP2 MLOAD DUP1 ISZERO ISZERO DUP2 EQ PUSH2 0x46B JUMPI PUSH1 0x0 DUP1 REVERT JUMPDEST SWAP4 SWAP3 POP POP POP JUMP JUMPDEST PUSH1 0x0 PUSH1 0x20 DUP3 DUP5 SUB SLT ISZERO PUSH2 0x484 JUMPI PUSH1 0x0 DUP1 REVERT JUMPDEST DUP2 CALLDATALOAD PUSH8 0xFFFFFFFFFFFFFFFF DUP2 GT ISZERO PUSH2 0x49B JUMPI PUSH1 0x0 DUP1 REVERT JUMPDEST PUSH2 0x4A7 DUP5 DUP3 DUP6 ADD PUSH2 0x316 JUMP JUMPDEST SWAP5 SWAP4 POP POP POP POP JUMP JUMPDEST PUSH1 0x0 DUP2 MLOAD DUP1 DUP5 MSTORE PUSH2 0x4C7 DUP2 PUSH1 0x20 DUP7 ADD PUSH1 0x20 DUP7 ADD PUSH2 0x602 JUMP JUMPDEST PUSH1 0x1F ADD PUSH1 0x1F NOT AND SWAP3 SWAP1 SWAP3 ADD PUSH1 0x20 ADD SWAP3 SWAP2 POP POP JUMP JUMPDEST PUSH1 0x1 PUSH1 0x1 PUSH1 0xE0 SHL SUB NOT DUP7 DUP2 AND DUP3 MSTORE PUSH1 0x60 DUP7 SWAP1 SHL PUSH12 0xFFFFFFFFFFFFFFFFFFFFFFFF NOT AND PUSH1 0x4 DUP4 ADD MSTORE PUSH1 0xE0 DUP6 SWAP1 SHL DUP2 AND PUSH1 0x18 DUP4 ADD MSTORE DUP4 AND PUSH1 0x1C DUP3 ADD MSTORE DUP2 MLOAD PUSH1 0x0 SWAP1 PUSH2 0x52B DUP2 PUSH1 0x20 DUP1 DUP7 ADD SWAP1 DUP8 ADD PUSH2 0x602 JUMP JUMPDEST SWAP2 SWAP1 SWAP2 ADD PUSH1 0x20 ADD SWAP7 SWAP6 POP POP POP POP POP POP JUMP JUMPDEST PUSH1 0x1 PUSH1 0x1 PUSH1 0xA0 SHL SUB DUP4 AND DUP2 MSTORE PUSH1 0x40 PUSH1 0x20 DUP3 ADD DUP2 SWAP1 MSTORE PUSH1 0x0 SWAP1 PUSH2 0x4A7 SWAP1 DUP4 ADD DUP5 PUSH2 0x4AF JUMP JUMPDEST PUSH1 0x20 DUP2 MSTORE PUSH1 0x0 PUSH2 0x46B PUSH1 0x20 DUP4 ADD DUP5 PUSH2 0x4AF JUMP JUMPDEST PUSH1 0x40 MLOAD PUSH1 0x1F DUP3 ADD PUSH1 0x1F NOT AND DUP2 ADD PUSH8 0xFFFFFFFFFFFFFFFF DUP2 GT DUP3 DUP3 LT OR ISZERO PUSH2 0x59C JUMPI PUSH2 0x59C PUSH2 0x632 JUMP JUMPDEST PUSH1 0x40 MSTORE SWAP2 SWAP1 POP JUMP JUMPDEST PUSH1 0x0 PUSH8 0xFFFFFFFFFFFFFFFF DUP3 GT ISZERO PUSH2 0x5BE JUMPI PUSH2 0x5BE PUSH2 0x632 JUMP JUMPDEST POP PUSH1 0x1F ADD PUSH1 0x1F NOT AND PUSH1 0x20 ADD SWAP1 JUMP JUMPDEST PUSH1 0x0 PUSH4 0xFFFFFFFF DUP1 DUP4 AND DUP2 DUP6 AND DUP1 DUP4 SUB DUP3 GT ISZERO PUSH2 0x5F9 JUMPI PUSH4 0x4E487B71 PUSH1 0xE0 SHL PUSH1 0x0 MSTORE PUSH1 0x11 PUSH1 0x4 MSTORE PUSH1 0x24 PUSH1 0x0 REVERT JUMPDEST ADD SWAP5 SWAP4 POP POP POP POP JUMP JUMPDEST PUSH1 0x0 JUMPDEST DUP4 DUP2 LT ISZERO PUSH2 0x61D JUMPI DUP2 DUP2 ADD MLOAD DUP4 DUP3 ADD MSTORE PUSH1 0x20 ADD PUSH2 0x605 JUMP JUMPDEST DUP4 DUP2 GT ISZERO PUSH2 0x62C JUMPI PUSH1 0x0 DUP5 DUP5 ADD MSTORE JUMPDEST POP POP POP POP JUMP JUMPDEST PUSH4 0x4E487B71 PUSH1 0xE0 SHL PUSH1 0x0 MSTORE PUSH1 0x41 PUSH1 0x4 MSTORE PUSH1 0x24 PUSH1 0x0 REVERT JUMPDEST PUSH1 0x1 PUSH1 0x1 PUSH1 0xA0 SHL SUB DUP2 AND DUP2 EQ PUSH2 0x65D JUMPI PUSH1 0x0 DUP1 REVERT JUMPDEST POP JUMP INVALID LOG2 PUSH5 0x6970667358 0x22 SLT KECCAK256 SWAP13 0xDC PUSH14 0x9E7FAEBB6E7824CEF6ECDDCF5F24 PUSH21 0x46FCA73FF57FBCDCC3126005C8E964736F6C634300 ADDMOD MOD STOP CALLER ",
  "sha1": "16b466016829ab3cc691f22a165fa80524bb095d",
  "source": "// SPDX-FileCopyrightText: 2022 Lido <info@lido.fi>\n// SPDX-License-Identifier: GPL-3.0\n\npragma solidity ^0.8.4;\n\nimport \"../TrustedCaller.sol\";\nimport \"../ReferralPartnersRegistry.sol\";\nimport \"../libraries/EVMScriptCreator.sol\";\nimport \"../interfaces/IEVMScriptFactory.sol\";\n\n/// @author psirex, dzhon\n/// @notice Creates EVMScript to add new referral partner address to ReferralPartnersRegistry\ncontract AddReferralPartner is TrustedCaller, IEVMScriptFactory {\n    // -------------\n    // ERRORS\n    // -------------\n    string private constant ERROR_REFERRAL_PARTNER_ALREADY_ADDED = \"REFERRAL_PARTNER_ALREADY_ADDED\";\n\n    // -------------\n    // VARIABLES\n    // -------------\n\n    /// @notice Address of ReferralPartnersRegistry\n    ReferralPartnersRegistry public immutable referralPartnersRegistry;\n\n    // -------------\n    // CONSTRUCTOR\n    // -------------\n\n    constructor(address _trustedCaller, address _referralPartnersRegistry)\n        TrustedCaller(_trustedCaller)\n    {\n        referralPartnersRegistry = ReferralPartnersRegistry(_referralPartnersRegistry);\n    }\n\n    // -------------\n    // EXTERNAL METHODS\n    // -------------\n\n    /// @notice Creates EVMScript to add new referral partner address to ReferralPartnersRegistry\n    /// @param _creator Address who creates EVMScript\n    /// @param _evmScriptCallData Encoded tuple: (address _referralPartner)\n    function createEVMScript(address _creator, bytes memory _evmScriptCallData)\n        external\n        view\n        override\n        onlyTrustedCaller(_creator)\n        returns (bytes memory)\n    {\n        (address referralPartnerAddress, ) = _decodeEVMScriptCallData(_evmScriptCallData);\n        require(\n            !referralPartnersRegistry.isReferralPartner(referralPartnerAddress),\n            ERROR_REFERRAL_PARTNER_ALREADY_ADDED\n        );\n\n        return\n            EVMScriptCreator.createEVMScript(\n                address(referralPartnerAddress),\n                referralPartnersRegistry.addReferralPartner.selector,\n                _evmScriptCallData\n            );\n    }\n\n    /// @notice Decodes call data used by createEVMScript method\n    /// @param _evmScriptCallData Encoded tuple: (address _referralPartner, string _title)\n    /// @return _referralPartner Address of new referral partner\n    function decodeEVMScriptCallData(bytes memory _evmScriptCallData)\n        external\n        pure\n        returns (address, string memory)\n    {\n        return _decodeEVMScriptCallData(_evmScriptCallData);\n    }\n\n    // ------------------\n    // PRIVATE METHODS\n    // ------------------\n\n    function _decodeEVMScriptCallData(bytes memory _evmScriptCallData)\n        private\n        pure\n        returns (address, string memory)\n    {\n        return abi.decode(_evmScriptCallData, (address, string));\n    }\n}\n",
  "sourcePath": "contracts/EVMScriptFactories/AddReferralPartner.sol",
  "type": "contract"
}