{
  "abi": [
    {
      "inputs": [
        {
          "internalType": "address",
          "name": "_trustedCaller",
          "type": "address"
        },
        {
          "internalType": "address",
          "name": "_referralPartnersRegistry",
          "type": "address"
        }
      ],
      "stateMutability": "nonpayable",
      "type": "constructor"
    },
    {
      "inputs": [
        {
          "internalType": "address",
          "name": "_creator",
          "type": "address"
        },
        {
          "internalType": "bytes",
          "name": "_evmScriptCallData",
          "type": "bytes"
        }
      ],
      "name": "createEVMScript",
      "outputs": [
        {
          "internalType": "bytes",
          "name": "",
          "type": "bytes"
        }
      ],
      "stateMutability": "view",
      "type": "function"
    },
    {
      "inputs": [
        {
          "internalType": "bytes",
          "name": "_evmScriptCallData",
          "type": "bytes"
        }
      ],
      "name": "decodeEVMScriptCallData",
      "outputs": [
        {
          "internalType": "address",
          "name": "_referralPartner",
          "type": "address"
        }
      ],
      "stateMutability": "pure",
      "type": "function"
    },
    {
      "inputs": [],
      "name": "referralPartnersRegistry",
      "outputs": [
        {
          "internalType": "contract ReferralPartnersRegistry",
          "name": "",
          "type": "address"
        }
      ],
      "stateMutability": "view",
      "type": "function"
    },
    {
      "inputs": [],
      "name": "trustedCaller",
      "outputs": [
        {
          "internalType": "address",
          "name": "",
          "type": "address"
        }
      ],
      "stateMutability": "view",
      "type": "function"
    }
  ],
  "bytecode": "60c060405234801561001057600080fd5b5060405161077e38038061077e83398101604081905261002f916100d2565b60408051808201909152601e81527f545255535445445f43414c4c45525f49535f5a45524f5f414444524553530000602082015282906001600160a01b0382166100955760405162461bcd60e51b815260040161008c9190610105565b60405180910390fd5b506001600160601b0319606091821b811660805291901b1660a0525061015a565b80516001600160a01b03811681146100cd57600080fd5b919050565b600080604083850312156100e557600080fd5b6100ee836100b6565b91506100fc602084016100b6565b90509250929050565b600060208083528351808285015260005b8181101561013257858101830151858201604001528201610116565b81811115610144576000604083870101525b50601f01601f1916929092016040019392505050565b60805160601c60a05160601c6105e66101986000396000818160ad0152818161018e01526102950152600081816056015261010501526105e66000f3fe608060405234801561001057600080fd5b506004361061004c5760003560e01c8063268f076014610051578063ecf7c69014610095578063edbe2dec146100a8578063fea21c9c146100cf575b600080fd5b6100787f000000000000000000000000000000000000000000000000000000000000000081565b6040516001600160a01b0390911681526020015b60405180910390f35b6100786100a3366004610447565b6100ef565b6100787f000000000000000000000000000000000000000000000000000000000000000081565b6100e26100dd3660046103d5565b610100565b60405161008c9190610509565b60006100fa826102ca565b92915050565b6060827f00000000000000000000000000000000000000000000000000000000000000006001600160a01b0316816001600160a01b0316146040518060400160405280601381526020017221a0a62622a92fa4a9afa327a92124a22222a760691b8152509061018b5760405162461bcd60e51b81526004016101829190610509565b60405180910390fd5b507f00000000000000000000000000000000000000000000000000000000000000006001600160a01b031663e1248baa6101c4856102ca565b6040516001600160e01b031960e084901b1681526001600160a01b03909116600482015260240160206040518083038186803b15801561020357600080fd5b505afa158015610217573d6000803e3d6000fd5b505050506040513d601f19601f8201168201806040525081019061023b9190610425565b6040518060400160405280601a81526020017f524546455252414c5f504152544e45525f4e4f545f464f554e440000000000008152509061028f5760405162461bcd60e51b81526004016101829190610509565b506102c27f0000000000000000000000000000000000000000000000000000000000000000633d0daf1960e01b856102e0565b949350505050565b6000818060200190518101906100fa91906103b1565b6060600160e01b84835160046102f6919061051c565b858560405160200161030c9594939291906104a8565b60405160208183030381529060405290509392505050565b600082601f83011261033557600080fd5b813567ffffffffffffffff8082111561035057610350610582565b604051601f8301601f19908116603f0116810190828211818310171561037857610378610582565b8160405283815286602085880101111561039157600080fd5b836020870160208301376000602085830101528094505050505092915050565b6000602082840312156103c357600080fd5b81516103ce81610598565b9392505050565b600080604083850312156103e857600080fd5b82356103f381610598565b9150602083013567ffffffffffffffff81111561040f57600080fd5b61041b85828601610324565b9150509250929050565b60006020828403121561043757600080fd5b815180151581146103ce57600080fd5b60006020828403121561045957600080fd5b813567ffffffffffffffff81111561047057600080fd5b6102c284828501610324565b60008151808452610494816020860160208601610552565b601f01601f19169290920160200192915050565b6001600160e01b03198681168252606086901b6bffffffffffffffffffffffff1916600483015260e085901b811660188301528316601c82015281516000906104f8816020808601908701610552565b919091016020019695505050505050565b6020815260006103ce602083018461047c565b600063ffffffff80831681851680830382111561054957634e487b7160e01b600052601160045260246000fd5b01949350505050565b60005b8381101561056d578181015183820152602001610555565b8381111561057c576000848401525b50505050565b634e487b7160e01b600052604160045260246000fd5b6001600160a01b03811681146105ad57600080fd5b5056fea2646970667358221220048b121ba13d9fa600d8dbc4e5fa2eadc2282e768057845d28dd9f6e10bc69eb64736f6c63430008060033",
  "bytecodeSha1": "b0dd4cd55cff3dd4b5c3006b8ef2026a8ec9179a",
  "compiler": {
    "evm_version": "istanbul",
    "optimizer": {
      "enabled": true,
      "runs": 200
    },
    "version": "0.8.6+commit.11564f7e"
  },
  "contractName": "RemoveReferralPartner",
  "language": "Solidity",
  "natspec": {
    "author": "psirex, dzhon",
    "kind": "dev",
    "methods": {
      "createEVMScript(address,bytes)": {
        "notice": "Creates EVMScript to remove referral partner from ReferralPartnersRegistry",
        "params": {
          "_creator": "Address who creates EVMScript",
          "_evmScriptCallData": "Encoded tuple: (address _referralPartner)"
        }
      },
      "decodeEVMScriptCallData(bytes)": {
        "notice": "Decodes call data used by createEVMScript method",
        "params": {
          "_evmScriptCallData": "Encoded tuple: (address _referralPartner)"
        },
        "returns": {
          "_referralPartner": "Address of referral partner to remove"
        }
      },
      "referralPartnersRegistry()": {
        "notice": "Address of ReferralPartnersRegistry"
      }
    },
    "notice": "Creates EVMScript to remove referral partner from ReferralPartnersRegistry",
    "version": 1
  },
  "opcodes": "PUSH1 0x80 PUSH1 0x40 MSTORE CALLVALUE DUP1 ISZERO PUSH2 0x10 JUMPI PUSH1 0x0 DUP1 REVERT JUMPDEST POP PUSH1 0x4 CALLDATASIZE LT PUSH2 0x4C JUMPI PUSH1 0x0 CALLDATALOAD PUSH1 0xE0 SHR DUP1 PUSH4 0x268F0760 EQ PUSH2 0x51 JUMPI DUP1 PUSH4 0xECF7C690 EQ PUSH2 0x95 JUMPI DUP1 PUSH4 0xEDBE2DEC EQ PUSH2 0xA8 JUMPI DUP1 PUSH4 0xFEA21C9C EQ PUSH2 0xCF JUMPI JUMPDEST PUSH1 0x0 DUP1 REVERT JUMPDEST PUSH2 0x78 PUSH32 0x0 DUP2 JUMP JUMPDEST PUSH1 0x40 MLOAD PUSH1 0x1 PUSH1 0x1 PUSH1 0xA0 SHL SUB SWAP1 SWAP2 AND DUP2 MSTORE PUSH1 0x20 ADD JUMPDEST PUSH1 0x40 MLOAD DUP1 SWAP2 SUB SWAP1 RETURN JUMPDEST PUSH2 0x78 PUSH2 0xA3 CALLDATASIZE PUSH1 0x4 PUSH2 0x447 JUMP JUMPDEST PUSH2 0xEF JUMP JUMPDEST PUSH2 0x78 PUSH32 0x0 DUP2 JUMP JUMPDEST PUSH2 0xE2 PUSH2 0xDD CALLDATASIZE PUSH1 0x4 PUSH2 0x3D5 JUMP JUMPDEST PUSH2 0x100 JUMP JUMPDEST PUSH1 0x40 MLOAD PUSH2 0x8C SWAP2 SWAP1 PUSH2 0x509 JUMP JUMPDEST PUSH1 0x0 PUSH2 0xFA DUP3 PUSH2 0x2CA JUMP JUMPDEST SWAP3 SWAP2 POP POP JUMP JUMPDEST PUSH1 0x60 DUP3 PUSH32 0x0 PUSH1 0x1 PUSH1 0x1 PUSH1 0xA0 SHL SUB AND DUP2 PUSH1 0x1 PUSH1 0x1 PUSH1 0xA0 SHL SUB AND EQ PUSH1 0x40 MLOAD DUP1 PUSH1 0x40 ADD PUSH1 0x40 MSTORE DUP1 PUSH1 0x13 DUP2 MSTORE PUSH1 0x20 ADD PUSH19 0x21A0A62622A92FA4A9AFA327A92124A22222A7 PUSH1 0x69 SHL DUP2 MSTORE POP SWAP1 PUSH2 0x18B JUMPI PUSH1 0x40 MLOAD PUSH3 0x461BCD PUSH1 0xE5 SHL DUP2 MSTORE PUSH1 0x4 ADD PUSH2 0x182 SWAP2 SWAP1 PUSH2 0x509 JUMP JUMPDEST PUSH1 0x40 MLOAD DUP1 SWAP2 SUB SWAP1 REVERT JUMPDEST POP PUSH32 0x0 PUSH1 0x1 PUSH1 0x1 PUSH1 0xA0 SHL SUB AND PUSH4 0xE1248BAA PUSH2 0x1C4 DUP6 PUSH2 0x2CA JUMP JUMPDEST PUSH1 0x40 MLOAD PUSH1 0x1 PUSH1 0x1 PUSH1 0xE0 SHL SUB NOT PUSH1 0xE0 DUP5 SWAP1 SHL AND DUP2 MSTORE PUSH1 0x1 PUSH1 0x1 PUSH1 0xA0 SHL SUB SWAP1 SWAP2 AND PUSH1 0x4 DUP3 ADD MSTORE PUSH1 0x24 ADD PUSH1 0x20 PUSH1 0x40 MLOAD DUP1 DUP4 SUB DUP2 DUP7 DUP1 EXTCODESIZE ISZERO DUP1 ISZERO PUSH2 0x203 JUMPI PUSH1 0x0 DUP1 REVERT JUMPDEST POP GAS STATICCALL ISZERO DUP1 ISZERO PUSH2 0x217 JUMPI RETURNDATASIZE PUSH1 0x0 DUP1 RETURNDATACOPY RETURNDATASIZE PUSH1 0x0 REVERT JUMPDEST POP POP POP POP PUSH1 0x40 MLOAD RETURNDATASIZE PUSH1 0x1F NOT PUSH1 0x1F DUP3 ADD AND DUP3 ADD DUP1 PUSH1 0x40 MSTORE POP DUP2 ADD SWAP1 PUSH2 0x23B SWAP2 SWAP1 PUSH2 0x425 JUMP JUMPDEST PUSH1 0x40 MLOAD DUP1 PUSH1 0x40 ADD PUSH1 0x40 MSTORE DUP1 PUSH1 0x1A DUP2 MSTORE PUSH1 0x20 ADD PUSH32 0x524546455252414C5F504152544E45525F4E4F545F464F554E44000000000000 DUP2 MSTORE POP SWAP1 PUSH2 0x28F JUMPI PUSH1 0x40 MLOAD PUSH3 0x461BCD PUSH1 0xE5 SHL DUP2 MSTORE PUSH1 0x4 ADD PUSH2 0x182 SWAP2 SWAP1 PUSH2 0x509 JUMP JUMPDEST POP PUSH2 0x2C2 PUSH32 0x0 PUSH4 0x3D0DAF19 PUSH1 0xE0 SHL DUP6 PUSH2 0x2E0 JUMP JUMPDEST SWAP5 SWAP4 POP POP POP POP JUMP JUMPDEST PUSH1 0x0 DUP2 DUP1 PUSH1 0x20 ADD SWAP1 MLOAD DUP2 ADD SWAP1 PUSH2 0xFA SWAP2 SWAP1 PUSH2 0x3B1 JUMP JUMPDEST PUSH1 0x60 PUSH1 0x1 PUSH1 0xE0 SHL DUP5 DUP4 MLOAD PUSH1 0x4 PUSH2 0x2F6 SWAP2 SWAP1 PUSH2 0x51C JUMP JUMPDEST DUP6 DUP6 PUSH1 0x40 MLOAD PUSH1 0x20 ADD PUSH2 0x30C SWAP6 SWAP5 SWAP4 SWAP3 SWAP2 SWAP1 PUSH2 0x4A8 JUMP JUMPDEST PUSH1 0x40 MLOAD PUSH1 0x20 DUP2 DUP4 SUB SUB DUP2 MSTORE SWAP1 PUSH1 0x40 MSTORE SWAP1 POP SWAP4 SWAP3 POP POP POP JUMP JUMPDEST PUSH1 0x0 DUP3 PUSH1 0x1F DUP4 ADD SLT PUSH2 0x335 JUMPI PUSH1 0x0 DUP1 REVERT JUMPDEST DUP2 CALLDATALOAD PUSH8 0xFFFFFFFFFFFFFFFF DUP1 DUP3 GT ISZERO PUSH2 0x350 JUMPI PUSH2 0x350 PUSH2 0x582 JUMP JUMPDEST PUSH1 0x40 MLOAD PUSH1 0x1F DUP4 ADD PUSH1 0x1F NOT SWAP1 DUP2 AND PUSH1 0x3F ADD AND DUP2 ADD SWAP1 DUP3 DUP3 GT DUP2 DUP4 LT OR ISZERO PUSH2 0x378 JUMPI PUSH2 0x378 PUSH2 0x582 JUMP JUMPDEST DUP2 PUSH1 0x40 MSTORE DUP4 DUP2 MSTORE DUP7 PUSH1 0x20 DUP6 DUP9 ADD ADD GT ISZERO PUSH2 0x391 JUMPI PUSH1 0x0 DUP1 REVERT JUMPDEST DUP4 PUSH1 0x20 DUP8 ADD PUSH1 0x20 DUP4 ADD CALLDATACOPY PUSH1 0x0 PUSH1 0x20 DUP6 DUP4 ADD ADD MSTORE DUP1 SWAP5 POP POP POP POP POP SWAP3 SWAP2 POP POP JUMP JUMPDEST PUSH1 0x0 PUSH1 0x20 DUP3 DUP5 SUB SLT ISZERO PUSH2 0x3C3 JUMPI PUSH1 0x0 DUP1 REVERT JUMPDEST DUP2 MLOAD PUSH2 0x3CE DUP2 PUSH2 0x598 JUMP JUMPDEST SWAP4 SWAP3 POP POP POP JUMP JUMPDEST PUSH1 0x0 DUP1 PUSH1 0x40 DUP4 DUP6 SUB SLT ISZERO PUSH2 0x3E8 JUMPI PUSH1 0x0 DUP1 REVERT JUMPDEST DUP3 CALLDATALOAD PUSH2 0x3F3 DUP2 PUSH2 0x598 JUMP JUMPDEST SWAP2 POP PUSH1 0x20 DUP4 ADD CALLDATALOAD PUSH8 0xFFFFFFFFFFFFFFFF DUP2 GT ISZERO PUSH2 0x40F JUMPI PUSH1 0x0 DUP1 REVERT JUMPDEST PUSH2 0x41B DUP6 DUP3 DUP7 ADD PUSH2 0x324 JUMP JUMPDEST SWAP2 POP POP SWAP3 POP SWAP3 SWAP1 POP JUMP JUMPDEST PUSH1 0x0 PUSH1 0x20 DUP3 DUP5 SUB SLT ISZERO PUSH2 0x437 JUMPI PUSH1 0x0 DUP1 REVERT JUMPDEST DUP2 MLOAD DUP1 ISZERO ISZERO DUP2 EQ PUSH2 0x3CE JUMPI PUSH1 0x0 DUP1 REVERT JUMPDEST PUSH1 0x0 PUSH1 0x20 DUP3 DUP5 SUB SLT ISZERO PUSH2 0x459 JUMPI PUSH1 0x0 DUP1 REVERT JUMPDEST DUP2 CALLDATALOAD PUSH8 0xFFFFFFFFFFFFFFFF DUP2 GT ISZERO PUSH2 0x470 JUMPI PUSH1 0x0 DUP1 REVERT JUMPDEST PUSH2 0x2C2 DUP5 DUP3 DUP6 ADD PUSH2 0x324 JUMP JUMPDEST PUSH1 0x0 DUP2 MLOAD DUP1 DUP5 MSTORE PUSH2 0x494 DUP2 PUSH1 0x20 DUP7 ADD PUSH1 0x20 DUP7 ADD PUSH2 0x552 JUMP JUMPDEST PUSH1 0x1F ADD PUSH1 0x1F NOT AND SWAP3 SWAP1 SWAP3 ADD PUSH1 0x20 ADD SWAP3 SWAP2 POP POP JUMP JUMPDEST PUSH1 0x1 PUSH1 0x1 PUSH1 0xE0 SHL SUB NOT DUP7 DUP2 AND DUP3 MSTORE PUSH1 0x60 DUP7 SWAP1 SHL PUSH12 0xFFFFFFFFFFFFFFFFFFFFFFFF NOT AND PUSH1 0x4 DUP4 ADD MSTORE PUSH1 0xE0 DUP6 SWAP1 SHL DUP2 AND PUSH1 0x18 DUP4 ADD MSTORE DUP4 AND PUSH1 0x1C DUP3 ADD MSTORE DUP2 MLOAD PUSH1 0x0 SWAP1 PUSH2 0x4F8 DUP2 PUSH1 0x20 DUP1 DUP7 ADD SWAP1 DUP8 ADD PUSH2 0x552 JUMP JUMPDEST SWAP2 SWAP1 SWAP2 ADD PUSH1 0x20 ADD SWAP7 SWAP6 POP POP POP POP POP POP JUMP JUMPDEST PUSH1 0x20 DUP2 MSTORE PUSH1 0x0 PUSH2 0x3CE PUSH1 0x20 DUP4 ADD DUP5 PUSH2 0x47C JUMP JUMPDEST PUSH1 0x0 PUSH4 0xFFFFFFFF DUP1 DUP4 AND DUP2 DUP6 AND DUP1 DUP4 SUB DUP3 GT ISZERO PUSH2 0x549 JUMPI PUSH4 0x4E487B71 PUSH1 0xE0 SHL PUSH1 0x0 MSTORE PUSH1 0x11 PUSH1 0x4 MSTORE PUSH1 0x24 PUSH1 0x0 REVERT JUMPDEST ADD SWAP5 SWAP4 POP POP POP POP JUMP JUMPDEST PUSH1 0x0 JUMPDEST DUP4 DUP2 LT ISZERO PUSH2 0x56D JUMPI DUP2 DUP2 ADD MLOAD DUP4 DUP3 ADD MSTORE PUSH1 0x20 ADD PUSH2 0x555 JUMP JUMPDEST DUP4 DUP2 GT ISZERO PUSH2 0x57C JUMPI PUSH1 0x0 DUP5 DUP5 ADD MSTORE JUMPDEST POP POP POP POP JUMP JUMPDEST PUSH4 0x4E487B71 PUSH1 0xE0 SHL PUSH1 0x0 MSTORE PUSH1 0x41 PUSH1 0x4 MSTORE PUSH1 0x24 PUSH1 0x0 REVERT JUMPDEST PUSH1 0x1 PUSH1 0x1 PUSH1 0xA0 SHL SUB DUP2 AND DUP2 EQ PUSH2 0x5AD JUMPI PUSH1 0x0 DUP1 REVERT JUMPDEST POP JUMP INVALID LOG2 PUSH5 0x6970667358 0x22 SLT KECCAK256 DIV DUP12 SLT SHL LOG1 RETURNDATASIZE SWAP16 0xA6 STOP 0xD8 0xDB 0xC4 0xE5 STATICCALL 0x2E 0xAD 0xC2 0x28 0x2E PUSH23 0x8057845D28DD9F6E10BC69EB64736F6C63430008060033 ",
  "sha1": "fc2b80a9da8a6dc4df2b8954c3e05b615d1b047e",
  "source": "// SPDX-FileCopyrightText: 2022 Lido <info@lido.fi>\n// SPDX-License-Identifier: GPL-3.0\n\npragma solidity ^0.8.4;\n\nimport \"../TrustedCaller.sol\";\nimport \"../ReferralPartnersRegistry.sol\";\nimport \"../libraries/EVMScriptCreator.sol\";\nimport \"../interfaces/IEVMScriptFactory.sol\";\n\n/// @author psirex, dzhon\n/// @notice Creates EVMScript to remove referral partner from ReferralPartnersRegistry\ncontract RemoveReferralPartner is TrustedCaller, IEVMScriptFactory {\n    // -------------\n    // ERRORS\n    // -------------\n    string private constant ERROR_REFERRAL_PARTNER_NOT_FOUND = \"REFERRAL_PARTNER_NOT_FOUND\";\n\n    // -------------\n    // VARIABLES\n    // -------------\n\n    /// @notice Address of ReferralPartnersRegistry\n    ReferralPartnersRegistry public immutable referralPartnersRegistry;\n\n    // -------------\n    // CONSTRUCTOR\n    // -------------\n\n    constructor(address _trustedCaller, address _referralPartnersRegistry)\n        TrustedCaller(_trustedCaller)\n    {\n        referralPartnersRegistry = ReferralPartnersRegistry(_referralPartnersRegistry);\n    }\n\n    // -------------\n    // EXTERNAL METHODS\n    // -------------\n\n    /// @notice Creates EVMScript to remove referral partner from ReferralPartnersRegistry\n    /// @param _creator Address who creates EVMScript\n    /// @param _evmScriptCallData Encoded tuple: (address _referralPartner)\n    function createEVMScript(address _creator, bytes memory _evmScriptCallData)\n        external\n        view\n        override\n        onlyTrustedCaller(_creator)\n        returns (bytes memory)\n    {\n        require(\n            referralPartnersRegistry.isReferralPartner(_decodeEVMScriptCallData(_evmScriptCallData)),\n            ERROR_REFERRAL_PARTNER_NOT_FOUND\n        );\n        return\n            EVMScriptCreator.createEVMScript(\n                address(referralPartnersRegistry),\n                referralPartnersRegistry.removeReferralPartner.selector,\n                _evmScriptCallData\n            );\n    }\n\n    /// @notice Decodes call data used by createEVMScript method\n    /// @param _evmScriptCallData Encoded tuple: (address _referralPartner)\n    /// @return _referralPartner Address of referral partner to remove\n    function decodeEVMScriptCallData(bytes memory _evmScriptCallData)\n        external\n        pure\n        returns (address _referralPartner)\n    {\n        return _decodeEVMScriptCallData(_evmScriptCallData);\n    }\n\n    // ------------------\n    // PRIVATE METHODS\n    // ------------------\n\n    function _decodeEVMScriptCallData(bytes memory _evmScriptCallData)\n        private\n        pure\n        returns (address)\n    {\n        return abi.decode(_evmScriptCallData, (address));\n    }\n}\n",
  "sourcePath": "contracts/EVMScriptFactories/RemoveReferralPartner.sol",
  "type": "contract"
}