{
  "abi": [
    {
      "inputs": [
        {
          "internalType": "address",
          "name": "_trustedCaller",
          "type": "address"
        },
        {
          "internalType": "address",
          "name": "_referralPartnersRegistry",
          "type": "address"
        },
        {
          "internalType": "address",
          "name": "_finance",
          "type": "address"
        },
        {
          "internalType": "address",
          "name": "_payoutToken",
          "type": "address"
        }
      ],
      "stateMutability": "nonpayable",
      "type": "constructor"
    },
    {
      "inputs": [
        {
          "internalType": "address",
          "name": "_creator",
          "type": "address"
        },
        {
          "internalType": "bytes",
          "name": "_evmScriptCallData",
          "type": "bytes"
        }
      ],
      "name": "createEVMScript",
      "outputs": [
        {
          "internalType": "bytes",
          "name": "",
          "type": "bytes"
        }
      ],
      "stateMutability": "view",
      "type": "function"
    },
    {
      "inputs": [
        {
          "internalType": "bytes",
          "name": "_evmScriptCallData",
          "type": "bytes"
        }
      ],
      "name": "decodeEVMScriptCallData",
      "outputs": [
        {
          "internalType": "address[]",
          "name": "_referralPartners",
          "type": "address[]"
        },
        {
          "internalType": "uint256[]",
          "name": "_amounts",
          "type": "uint256[]"
        }
      ],
      "stateMutability": "pure",
      "type": "function"
    },
    {
      "inputs": [],
      "name": "finance",
      "outputs": [
        {
          "internalType": "contract IFinance",
          "name": "",
          "type": "address"
        }
      ],
      "stateMutability": "view",
      "type": "function"
    },
    {
      "inputs": [],
      "name": "payoutToken",
      "outputs": [
        {
          "internalType": "address",
          "name": "",
          "type": "address"
        }
      ],
      "stateMutability": "view",
      "type": "function"
    },
    {
      "inputs": [],
      "name": "referralPartnersRegistry",
      "outputs": [
        {
          "internalType": "contract ReferralPartnersRegistry",
          "name": "",
          "type": "address"
        }
      ],
      "stateMutability": "view",
      "type": "function"
    },
    {
      "inputs": [],
      "name": "trustedCaller",
      "outputs": [
        {
          "internalType": "address",
          "name": "",
          "type": "address"
        }
      ],
      "stateMutability": "view",
      "type": "function"
    }
  ],
  "bytecode": "61010060405234801561001157600080fd5b5060405162000dce38038062000dce833981016040819052610032916100e6565b60408051808201909152601e81527f545255535445445f43414c4c45525f49535f5a45524f5f414444524553530000602082015284906001600160a01b0382166100985760405162461bcd60e51b815260040161008f919061013a565b60405180910390fd5b506001600160601b0319606091821b811660805292811b831660a05290811b821660c0529190911b1660e0525061018f565b80516001600160a01b03811681146100e157600080fd5b919050565b600080600080608085870312156100fc57600080fd5b610105856100ca565b9350610113602086016100ca565b9250610121604086016100ca565b915061012f606086016100ca565b905092959194509250565b600060208083528351808285015260005b818110156101675785810183015185820160400152820161014b565b81811115610179576000604083870101525b50601f01601f1916929092016040019392505050565b60805160601c60a05160601c60c05160601c60e05160601c610be0620001ee6000396000818161011f01526104c801526000818160d7015261027c01526000818160b00152610378015260008181606c015261017b0152610be06000f3fe608060405234801561001057600080fd5b50600436106100625760003560e01c8063268f076014610067578063313b7b19146100ab5780634efa82b6146100d2578063ecf7c690146100f9578063edbe2dec1461011a578063fea21c9c14610141575b600080fd5b61008e7f000000000000000000000000000000000000000000000000000000000000000081565b6040516001600160a01b0390911681526020015b60405180910390f35b61008e7f000000000000000000000000000000000000000000000000000000000000000081565b61008e7f000000000000000000000000000000000000000000000000000000000000000081565b61010c6101073660046108e6565b610161565b6040516100a2929190610a07565b61008e7f000000000000000000000000000000000000000000000000000000000000000081565b61015461014f3660046107ab565b610176565b6040516100a29190610a7e565b60608061016d836103b0565b91509150915091565b6060827f00000000000000000000000000000000000000000000000000000000000000006001600160a01b0316816001600160a01b0316146040518060400160405280601381526020017221a0a62622a92fa4a9afa327a92124a22222a760691b815250906102015760405162461bcd60e51b81526004016101f89190610a7e565b60405180910390fd5b5060008061020e856103b0565b9150915061021c82826103c7565b6000825167ffffffffffffffff81111561023857610238610b7c565b60405190808252806020026020018201604052801561026b57816020015b60608152602001906001900390816102565790505b50905060005b8351811015610372577f00000000000000000000000000000000000000000000000000000000000000008482815181106102ad576102ad610b66565b60200260200101518483815181106102c7576102c7610b66565b6020026020010151604051602001610335939291906001600160a01b03938416815291909216602082015260408101919091526080606082018190526017908201527f526566657272616c20706172746e657220746f7020757000000000000000000060a082015260c00190565b60405160208183030381529060405282828151811061035657610356610b66565b60200260200101819052508061036b90610b35565b9050610271565b506103a57f0000000000000000000000000000000000000000000000000000000000000000637b1b242360e11b836105f4565b979650505050505050565b6060808280602001905181019061016d91906107fb565b80518251146040518060400160405280600f81526020016e0988a9c8ea890be9a92a69a82a8869608b1b815250906104125760405162461bcd60e51b81526004016101f89190610a7e565b5060008251116040518060400160405280600a815260200169454d5054595f4441544160b01b815250906104595760405162461bcd60e51b81526004016101f89190610a7e565b5060005b82518110156105ef57600082828151811061047a5761047a610b66565b6020026020010151116040518060400160405280600b81526020016a16915493d7d05353d5539560aa1b815250906104c55760405162461bcd60e51b81526004016101f89190610a7e565b507f00000000000000000000000000000000000000000000000000000000000000006001600160a01b031663e1248baa84838151811061050757610507610b66565b60200260200101516040518263ffffffff1660e01b815260040161053a91906001600160a01b0391909116815260200190565b60206040518083038186803b15801561055257600080fd5b505afa158015610566573d6000803e3d6000fd5b505050506040513d601f19601f8201168201806040525081019061058a91906108bd565b6040518060400160405280601c81526020017f524546455252414c5f504152544e45525f4e4f545f414c4c4f57454400000000815250906105de5760405162461bcd60e51b81526004016101f89190610a7e565b506105e881610b35565b905061045d565b505050565b606060005b825181101561069957818584838151811061061657610616610b66565b602002602001015151600461062b9190610ae6565b8686858151811061063e5761063e610b66565b6020026020010151604051602001610659949392919061094f565b60408051601f198184030181529082905261067792916020016109d8565b60405160208183030381529060405291508061069290610b35565b90506105f9565b50600160e01b816040516020016106b19291906109a7565b60405160208183030381529060405290509392505050565b600082601f8301126106da57600080fd5b815160206106ef6106ea83610ac2565b610a91565b80838252828201915082860187848660051b890101111561070f57600080fd5b60005b8581101561072e57815184529284019290840190600101610712565b5090979650505050505050565b600082601f83011261074c57600080fd5b813567ffffffffffffffff81111561076657610766610b7c565b610779601f8201601f1916602001610a91565b81815284602083860101111561078e57600080fd5b816020850160208301376000918101602001919091529392505050565b600080604083850312156107be57600080fd5b82356107c981610b92565b9150602083013567ffffffffffffffff8111156107e557600080fd5b6107f18582860161073b565b9150509250929050565b6000806040838503121561080e57600080fd5b825167ffffffffffffffff8082111561082657600080fd5b818501915085601f83011261083a57600080fd5b8151602061084a6106ea83610ac2565b8083825282820191508286018a848660051b890101111561086a57600080fd5b600096505b8487101561089657805161088281610b92565b83526001969096019591830191830161086f565b50918801519196509093505050808211156108b057600080fd5b506107f1858286016106c9565b6000602082840312156108cf57600080fd5b815180151581146108df57600080fd5b9392505050565b6000602082840312156108f857600080fd5b813567ffffffffffffffff81111561090f57600080fd5b61091b8482850161073b565b949350505050565b6000815180845261093b816020860160208601610b05565b601f01601f19169290920160200192915050565b6bffffffffffffffffffffffff19606086901b1681526001600160e01b031960e085901b8116601483015283166018820152815160009061099781601c850160208701610b05565b91909101601c0195945050505050565b6001600160e01b03198316815281516000906109ca816004850160208701610b05565b919091016004019392505050565b600083516109ea818460208801610b05565b8351908301906109fe818360208801610b05565b01949350505050565b604080825283519082018190526000906020906060840190828701845b82811015610a495781516001600160a01b031684529284019290840190600101610a24565b5050508381038285015284518082528583019183019060005b8181101561072e57835183529284019291840191600101610a62565b6020815260006108df6020830184610923565b604051601f8201601f1916810167ffffffffffffffff81118282101715610aba57610aba610b7c565b604052919050565b600067ffffffffffffffff821115610adc57610adc610b7c565b5060051b60200190565b600063ffffffff8083168185168083038211156109fe576109fe610b50565b60005b83811015610b20578181015183820152602001610b08565b83811115610b2f576000848401525b50505050565b6000600019821415610b4957610b49610b50565b5060010190565b634e487b7160e01b600052601160045260246000fd5b634e487b7160e01b600052603260045260246000fd5b634e487b7160e01b600052604160045260246000fd5b6001600160a01b0381168114610ba757600080fd5b5056fea26469706673582212203020c15a3da5411e384597f120a37baa03c64476cee09434c6fa3a3ae5b5d6f564736f6c63430008060033",
  "bytecodeSha1": "2c9353bf5614048e43adc5514165cb5cbf126a15",
  "compiler": {
    "evm_version": "istanbul",
    "optimizer": {
      "enabled": true,
      "runs": 200
    },
    "version": "0.8.6+commit.11564f7e"
  },
  "contractName": "TopUpReferralPartners",
  "language": "Solidity",
  "natspec": {
    "author": "psirex, dzhon",
    "kind": "dev",
    "methods": {
      "createEVMScript(address,bytes)": {
        "notice": "Creates EVMScript to top up balances of referral partners",
        "params": {
          "_creator": "Address who creates EVMScript",
          "_evmScriptCallData": "Encoded tuple: (address[] _referralPartners, uint256[] _amounts) where _referralPartners - addresses of referral partners to top up _amounts - corresponding amount of tokens to transfer"
        }
      },
      "decodeEVMScriptCallData(bytes)": {
        "notice": "Decodes call data used by createEVMScript method",
        "params": {
          "_evmScriptCallData": "Encoded tuple: (address[] _referralPartners, uint256[] _amounts) where _referralPartners - addresses of referral partners to top up _amounts - corresponding amount of tokens to transfer"
        },
        "returns": {
          "_amounts": "Amounts of tokens to transfer",
          "_referralPartners": "Addresses of referral partners to top up"
        }
      },
      "finance()": {
        "notice": "Address of Aragon's Finance contract"
      },
      "payoutToken()": {
        "notice": "Address of payout token"
      },
      "referralPartnersRegistry()": {
        "notice": "Address of referralPartnersRegistry"
      }
    },
    "notice": "Creates EVMScript to top up balances of referral partners",
    "version": 1
  },
  "opcodes": "PUSH1 0x80 PUSH1 0x40 MSTORE CALLVALUE DUP1 ISZERO PUSH2 0x10 JUMPI PUSH1 0x0 DUP1 REVERT JUMPDEST POP PUSH1 0x4 CALLDATASIZE LT PUSH2 0x62 JUMPI PUSH1 0x0 CALLDATALOAD PUSH1 0xE0 SHR DUP1 PUSH4 0x268F0760 EQ PUSH2 0x67 JUMPI DUP1 PUSH4 0x313B7B19 EQ PUSH2 0xAB JUMPI DUP1 PUSH4 0x4EFA82B6 EQ PUSH2 0xD2 JUMPI DUP1 PUSH4 0xECF7C690 EQ PUSH2 0xF9 JUMPI DUP1 PUSH4 0xEDBE2DEC EQ PUSH2 0x11A JUMPI DUP1 PUSH4 0xFEA21C9C EQ PUSH2 0x141 JUMPI JUMPDEST PUSH1 0x0 DUP1 REVERT JUMPDEST PUSH2 0x8E PUSH32 0x0 DUP2 JUMP JUMPDEST PUSH1 0x40 MLOAD PUSH1 0x1 PUSH1 0x1 PUSH1 0xA0 SHL SUB SWAP1 SWAP2 AND DUP2 MSTORE PUSH1 0x20 ADD JUMPDEST PUSH1 0x40 MLOAD DUP1 SWAP2 SUB SWAP1 RETURN JUMPDEST PUSH2 0x8E PUSH32 0x0 DUP2 JUMP JUMPDEST PUSH2 0x8E PUSH32 0x0 DUP2 JUMP JUMPDEST PUSH2 0x10C PUSH2 0x107 CALLDATASIZE PUSH1 0x4 PUSH2 0x8E6 JUMP JUMPDEST PUSH2 0x161 JUMP JUMPDEST PUSH1 0x40 MLOAD PUSH2 0xA2 SWAP3 SWAP2 SWAP1 PUSH2 0xA07 JUMP JUMPDEST PUSH2 0x8E PUSH32 0x0 DUP2 JUMP JUMPDEST PUSH2 0x154 PUSH2 0x14F CALLDATASIZE PUSH1 0x4 PUSH2 0x7AB JUMP JUMPDEST PUSH2 0x176 JUMP JUMPDEST PUSH1 0x40 MLOAD PUSH2 0xA2 SWAP2 SWAP1 PUSH2 0xA7E JUMP JUMPDEST PUSH1 0x60 DUP1 PUSH2 0x16D DUP4 PUSH2 0x3B0 JUMP JUMPDEST SWAP2 POP SWAP2 POP SWAP2 POP SWAP2 JUMP JUMPDEST PUSH1 0x60 DUP3 PUSH32 0x0 PUSH1 0x1 PUSH1 0x1 PUSH1 0xA0 SHL SUB AND DUP2 PUSH1 0x1 PUSH1 0x1 PUSH1 0xA0 SHL SUB AND EQ PUSH1 0x40 MLOAD DUP1 PUSH1 0x40 ADD PUSH1 0x40 MSTORE DUP1 PUSH1 0x13 DUP2 MSTORE PUSH1 0x20 ADD PUSH19 0x21A0A62622A92FA4A9AFA327A92124A22222A7 PUSH1 0x69 SHL DUP2 MSTORE POP SWAP1 PUSH2 0x201 JUMPI PUSH1 0x40 MLOAD PUSH3 0x461BCD PUSH1 0xE5 SHL DUP2 MSTORE PUSH1 0x4 ADD PUSH2 0x1F8 SWAP2 SWAP1 PUSH2 0xA7E JUMP JUMPDEST PUSH1 0x40 MLOAD DUP1 SWAP2 SUB SWAP1 REVERT JUMPDEST POP PUSH1 0x0 DUP1 PUSH2 0x20E DUP6 PUSH2 0x3B0 JUMP JUMPDEST SWAP2 POP SWAP2 POP PUSH2 0x21C DUP3 DUP3 PUSH2 0x3C7 JUMP JUMPDEST PUSH1 0x0 DUP3 MLOAD PUSH8 0xFFFFFFFFFFFFFFFF DUP2 GT ISZERO PUSH2 0x238 JUMPI PUSH2 0x238 PUSH2 0xB7C JUMP JUMPDEST PUSH1 0x40 MLOAD SWAP1 DUP1 DUP3 MSTORE DUP1 PUSH1 0x20 MUL PUSH1 0x20 ADD DUP3 ADD PUSH1 0x40 MSTORE DUP1 ISZERO PUSH2 0x26B JUMPI DUP2 PUSH1 0x20 ADD JUMPDEST PUSH1 0x60 DUP2 MSTORE PUSH1 0x20 ADD SWAP1 PUSH1 0x1 SWAP1 SUB SWAP1 DUP2 PUSH2 0x256 JUMPI SWAP1 POP JUMPDEST POP SWAP1 POP PUSH1 0x0 JUMPDEST DUP4 MLOAD DUP2 LT ISZERO PUSH2 0x372 JUMPI PUSH32 0x0 DUP5 DUP3 DUP2 MLOAD DUP2 LT PUSH2 0x2AD JUMPI PUSH2 0x2AD PUSH2 0xB66 JUMP JUMPDEST PUSH1 0x20 MUL PUSH1 0x20 ADD ADD MLOAD DUP5 DUP4 DUP2 MLOAD DUP2 LT PUSH2 0x2C7 JUMPI PUSH2 0x2C7 PUSH2 0xB66 JUMP JUMPDEST PUSH1 0x20 MUL PUSH1 0x20 ADD ADD MLOAD PUSH1 0x40 MLOAD PUSH1 0x20 ADD PUSH2 0x335 SWAP4 SWAP3 SWAP2 SWAP1 PUSH1 0x1 PUSH1 0x1 PUSH1 0xA0 SHL SUB SWAP4 DUP5 AND DUP2 MSTORE SWAP2 SWAP1 SWAP3 AND PUSH1 0x20 DUP3 ADD MSTORE PUSH1 0x40 DUP2 ADD SWAP2 SWAP1 SWAP2 MSTORE PUSH1 0x80 PUSH1 0x60 DUP3 ADD DUP2 SWAP1 MSTORE PUSH1 0x17 SWAP1 DUP3 ADD MSTORE PUSH32 0x526566657272616C20706172746E657220746F70207570000000000000000000 PUSH1 0xA0 DUP3 ADD MSTORE PUSH1 0xC0 ADD SWAP1 JUMP JUMPDEST PUSH1 0x40 MLOAD PUSH1 0x20 DUP2 DUP4 SUB SUB DUP2 MSTORE SWAP1 PUSH1 0x40 MSTORE DUP3 DUP3 DUP2 MLOAD DUP2 LT PUSH2 0x356 JUMPI PUSH2 0x356 PUSH2 0xB66 JUMP JUMPDEST PUSH1 0x20 MUL PUSH1 0x20 ADD ADD DUP2 SWAP1 MSTORE POP DUP1 PUSH2 0x36B SWAP1 PUSH2 0xB35 JUMP JUMPDEST SWAP1 POP PUSH2 0x271 JUMP JUMPDEST POP PUSH2 0x3A5 PUSH32 0x0 PUSH4 0x7B1B2423 PUSH1 0xE1 SHL DUP4 PUSH2 0x5F4 JUMP JUMPDEST SWAP8 SWAP7 POP POP POP POP POP POP POP JUMP JUMPDEST PUSH1 0x60 DUP1 DUP3 DUP1 PUSH1 0x20 ADD SWAP1 MLOAD DUP2 ADD SWAP1 PUSH2 0x16D SWAP2 SWAP1 PUSH2 0x7FB JUMP JUMPDEST DUP1 MLOAD DUP3 MLOAD EQ PUSH1 0x40 MLOAD DUP1 PUSH1 0x40 ADD PUSH1 0x40 MSTORE DUP1 PUSH1 0xF DUP2 MSTORE PUSH1 0x20 ADD PUSH15 0x988A9C8EA890BE9A92A69A82A8869 PUSH1 0x8B SHL DUP2 MSTORE POP SWAP1 PUSH2 0x412 JUMPI PUSH1 0x40 MLOAD PUSH3 0x461BCD PUSH1 0xE5 SHL DUP2 MSTORE PUSH1 0x4 ADD PUSH2 0x1F8 SWAP2 SWAP1 PUSH2 0xA7E JUMP JUMPDEST POP PUSH1 0x0 DUP3 MLOAD GT PUSH1 0x40 MLOAD DUP1 PUSH1 0x40 ADD PUSH1 0x40 MSTORE DUP1 PUSH1 0xA DUP2 MSTORE PUSH1 0x20 ADD PUSH10 0x454D5054595F44415441 PUSH1 0xB0 SHL DUP2 MSTORE POP SWAP1 PUSH2 0x459 JUMPI PUSH1 0x40 MLOAD PUSH3 0x461BCD PUSH1 0xE5 SHL DUP2 MSTORE PUSH1 0x4 ADD PUSH2 0x1F8 SWAP2 SWAP1 PUSH2 0xA7E JUMP JUMPDEST POP PUSH1 0x0 JUMPDEST DUP3 MLOAD DUP2 LT ISZERO PUSH2 0x5EF JUMPI PUSH1 0x0 DUP3 DUP3 DUP2 MLOAD DUP2 LT PUSH2 0x47A JUMPI PUSH2 0x47A PUSH2 0xB66 JUMP JUMPDEST PUSH1 0x20 MUL PUSH1 0x20 ADD ADD MLOAD GT PUSH1 0x40 MLOAD DUP1 PUSH1 0x40 ADD PUSH1 0x40 MSTORE DUP1 PUSH1 0xB DUP2 MSTORE PUSH1 0x20 ADD PUSH11 0x16915493D7D05353D55395 PUSH1 0xAA SHL DUP2 MSTORE POP SWAP1 PUSH2 0x4C5 JUMPI PUSH1 0x40 MLOAD PUSH3 0x461BCD PUSH1 0xE5 SHL DUP2 MSTORE PUSH1 0x4 ADD PUSH2 0x1F8 SWAP2 SWAP1 PUSH2 0xA7E JUMP JUMPDEST POP PUSH32 0x0 PUSH1 0x1 PUSH1 0x1 PUSH1 0xA0 SHL SUB AND PUSH4 0xE1248BAA DUP5 DUP4 DUP2 MLOAD DUP2 LT PUSH2 0x507 JUMPI PUSH2 0x507 PUSH2 0xB66 JUMP JUMPDEST PUSH1 0x20 MUL PUSH1 0x20 ADD ADD MLOAD PUSH1 0x40 MLOAD DUP3 PUSH4 0xFFFFFFFF AND PUSH1 0xE0 SHL DUP2 MSTORE PUSH1 0x4 ADD PUSH2 0x53A SWAP2 SWAP1 PUSH1 0x1 PUSH1 0x1 PUSH1 0xA0 SHL SUB SWAP2 SWAP1 SWAP2 AND DUP2 MSTORE PUSH1 0x20 ADD SWAP1 JUMP JUMPDEST PUSH1 0x20 PUSH1 0x40 MLOAD DUP1 DUP4 SUB DUP2 DUP7 DUP1 EXTCODESIZE ISZERO DUP1 ISZERO PUSH2 0x552 JUMPI PUSH1 0x0 DUP1 REVERT JUMPDEST POP GAS STATICCALL ISZERO DUP1 ISZERO PUSH2 0x566 JUMPI RETURNDATASIZE PUSH1 0x0 DUP1 RETURNDATACOPY RETURNDATASIZE PUSH1 0x0 REVERT JUMPDEST POP POP POP POP PUSH1 0x40 MLOAD RETURNDATASIZE PUSH1 0x1F NOT PUSH1 0x1F DUP3 ADD AND DUP3 ADD DUP1 PUSH1 0x40 MSTORE POP DUP2 ADD SWAP1 PUSH2 0x58A SWAP2 SWAP1 PUSH2 0x8BD JUMP JUMPDEST PUSH1 0x40 MLOAD DUP1 PUSH1 0x40 ADD PUSH1 0x40 MSTORE DUP1 PUSH1 0x1C DUP2 MSTORE PUSH1 0x20 ADD PUSH32 0x524546455252414C5F504152544E45525F4E4F545F414C4C4F57454400000000 DUP2 MSTORE POP SWAP1 PUSH2 0x5DE JUMPI PUSH1 0x40 MLOAD PUSH3 0x461BCD PUSH1 0xE5 SHL DUP2 MSTORE PUSH1 0x4 ADD PUSH2 0x1F8 SWAP2 SWAP1 PUSH2 0xA7E JUMP JUMPDEST POP PUSH2 0x5E8 DUP2 PUSH2 0xB35 JUMP JUMPDEST SWAP1 POP PUSH2 0x45D JUMP JUMPDEST POP POP POP JUMP JUMPDEST PUSH1 0x60 PUSH1 0x0 JUMPDEST DUP3 MLOAD DUP2 LT ISZERO PUSH2 0x699 JUMPI DUP2 DUP6 DUP5 DUP4 DUP2 MLOAD DUP2 LT PUSH2 0x616 JUMPI PUSH2 0x616 PUSH2 0xB66 JUMP JUMPDEST PUSH1 0x20 MUL PUSH1 0x20 ADD ADD MLOAD MLOAD PUSH1 0x4 PUSH2 0x62B SWAP2 SWAP1 PUSH2 0xAE6 JUMP JUMPDEST DUP7 DUP7 DUP6 DUP2 MLOAD DUP2 LT PUSH2 0x63E JUMPI PUSH2 0x63E PUSH2 0xB66 JUMP JUMPDEST PUSH1 0x20 MUL PUSH1 0x20 ADD ADD MLOAD PUSH1 0x40 MLOAD PUSH1 0x20 ADD PUSH2 0x659 SWAP5 SWAP4 SWAP3 SWAP2 SWAP1 PUSH2 0x94F JUMP JUMPDEST PUSH1 0x40 DUP1 MLOAD PUSH1 0x1F NOT DUP2 DUP5 SUB ADD DUP2 MSTORE SWAP1 DUP3 SWAP1 MSTORE PUSH2 0x677 SWAP3 SWAP2 PUSH1 0x20 ADD PUSH2 0x9D8 JUMP JUMPDEST PUSH1 0x40 MLOAD PUSH1 0x20 DUP2 DUP4 SUB SUB DUP2 MSTORE SWAP1 PUSH1 0x40 MSTORE SWAP2 POP DUP1 PUSH2 0x692 SWAP1 PUSH2 0xB35 JUMP JUMPDEST SWAP1 POP PUSH2 0x5F9 JUMP JUMPDEST POP PUSH1 0x1 PUSH1 0xE0 SHL DUP2 PUSH1 0x40 MLOAD PUSH1 0x20 ADD PUSH2 0x6B1 SWAP3 SWAP2 SWAP1 PUSH2 0x9A7 JUMP JUMPDEST PUSH1 0x40 MLOAD PUSH1 0x20 DUP2 DUP4 SUB SUB DUP2 MSTORE SWAP1 PUSH1 0x40 MSTORE SWAP1 POP SWAP4 SWAP3 POP POP POP JUMP JUMPDEST PUSH1 0x0 DUP3 PUSH1 0x1F DUP4 ADD SLT PUSH2 0x6DA JUMPI PUSH1 0x0 DUP1 REVERT JUMPDEST DUP2 MLOAD PUSH1 0x20 PUSH2 0x6EF PUSH2 0x6EA DUP4 PUSH2 0xAC2 JUMP JUMPDEST PUSH2 0xA91 JUMP JUMPDEST DUP1 DUP4 DUP3 MSTORE DUP3 DUP3 ADD SWAP2 POP DUP3 DUP7 ADD DUP8 DUP5 DUP7 PUSH1 0x5 SHL DUP10 ADD ADD GT ISZERO PUSH2 0x70F JUMPI PUSH1 0x0 DUP1 REVERT JUMPDEST PUSH1 0x0 JUMPDEST DUP6 DUP2 LT ISZERO PUSH2 0x72E JUMPI DUP2 MLOAD DUP5 MSTORE SWAP3 DUP5 ADD SWAP3 SWAP1 DUP5 ADD SWAP1 PUSH1 0x1 ADD PUSH2 0x712 JUMP JUMPDEST POP SWAP1 SWAP8 SWAP7 POP POP POP POP POP POP POP JUMP JUMPDEST PUSH1 0x0 DUP3 PUSH1 0x1F DUP4 ADD SLT PUSH2 0x74C JUMPI PUSH1 0x0 DUP1 REVERT JUMPDEST DUP2 CALLDATALOAD PUSH8 0xFFFFFFFFFFFFFFFF DUP2 GT ISZERO PUSH2 0x766 JUMPI PUSH2 0x766 PUSH2 0xB7C JUMP JUMPDEST PUSH2 0x779 PUSH1 0x1F DUP3 ADD PUSH1 0x1F NOT AND PUSH1 0x20 ADD PUSH2 0xA91 JUMP JUMPDEST DUP2 DUP2 MSTORE DUP5 PUSH1 0x20 DUP4 DUP7 ADD ADD GT ISZERO PUSH2 0x78E JUMPI PUSH1 0x0 DUP1 REVERT JUMPDEST DUP2 PUSH1 0x20 DUP6 ADD PUSH1 0x20 DUP4 ADD CALLDATACOPY PUSH1 0x0 SWAP2 DUP2 ADD PUSH1 0x20 ADD SWAP2 SWAP1 SWAP2 MSTORE SWAP4 SWAP3 POP POP POP JUMP JUMPDEST PUSH1 0x0 DUP1 PUSH1 0x40 DUP4 DUP6 SUB SLT ISZERO PUSH2 0x7BE JUMPI PUSH1 0x0 DUP1 REVERT JUMPDEST DUP3 CALLDATALOAD PUSH2 0x7C9 DUP2 PUSH2 0xB92 JUMP JUMPDEST SWAP2 POP PUSH1 0x20 DUP4 ADD CALLDATALOAD PUSH8 0xFFFFFFFFFFFFFFFF DUP2 GT ISZERO PUSH2 0x7E5 JUMPI PUSH1 0x0 DUP1 REVERT JUMPDEST PUSH2 0x7F1 DUP6 DUP3 DUP7 ADD PUSH2 0x73B JUMP JUMPDEST SWAP2 POP POP SWAP3 POP SWAP3 SWAP1 POP JUMP JUMPDEST PUSH1 0x0 DUP1 PUSH1 0x40 DUP4 DUP6 SUB SLT ISZERO PUSH2 0x80E JUMPI PUSH1 0x0 DUP1 REVERT JUMPDEST DUP3 MLOAD PUSH8 0xFFFFFFFFFFFFFFFF DUP1 DUP3 GT ISZERO PUSH2 0x826 JUMPI PUSH1 0x0 DUP1 REVERT JUMPDEST DUP2 DUP6 ADD SWAP2 POP DUP6 PUSH1 0x1F DUP4 ADD SLT PUSH2 0x83A JUMPI PUSH1 0x0 DUP1 REVERT JUMPDEST DUP2 MLOAD PUSH1 0x20 PUSH2 0x84A PUSH2 0x6EA DUP4 PUSH2 0xAC2 JUMP JUMPDEST DUP1 DUP4 DUP3 MSTORE DUP3 DUP3 ADD SWAP2 POP DUP3 DUP7 ADD DUP11 DUP5 DUP7 PUSH1 0x5 SHL DUP10 ADD ADD GT ISZERO PUSH2 0x86A JUMPI PUSH1 0x0 DUP1 REVERT JUMPDEST PUSH1 0x0 SWAP7 POP JUMPDEST DUP5 DUP8 LT ISZERO PUSH2 0x896 JUMPI DUP1 MLOAD PUSH2 0x882 DUP2 PUSH2 0xB92 JUMP JUMPDEST DUP4 MSTORE PUSH1 0x1 SWAP7 SWAP1 SWAP7 ADD SWAP6 SWAP2 DUP4 ADD SWAP2 DUP4 ADD PUSH2 0x86F JUMP JUMPDEST POP SWAP2 DUP9 ADD MLOAD SWAP2 SWAP7 POP SWAP1 SWAP4 POP POP POP DUP1 DUP3 GT ISZERO PUSH2 0x8B0 JUMPI PUSH1 0x0 DUP1 REVERT JUMPDEST POP PUSH2 0x7F1 DUP6 DUP3 DUP7 ADD PUSH2 0x6C9 JUMP JUMPDEST PUSH1 0x0 PUSH1 0x20 DUP3 DUP5 SUB SLT ISZERO PUSH2 0x8CF JUMPI PUSH1 0x0 DUP1 REVERT JUMPDEST DUP2 MLOAD DUP1 ISZERO ISZERO DUP2 EQ PUSH2 0x8DF JUMPI PUSH1 0x0 DUP1 REVERT JUMPDEST SWAP4 SWAP3 POP POP POP JUMP JUMPDEST PUSH1 0x0 PUSH1 0x20 DUP3 DUP5 SUB SLT ISZERO PUSH2 0x8F8 JUMPI PUSH1 0x0 DUP1 REVERT JUMPDEST DUP2 CALLDATALOAD PUSH8 0xFFFFFFFFFFFFFFFF DUP2 GT ISZERO PUSH2 0x90F JUMPI PUSH1 0x0 DUP1 REVERT JUMPDEST PUSH2 0x91B DUP5 DUP3 DUP6 ADD PUSH2 0x73B JUMP JUMPDEST SWAP5 SWAP4 POP POP POP POP JUMP JUMPDEST PUSH1 0x0 DUP2 MLOAD DUP1 DUP5 MSTORE PUSH2 0x93B DUP2 PUSH1 0x20 DUP7 ADD PUSH1 0x20 DUP7 ADD PUSH2 0xB05 JUMP JUMPDEST PUSH1 0x1F ADD PUSH1 0x1F NOT AND SWAP3 SWAP1 SWAP3 ADD PUSH1 0x20 ADD SWAP3 SWAP2 POP POP JUMP JUMPDEST PUSH12 0xFFFFFFFFFFFFFFFFFFFFFFFF NOT PUSH1 0x60 DUP7 SWAP1 SHL AND DUP2 MSTORE PUSH1 0x1 PUSH1 0x1 PUSH1 0xE0 SHL SUB NOT PUSH1 0xE0 DUP6 SWAP1 SHL DUP2 AND PUSH1 0x14 DUP4 ADD MSTORE DUP4 AND PUSH1 0x18 DUP3 ADD MSTORE DUP2 MLOAD PUSH1 0x0 SWAP1 PUSH2 0x997 DUP2 PUSH1 0x1C DUP6 ADD PUSH1 0x20 DUP8 ADD PUSH2 0xB05 JUMP JUMPDEST SWAP2 SWAP1 SWAP2 ADD PUSH1 0x1C ADD SWAP6 SWAP5 POP POP POP POP POP JUMP JUMPDEST PUSH1 0x1 PUSH1 0x1 PUSH1 0xE0 SHL SUB NOT DUP4 AND DUP2 MSTORE DUP2 MLOAD PUSH1 0x0 SWAP1 PUSH2 0x9CA DUP2 PUSH1 0x4 DUP6 ADD PUSH1 0x20 DUP8 ADD PUSH2 0xB05 JUMP JUMPDEST SWAP2 SWAP1 SWAP2 ADD PUSH1 0x4 ADD SWAP4 SWAP3 POP POP POP JUMP JUMPDEST PUSH1 0x0 DUP4 MLOAD PUSH2 0x9EA DUP2 DUP5 PUSH1 0x20 DUP9 ADD PUSH2 0xB05 JUMP JUMPDEST DUP4 MLOAD SWAP1 DUP4 ADD SWAP1 PUSH2 0x9FE DUP2 DUP4 PUSH1 0x20 DUP9 ADD PUSH2 0xB05 JUMP JUMPDEST ADD SWAP5 SWAP4 POP POP POP POP JUMP JUMPDEST PUSH1 0x40 DUP1 DUP3 MSTORE DUP4 MLOAD SWAP1 DUP3 ADD DUP2 SWAP1 MSTORE PUSH1 0x0 SWAP1 PUSH1 0x20 SWAP1 PUSH1 0x60 DUP5 ADD SWAP1 DUP3 DUP8 ADD DUP5 JUMPDEST DUP3 DUP2 LT ISZERO PUSH2 0xA49 JUMPI DUP2 MLOAD PUSH1 0x1 PUSH1 0x1 PUSH1 0xA0 SHL SUB AND DUP5 MSTORE SWAP3 DUP5 ADD SWAP3 SWAP1 DUP5 ADD SWAP1 PUSH1 0x1 ADD PUSH2 0xA24 JUMP JUMPDEST POP POP POP DUP4 DUP2 SUB DUP3 DUP6 ADD MSTORE DUP5 MLOAD DUP1 DUP3 MSTORE DUP6 DUP4 ADD SWAP2 DUP4 ADD SWAP1 PUSH1 0x0 JUMPDEST DUP2 DUP2 LT ISZERO PUSH2 0x72E JUMPI DUP4 MLOAD DUP4 MSTORE SWAP3 DUP5 ADD SWAP3 SWAP2 DUP5 ADD SWAP2 PUSH1 0x1 ADD PUSH2 0xA62 JUMP JUMPDEST PUSH1 0x20 DUP2 MSTORE PUSH1 0x0 PUSH2 0x8DF PUSH1 0x20 DUP4 ADD DUP5 PUSH2 0x923 JUMP JUMPDEST PUSH1 0x40 MLOAD PUSH1 0x1F DUP3 ADD PUSH1 0x1F NOT AND DUP2 ADD PUSH8 0xFFFFFFFFFFFFFFFF DUP2 GT DUP3 DUP3 LT OR ISZERO PUSH2 0xABA JUMPI PUSH2 0xABA PUSH2 0xB7C JUMP JUMPDEST PUSH1 0x40 MSTORE SWAP2 SWAP1 POP JUMP JUMPDEST PUSH1 0x0 PUSH8 0xFFFFFFFFFFFFFFFF DUP3 GT ISZERO PUSH2 0xADC JUMPI PUSH2 0xADC PUSH2 0xB7C JUMP JUMPDEST POP PUSH1 0x5 SHL PUSH1 0x20 ADD SWAP1 JUMP JUMPDEST PUSH1 0x0 PUSH4 0xFFFFFFFF DUP1 DUP4 AND DUP2 DUP6 AND DUP1 DUP4 SUB DUP3 GT ISZERO PUSH2 0x9FE JUMPI PUSH2 0x9FE PUSH2 0xB50 JUMP JUMPDEST PUSH1 0x0 JUMPDEST DUP4 DUP2 LT ISZERO PUSH2 0xB20 JUMPI DUP2 DUP2 ADD MLOAD DUP4 DUP3 ADD MSTORE PUSH1 0x20 ADD PUSH2 0xB08 JUMP JUMPDEST DUP4 DUP2 GT ISZERO PUSH2 0xB2F JUMPI PUSH1 0x0 DUP5 DUP5 ADD MSTORE JUMPDEST POP POP POP POP JUMP JUMPDEST PUSH1 0x0 PUSH1 0x0 NOT DUP3 EQ ISZERO PUSH2 0xB49 JUMPI PUSH2 0xB49 PUSH2 0xB50 JUMP JUMPDEST POP PUSH1 0x1 ADD SWAP1 JUMP JUMPDEST PUSH4 0x4E487B71 PUSH1 0xE0 SHL PUSH1 0x0 MSTORE PUSH1 0x11 PUSH1 0x4 MSTORE PUSH1 0x24 PUSH1 0x0 REVERT JUMPDEST PUSH4 0x4E487B71 PUSH1 0xE0 SHL PUSH1 0x0 MSTORE PUSH1 0x32 PUSH1 0x4 MSTORE PUSH1 0x24 PUSH1 0x0 REVERT JUMPDEST PUSH4 0x4E487B71 PUSH1 0xE0 SHL PUSH1 0x0 MSTORE PUSH1 0x41 PUSH1 0x4 MSTORE PUSH1 0x24 PUSH1 0x0 REVERT JUMPDEST PUSH1 0x1 PUSH1 0x1 PUSH1 0xA0 SHL SUB DUP2 AND DUP2 EQ PUSH2 0xBA7 JUMPI PUSH1 0x0 DUP1 REVERT JUMPDEST POP JUMP INVALID LOG2 PUSH5 0x6970667358 0x22 SLT KECCAK256 ADDRESS KECCAK256 0xC1 GAS RETURNDATASIZE 0xA5 COINBASE 0x1E CODESIZE GASLIMIT SWAP8 CALL KECCAK256 LOG3 PUSH28 0xAA03C64476CEE09434C6FA3A3AE5B5D6F564736F6C63430008060033 ",
  "sha1": "1180b5c9be5bbf34f52dd2817a59d1b4b897aca3",
  "source": "// SPDX-FileCopyrightText: 2022 Lido <info@lido.fi>\n// SPDX-License-Identifier: GPL-3.0\n\npragma solidity ^0.8.4;\n\nimport \"../TrustedCaller.sol\";\nimport \"../ReferralPartnersRegistry.sol\";\nimport \"../interfaces/IFinance.sol\";\nimport \"../libraries/EVMScriptCreator.sol\";\nimport \"../interfaces/IEVMScriptFactory.sol\";\n\n/// @author psirex, dzhon\n/// @notice Creates EVMScript to top up balances of referral partners\ncontract TopUpReferralPartners is TrustedCaller, IEVMScriptFactory {\n    // -------------\n    // ERRORS\n    // -------------\n    string private constant ERROR_LENGTH_MISMATCH = \"LENGTH_MISMATCH\";\n    string private constant ERROR_EMPTY_DATA = \"EMPTY_DATA\";\n    string private constant ERROR_ZERO_AMOUNT = \"ZERO_AMOUNT\";\n    string private constant ERROR_REFERRAL_PARTNER_NOT_ALLOWED = \"REFERRAL_PARTNER_NOT_ALLOWED\";\n\n    // -------------\n    // VARIABLES\n    // -------------\n\n    /// @notice Address of Aragon's Finance contract\n    IFinance public immutable finance;\n\n    /// @notice Address of payout token\n    address public immutable payoutToken;\n\n    /// @notice Address of referralPartnersRegistry\n    ReferralPartnersRegistry public immutable referralPartnersRegistry;\n\n    // -------------\n    // CONSTRUCTOR\n    // -------------\n\n    constructor(\n        address _trustedCaller,\n        address _referralPartnersRegistry,\n        address _finance,\n        address _payoutToken\n    ) TrustedCaller(_trustedCaller) {\n        finance = IFinance(_finance);\n        payoutToken = _payoutToken;\n        referralPartnersRegistry = ReferralPartnersRegistry(_referralPartnersRegistry);\n    }\n\n    // -------------\n    // EXTERNAL METHODS\n    // -------------\n\n    /// @notice Creates EVMScript to top up balances of referral partners\n    /// @param _creator Address who creates EVMScript\n    /// @param _evmScriptCallData Encoded tuple: (address[] _referralPartners, uint256[] _amounts) where\n    /// _referralPartners - addresses of referral partners to top up\n    /// _amounts - corresponding amount of tokens to transfer\n    function createEVMScript(address _creator, bytes memory _evmScriptCallData)\n        external\n        view\n        override\n        onlyTrustedCaller(_creator)\n        returns (bytes memory)\n    {\n        (address[] memory referralPartners, uint256[] memory amounts) =\n            _decodeEVMScriptCallData(_evmScriptCallData);\n\n        _validateEVMScriptCallData(referralPartners, amounts);\n\n        bytes[] memory evmScriptsCalldata = new bytes[](referralPartners.length);\n        for (uint256 i = 0; i < referralPartners.length; ++i) {\n            evmScriptsCalldata[i] = abi.encode(\n                payoutToken,\n                referralPartners[i],\n                amounts[i],\n                \"Referral partner top up\"\n            );\n        }\n        return\n            EVMScriptCreator.createEVMScript(\n                address(finance),\n                finance.newImmediatePayment.selector,\n                evmScriptsCalldata\n            );\n    }\n\n    /// @notice Decodes call data used by createEVMScript method\n    /// @param _evmScriptCallData Encoded tuple: (address[] _referralPartners, uint256[] _amounts) where\n    /// _referralPartners - addresses of referral partners to top up\n    /// _amounts - corresponding amount of tokens to transfer\n    /// @return _referralPartners Addresses of referral partners to top up\n    /// @return _amounts Amounts of tokens to transfer\n    function decodeEVMScriptCallData(bytes memory _evmScriptCallData)\n        external\n        pure\n        returns (address[] memory _referralPartners, uint256[] memory _amounts)\n    {\n        return _decodeEVMScriptCallData(_evmScriptCallData);\n    }\n\n    // ------------------\n    // PRIVATE METHODS\n    // ------------------\n\n    function _validateEVMScriptCallData(address[] memory _referralPartners, uint256[] memory _amounts)\n        private\n        view\n    {\n        require(_referralPartners.length == _amounts.length, ERROR_LENGTH_MISMATCH);\n        require(_referralPartners.length > 0, ERROR_EMPTY_DATA);\n        for (uint256 i = 0; i < _referralPartners.length; ++i) {\n            require(_amounts[i] > 0, ERROR_ZERO_AMOUNT);\n            require(\n                referralPartnersRegistry.isReferralPartner(_referralPartners[i]),\n                ERROR_REFERRAL_PARTNER_NOT_ALLOWED\n            );\n        }\n    }\n\n    function _decodeEVMScriptCallData(bytes memory _evmScriptCallData)\n        private\n        pure\n        returns (address[] memory _referralPartners, uint256[] memory _amounts)\n    {\n        return abi.decode(_evmScriptCallData, (address[], uint256[]));\n    }\n}\n",
  "sourcePath": "contracts/EVMScriptFactories/TopUpReferralPartners.sol",
  "type": "contract"
}