{
  "abi": [
    {
      "inputs": [
        {
          "internalType": "address",
          "name": "_admin",
          "type": "address"
        },
        {
          "internalType": "address[]",
          "name": "_addReferralPartnerRoleHolders",
          "type": "address[]"
        },
        {
          "internalType": "address[]",
          "name": "_removeReferralPartnerRoleHolders",
          "type": "address[]"
        }
      ],
      "stateMutability": "nonpayable",
      "type": "constructor"
    },
    {
      "anonymous": false,
      "inputs": [
        {
          "indexed": true,
          "internalType": "address",
          "name": "_referralPartner",
          "type": "address"
        },
        {
          "indexed": false,
          "internalType": "string",
          "name": "_title",
          "type": "string"
        }
      ],
      "name": "ReferralPartnerAdded",
      "type": "event"
    },
    {
      "anonymous": false,
      "inputs": [
        {
          "indexed": true,
          "internalType": "address",
          "name": "_referralPartner",
          "type": "address"
        }
      ],
      "name": "ReferralPartnerRemoved",
      "type": "event"
    },
    {
      "anonymous": false,
      "inputs": [
        {
          "indexed": true,
          "internalType": "bytes32",
          "name": "role",
          "type": "bytes32"
        },
        {
          "indexed": true,
          "internalType": "bytes32",
          "name": "previousAdminRole",
          "type": "bytes32"
        },
        {
          "indexed": true,
          "internalType": "bytes32",
          "name": "newAdminRole",
          "type": "bytes32"
        }
      ],
      "name": "RoleAdminChanged",
      "type": "event"
    },
    {
      "anonymous": false,
      "inputs": [
        {
          "indexed": true,
          "internalType": "bytes32",
          "name": "role",
          "type": "bytes32"
        },
        {
          "indexed": true,
          "internalType": "address",
          "name": "account",
          "type": "address"
        },
        {
          "indexed": true,
          "internalType": "address",
          "name": "sender",
          "type": "address"
        }
      ],
      "name": "RoleGranted",
      "type": "event"
    },
    {
      "anonymous": false,
      "inputs": [
        {
          "indexed": true,
          "internalType": "bytes32",
          "name": "role",
          "type": "bytes32"
        },
        {
          "indexed": true,
          "internalType": "address",
          "name": "account",
          "type": "address"
        },
        {
          "indexed": true,
          "internalType": "address",
          "name": "sender",
          "type": "address"
        }
      ],
      "name": "RoleRevoked",
      "type": "event"
    },
    {
      "inputs": [],
      "name": "ADD_REFERRAL_PARTNER_ROLE",
      "outputs": [
        {
          "internalType": "bytes32",
          "name": "",
          "type": "bytes32"
        }
      ],
      "stateMutability": "view",
      "type": "function"
    },
    {
      "inputs": [],
      "name": "DEFAULT_ADMIN_ROLE",
      "outputs": [
        {
          "internalType": "bytes32",
          "name": "",
          "type": "bytes32"
        }
      ],
      "stateMutability": "view",
      "type": "function"
    },
    {
      "inputs": [],
      "name": "REMOVE_REFERRAL_PARTNER_ROLE",
      "outputs": [
        {
          "internalType": "bytes32",
          "name": "",
          "type": "bytes32"
        }
      ],
      "stateMutability": "view",
      "type": "function"
    },
    {
      "inputs": [
        {
          "internalType": "address",
          "name": "_referralPartner",
          "type": "address"
        },
        {
          "internalType": "string",
          "name": "_title",
          "type": "string"
        }
      ],
      "name": "addReferralPartner",
      "outputs": [],
      "stateMutability": "nonpayable",
      "type": "function"
    },
    {
      "inputs": [],
      "name": "getReferralPartners",
      "outputs": [
        {
          "internalType": "address[]",
          "name": "",
          "type": "address[]"
        }
      ],
      "stateMutability": "view",
      "type": "function"
    },
    {
      "inputs": [
        {
          "internalType": "bytes32",
          "name": "role",
          "type": "bytes32"
        }
      ],
      "name": "getRoleAdmin",
      "outputs": [
        {
          "internalType": "bytes32",
          "name": "",
          "type": "bytes32"
        }
      ],
      "stateMutability": "view",
      "type": "function"
    },
    {
      "inputs": [
        {
          "internalType": "bytes32",
          "name": "role",
          "type": "bytes32"
        },
        {
          "internalType": "address",
          "name": "account",
          "type": "address"
        }
      ],
      "name": "grantRole",
      "outputs": [],
      "stateMutability": "nonpayable",
      "type": "function"
    },
    {
      "inputs": [
        {
          "internalType": "bytes32",
          "name": "role",
          "type": "bytes32"
        },
        {
          "internalType": "address",
          "name": "account",
          "type": "address"
        }
      ],
      "name": "hasRole",
      "outputs": [
        {
          "internalType": "bool",
          "name": "",
          "type": "bool"
        }
      ],
      "stateMutability": "view",
      "type": "function"
    },
    {
      "inputs": [
        {
          "internalType": "address",
          "name": "_maybeReferralPartner",
          "type": "address"
        }
      ],
      "name": "isReferralPartner",
      "outputs": [
        {
          "internalType": "bool",
          "name": "",
          "type": "bool"
        }
      ],
      "stateMutability": "view",
      "type": "function"
    },
    {
      "inputs": [
        {
          "internalType": "uint256",
          "name": "",
          "type": "uint256"
        }
      ],
      "name": "referralPartners",
      "outputs": [
        {
          "internalType": "address",
          "name": "",
          "type": "address"
        }
      ],
      "stateMutability": "view",
      "type": "function"
    },
    {
      "inputs": [
        {
          "internalType": "address",
          "name": "_referralPartner",
          "type": "address"
        }
      ],
      "name": "removeReferralPartner",
      "outputs": [],
      "stateMutability": "nonpayable",
      "type": "function"
    },
    {
      "inputs": [
        {
          "internalType": "bytes32",
          "name": "role",
          "type": "bytes32"
        },
        {
          "internalType": "address",
          "name": "account",
          "type": "address"
        }
      ],
      "name": "renounceRole",
      "outputs": [],
      "stateMutability": "nonpayable",
      "type": "function"
    },
    {
      "inputs": [
        {
          "internalType": "bytes32",
          "name": "role",
          "type": "bytes32"
        },
        {
          "internalType": "address",
          "name": "account",
          "type": "address"
        }
      ],
      "name": "revokeRole",
      "outputs": [],
      "stateMutability": "nonpayable",
      "type": "function"
    },
    {
      "inputs": [
        {
          "internalType": "bytes4",
          "name": "interfaceId",
          "type": "bytes4"
        }
      ],
      "name": "supportsInterface",
      "outputs": [
        {
          "internalType": "bool",
          "name": "",
          "type": "bool"
        }
      ],
      "stateMutability": "view",
      "type": "function"
    }
  ],
  "bytecode": "60806040523480156200001157600080fd5b506040516200113e3803806200113e833981016040819052620000349162000298565b6200004160008462000118565b60005b8251811015620000b1576200009c7fc1abd43f2e36dc67d310c16062e4938b5ba1fe4402c1abdec6b97f948f73ca638483815181106200008857620000886200033f565b60200260200101516200011860201b60201c565b80620000a88162000315565b91505062000044565b5060005b81518110156200010e57620000f97f7008cc5a90aaf80c912ca059d454c206ecc9421c9ce3ccbaca3b6eb06621bdb48383815181106200008857620000886200033f565b80620001058162000315565b915050620000b5565b505050506200036b565b62000124828262000128565b5050565b6000828152602081815260408083206001600160a01b038516845290915290205460ff1662000124576000828152602081815260408083206001600160a01b03851684529091529020805460ff19166001179055620001843390565b6001600160a01b0316816001600160a01b0316837f2f8788117e7eff1d82e926ec794901d17c78024a50270940304540a733656f0d60405160405180910390a45050565b80516001600160a01b0381168114620001e057600080fd5b919050565b600082601f830112620001f757600080fd5b815160206001600160401b038083111562000216576200021662000355565b8260051b604051601f19603f830116810181811084821117156200023e576200023e62000355565b604052848152838101925086840182880185018910156200025e57600080fd5b600092505b858310156200028c576200027781620001c8565b84529284019260019290920191840162000263565b50979650505050505050565b600080600060608486031215620002ae57600080fd5b620002b984620001c8565b60208501519093506001600160401b0380821115620002d757600080fd5b620002e587838801620001e5565b93506040860151915080821115620002fc57600080fd5b506200030b86828701620001e5565b9150509250925092565b60006000198214156200033857634e487b7160e01b600052601160045260246000fd5b5060010190565b634e487b7160e01b600052603260045260246000fd5b634e487b7160e01b600052604160045260246000fd5b610dc3806200037b6000396000f3fe608060405234801561001057600080fd5b50600436106100ea5760003560e01c80636057a7731161008c578063a217fddf11610066578063a217fddf14610222578063d547741f1461022a578063e1248baa1461023d578063ffa10fe31461026857600080fd5b80636057a773146101bd5780638f575ea1146101e857806391d148541461020f57600080fd5b80632f2ff15d116100c85780632f2ff15d1461015d578063325e8d871461017057806336568abe146101975780633d0daf19146101aa57600080fd5b806301ffc9a7146100ef57806303b94c6614610117578063248a9ca31461012c575b600080fd5b6101026100fd366004610b81565b61027d565b60405190151581526020015b60405180910390f35b61012a610125366004610a7a565b6102b4565b005b61014f61013a366004610b3c565b60009081526020819052604090206001015490565b60405190815260200161010e565b61012a61016b366004610b55565b6103f0565b61014f7fc1abd43f2e36dc67d310c16062e4938b5ba1fe4402c1abdec6b97f948f73ca6381565b61012a6101a5366004610b55565b61041b565b61012a6101b8366004610a5f565b610499565b6101d06101cb366004610b3c565b6105fc565b6040516001600160a01b03909116815260200161010e565b61014f7f7008cc5a90aaf80c912ca059d454c206ecc9421c9ce3ccbaca3b6eb06621bdb481565b61010261021d366004610b55565b610626565b61014f600081565b61012a610238366004610b55565b61064f565b61010261024b366004610a5f565b6001600160a01b0316600090815260026020526040902054151590565b610270610675565b60405161010e9190610c20565b60006001600160e01b03198216637965db0b60e01b14806102ae57506301ffc9a760e01b6001600160e01b03198316145b92915050565b7fc1abd43f2e36dc67d310c16062e4938b5ba1fe4402c1abdec6b97f948f73ca636102df81336106d7565b6001600160a01b038316600090815260026020908152604091829020548251808401909352601e83527f524546455252414c5f504152544e45525f414c52454144595f4144444544000091830191909152156103575760405162461bcd60e51b815260040161034e9190610c6d565b60405180910390fd5b506001805480820182557fb10e2d527612073b26eecdfd717e6a320cf44b4afac2b0732d9fcbe2b7fa0cf60180546001600160a01b0319166001600160a01b03861690811790915590546000828152600260205260409081902091909155517f90d96ddde868eec6a07567f484e97fa3de746a2d8da09fefb8913cf514016fb1906103e3908590610c6d565b60405180910390a2505050565b60008281526020819052604090206001015461040c81336106d7565b610416838361073b565b505050565b6001600160a01b038116331461048b5760405162461bcd60e51b815260206004820152602f60248201527f416363657373436f6e74726f6c3a2063616e206f6e6c792072656e6f756e636560448201526e103937b632b9903337b91039b2b63360891b606482015260840161034e565b61049582826107bf565b5050565b7f7008cc5a90aaf80c912ca059d454c206ecc9421c9ce3ccbaca3b6eb06621bdb46104c481336106d7565b60006104cf83610824565b600180549192506000916104e39190610cd7565b905080821461057f5760006001828154811061050157610501610d61565b600091825260209091200154600180546001600160a01b03909216925082918590811061053057610530610d61565b600091825260209091200180546001600160a01b0319166001600160a01b0392909216919091179055610564836001610ca0565b6001600160a01b039091166000908152600260205260409020555b600180548061059057610590610d4b565b60008281526020808220830160001990810180546001600160a01b03191690559092019092556001600160a01b038616808352600290915260408083208390555190917f0a05e18a4381752a83b38784b84c221f84bdd522ecbca76b505b854d145773b891a250505050565b6001818154811061060c57600080fd5b6000918252602090912001546001600160a01b0316905081565b6000918252602082815260408084206001600160a01b0393909316845291905290205460ff1690565b60008281526020819052604090206001015461066b81336106d7565b61041683836107bf565b606060018054806020026020016040519081016040528092919081815260200182805480156106cd57602002820191906000526020600020905b81546001600160a01b031681526001909101906020018083116106af575b5050505050905090565b6106e18282610626565b610495576106f9816001600160a01b031660146108a0565b6107048360206108a0565b604051602001610715929190610bab565b60408051601f198184030181529082905262461bcd60e51b825261034e91600401610c6d565b6107458282610626565b610495576000828152602081815260408083206001600160a01b03851684529091529020805460ff1916600117905561077b3390565b6001600160a01b0316816001600160a01b0316837f2f8788117e7eff1d82e926ec794901d17c78024a50270940304540a733656f0d60405160405180910390a45050565b6107c98282610626565b15610495576000828152602081815260408083206001600160a01b0385168085529252808320805460ff1916905551339285917ff6391f5c32d9c69d2a47ea670b442974b53935d1edc7fd64eb21e047a839171b9190a45050565b6001600160a01b038116600090815260026020908152604091829020548251808401909352601a83527f524546455252414c5f504152544e45525f4e4f545f464f554e440000000000009183019190915290816108945760405162461bcd60e51b815260040161034e9190610c6d565b506102ae600182610cd7565b606060006108af836002610cb8565b6108ba906002610ca0565b67ffffffffffffffff8111156108d2576108d2610d77565b6040519080825280601f01601f1916602001820160405280156108fc576020820181803683370190505b509050600360fc1b8160008151811061091757610917610d61565b60200101906001600160f81b031916908160001a905350600f60fb1b8160018151811061094657610946610d61565b60200101906001600160f81b031916908160001a905350600061096a846002610cb8565b610975906001610ca0565b90505b60018111156109ed576f181899199a1a9b1b9c1cb0b131b232b360811b85600f16601081106109a9576109a9610d61565b1a60f81b8282815181106109bf576109bf610d61565b60200101906001600160f81b031916908160001a90535060049490941c936109e681610d1e565b9050610978565b508315610a3c5760405162461bcd60e51b815260206004820181905260248201527f537472696e67733a20686578206c656e67746820696e73756666696369656e74604482015260640161034e565b9392505050565b80356001600160a01b0381168114610a5a57600080fd5b919050565b600060208284031215610a7157600080fd5b610a3c82610a43565b60008060408385031215610a8d57600080fd5b610a9683610a43565b9150602083013567ffffffffffffffff80821115610ab357600080fd5b818501915085601f830112610ac757600080fd5b813581811115610ad957610ad9610d77565b604051601f8201601f19908116603f01168101908382118183101715610b0157610b01610d77565b81604052828152886020848701011115610b1a57600080fd5b8260208601602083013760006020848301015280955050505050509250929050565b600060208284031215610b4e57600080fd5b5035919050565b60008060408385031215610b6857600080fd5b82359150610b7860208401610a43565b90509250929050565b600060208284031215610b9357600080fd5b81356001600160e01b031981168114610a3c57600080fd5b7f416363657373436f6e74726f6c3a206163636f756e7420000000000000000000815260008351610be3816017850160208801610cee565b7001034b99036b4b9b9b4b733903937b6329607d1b6017918401918201528351610c14816028840160208801610cee565b01602801949350505050565b6020808252825182820181905260009190848201906040850190845b81811015610c615783516001600160a01b031683529284019291840191600101610c3c565b50909695505050505050565b6020815260008251806020840152610c8c816040850160208701610cee565b601f01601f19169190910160400192915050565b60008219821115610cb357610cb3610d35565b500190565b6000816000190483118215151615610cd257610cd2610d35565b500290565b600082821015610ce957610ce9610d35565b500390565b60005b83811015610d09578181015183820152602001610cf1565b83811115610d18576000848401525b50505050565b600081610d2d57610d2d610d35565b506000190190565b634e487b7160e01b600052601160045260246000fd5b634e487b7160e01b600052603160045260246000fd5b634e487b7160e01b600052603260045260246000fd5b634e487b7160e01b600052604160045260246000fdfea2646970667358221220d534f7ca3876c93751b694f1d776aa469f4fc54e5fbe454676fb6cdc6311571f64736f6c63430008060033",
  "bytecodeSha1": "a381f9f0069b19a496979f2719dca9d59ee87b70",
  "compiler": {
    "evm_version": "istanbul",
    "optimizer": {
      "enabled": true,
      "runs": 200
    },
    "version": "0.8.6+commit.11564f7e"
  },
  "contractName": "ReferralPartnersRegistry",
  "language": "Solidity",
  "natspec": {
    "author": "psirex, dzhon",
    "kind": "dev",
    "methods": {
      "addReferralPartner(address,string)": {
        "notice": "Adds address to list of allowed referral partners"
      },
      "constructor": {
        "params": {
          "_addReferralPartnerRoleHolders": "List of addresses which will be     granted with role ADD_REFERRAL_PARTNER_ROLE",
          "_admin": "Address which will be granted with role DEFAULT_ADMIN_ROLE",
          "_removeReferralPartnerRoleHolders": "List of addresses which will     be granted with role REMOVE_REFERRAL_PARTNER_ROLE"
        }
      },
      "getReferralPartners()": {
        "notice": "Returns current list of referral partners"
      },
      "getRoleAdmin(bytes32)": {
        "details": "Returns the admin role that controls `role`. See {grantRole} and {revokeRole}. To change a role's admin, use {_setRoleAdmin}."
      },
      "grantRole(bytes32,address)": {
        "details": "Grants `role` to `account`. If `account` had not been already granted `role`, emits a {RoleGranted} event. Requirements: - the caller must have ``role``'s admin role."
      },
      "hasRole(bytes32,address)": {
        "details": "Returns `true` if `account` has been granted `role`."
      },
      "isReferralPartner(address)": {
        "notice": "Returns if passed address are listed as referral partner in the registry"
      },
      "removeReferralPartner(address)": {
        "details": "To delete a referral partner from the referralPartners array in O(1), we swap the element to delete with the last one in the array, and then remove the last element (sometimes called as 'swap and pop').",
        "notice": "Removes address from list of allowed referral partners"
      },
      "renounceRole(bytes32,address)": {
        "details": "Revokes `role` from the calling account. Roles are often managed via {grantRole} and {revokeRole}: this function's purpose is to provide a mechanism for accounts to lose their privileges if they are compromised (such as when a trusted device is misplaced). If the calling account had been granted `role`, emits a {RoleRevoked} event. Requirements: - the caller must be `account`."
      },
      "revokeRole(bytes32,address)": {
        "details": "Revokes `role` from `account`. If `account` had been granted `role`, emits a {RoleRevoked} event. Requirements: - the caller must have ``role``'s admin role."
      },
      "supportsInterface(bytes4)": {
        "details": "See {IERC165-supportsInterface}."
      }
    },
    "notice": "Stores list of addresses with referral partners",
    "stateVariables": {
      "referralPartners": {
        "details": "List of allowed referral partners addresses"
      }
    },
    "title": "Registry of allowed referral partners",
    "version": 1
  },
  "opcodes": "PUSH1 0x80 PUSH1 0x40 MSTORE CALLVALUE DUP1 ISZERO PUSH2 0x10 JUMPI PUSH1 0x0 DUP1 REVERT JUMPDEST POP PUSH1 0x4 CALLDATASIZE LT PUSH2 0xEA JUMPI PUSH1 0x0 CALLDATALOAD PUSH1 0xE0 SHR DUP1 PUSH4 0x6057A773 GT PUSH2 0x8C JUMPI DUP1 PUSH4 0xA217FDDF GT PUSH2 0x66 JUMPI DUP1 PUSH4 0xA217FDDF EQ PUSH2 0x222 JUMPI DUP1 PUSH4 0xD547741F EQ PUSH2 0x22A JUMPI DUP1 PUSH4 0xE1248BAA EQ PUSH2 0x23D JUMPI DUP1 PUSH4 0xFFA10FE3 EQ PUSH2 0x268 JUMPI PUSH1 0x0 DUP1 REVERT JUMPDEST DUP1 PUSH4 0x6057A773 EQ PUSH2 0x1BD JUMPI DUP1 PUSH4 0x8F575EA1 EQ PUSH2 0x1E8 JUMPI DUP1 PUSH4 0x91D14854 EQ PUSH2 0x20F JUMPI PUSH1 0x0 DUP1 REVERT JUMPDEST DUP1 PUSH4 0x2F2FF15D GT PUSH2 0xC8 JUMPI DUP1 PUSH4 0x2F2FF15D EQ PUSH2 0x15D JUMPI DUP1 PUSH4 0x325E8D87 EQ PUSH2 0x170 JUMPI DUP1 PUSH4 0x36568ABE EQ PUSH2 0x197 JUMPI DUP1 PUSH4 0x3D0DAF19 EQ PUSH2 0x1AA JUMPI PUSH1 0x0 DUP1 REVERT JUMPDEST DUP1 PUSH4 0x1FFC9A7 EQ PUSH2 0xEF JUMPI DUP1 PUSH4 0x3B94C66 EQ PUSH2 0x117 JUMPI DUP1 PUSH4 0x248A9CA3 EQ PUSH2 0x12C JUMPI JUMPDEST PUSH1 0x0 DUP1 REVERT JUMPDEST PUSH2 0x102 PUSH2 0xFD CALLDATASIZE PUSH1 0x4 PUSH2 0xB81 JUMP JUMPDEST PUSH2 0x27D JUMP JUMPDEST PUSH1 0x40 MLOAD SWAP1 ISZERO ISZERO DUP2 MSTORE PUSH1 0x20 ADD JUMPDEST PUSH1 0x40 MLOAD DUP1 SWAP2 SUB SWAP1 RETURN JUMPDEST PUSH2 0x12A PUSH2 0x125 CALLDATASIZE PUSH1 0x4 PUSH2 0xA7A JUMP JUMPDEST PUSH2 0x2B4 JUMP JUMPDEST STOP JUMPDEST PUSH2 0x14F PUSH2 0x13A CALLDATASIZE PUSH1 0x4 PUSH2 0xB3C JUMP JUMPDEST PUSH1 0x0 SWAP1 DUP2 MSTORE PUSH1 0x20 DUP2 SWAP1 MSTORE PUSH1 0x40 SWAP1 KECCAK256 PUSH1 0x1 ADD SLOAD SWAP1 JUMP JUMPDEST PUSH1 0x40 MLOAD SWAP1 DUP2 MSTORE PUSH1 0x20 ADD PUSH2 0x10E JUMP JUMPDEST PUSH2 0x12A PUSH2 0x16B CALLDATASIZE PUSH1 0x4 PUSH2 0xB55 JUMP JUMPDEST PUSH2 0x3F0 JUMP JUMPDEST PUSH2 0x14F PUSH32 0xC1ABD43F2E36DC67D310C16062E4938B5BA1FE4402C1ABDEC6B97F948F73CA63 DUP2 JUMP JUMPDEST PUSH2 0x12A PUSH2 0x1A5 CALLDATASIZE PUSH1 0x4 PUSH2 0xB55 JUMP JUMPDEST PUSH2 0x41B JUMP JUMPDEST PUSH2 0x12A PUSH2 0x1B8 CALLDATASIZE PUSH1 0x4 PUSH2 0xA5F JUMP JUMPDEST PUSH2 0x499 JUMP JUMPDEST PUSH2 0x1D0 PUSH2 0x1CB CALLDATASIZE PUSH1 0x4 PUSH2 0xB3C JUMP JUMPDEST PUSH2 0x5FC JUMP JUMPDEST PUSH1 0x40 MLOAD PUSH1 0x1 PUSH1 0x1 PUSH1 0xA0 SHL SUB SWAP1 SWAP2 AND DUP2 MSTORE PUSH1 0x20 ADD PUSH2 0x10E JUMP JUMPDEST PUSH2 0x14F PUSH32 0x7008CC5A90AAF80C912CA059D454C206ECC9421C9CE3CCBACA3B6EB06621BDB4 DUP2 JUMP JUMPDEST PUSH2 0x102 PUSH2 0x21D CALLDATASIZE PUSH1 0x4 PUSH2 0xB55 JUMP JUMPDEST PUSH2 0x626 JUMP JUMPDEST PUSH2 0x14F PUSH1 0x0 DUP2 JUMP JUMPDEST PUSH2 0x12A PUSH2 0x238 CALLDATASIZE PUSH1 0x4 PUSH2 0xB55 JUMP JUMPDEST PUSH2 0x64F JUMP JUMPDEST PUSH2 0x102 PUSH2 0x24B CALLDATASIZE PUSH1 0x4 PUSH2 0xA5F JUMP JUMPDEST PUSH1 0x1 PUSH1 0x1 PUSH1 0xA0 SHL SUB AND PUSH1 0x0 SWAP1 DUP2 MSTORE PUSH1 0x2 PUSH1 0x20 MSTORE PUSH1 0x40 SWAP1 KECCAK256 SLOAD ISZERO ISZERO SWAP1 JUMP JUMPDEST PUSH2 0x270 PUSH2 0x675 JUMP JUMPDEST PUSH1 0x40 MLOAD PUSH2 0x10E SWAP2 SWAP1 PUSH2 0xC20 JUMP JUMPDEST PUSH1 0x0 PUSH1 0x1 PUSH1 0x1 PUSH1 0xE0 SHL SUB NOT DUP3 AND PUSH4 0x7965DB0B PUSH1 0xE0 SHL EQ DUP1 PUSH2 0x2AE JUMPI POP PUSH4 0x1FFC9A7 PUSH1 0xE0 SHL PUSH1 0x1 PUSH1 0x1 PUSH1 0xE0 SHL SUB NOT DUP4 AND EQ JUMPDEST SWAP3 SWAP2 POP POP JUMP JUMPDEST PUSH32 0xC1ABD43F2E36DC67D310C16062E4938B5BA1FE4402C1ABDEC6B97F948F73CA63 PUSH2 0x2DF DUP2 CALLER PUSH2 0x6D7 JUMP JUMPDEST PUSH1 0x1 PUSH1 0x1 PUSH1 0xA0 SHL SUB DUP4 AND PUSH1 0x0 SWAP1 DUP2 MSTORE PUSH1 0x2 PUSH1 0x20 SWAP1 DUP2 MSTORE PUSH1 0x40 SWAP2 DUP3 SWAP1 KECCAK256 SLOAD DUP3 MLOAD DUP1 DUP5 ADD SWAP1 SWAP4 MSTORE PUSH1 0x1E DUP4 MSTORE PUSH32 0x524546455252414C5F504152544E45525F414C52454144595F41444445440000 SWAP2 DUP4 ADD SWAP2 SWAP1 SWAP2 MSTORE ISZERO PUSH2 0x357 JUMPI PUSH1 0x40 MLOAD PUSH3 0x461BCD PUSH1 0xE5 SHL DUP2 MSTORE PUSH1 0x4 ADD PUSH2 0x34E SWAP2 SWAP1 PUSH2 0xC6D JUMP JUMPDEST PUSH1 0x40 MLOAD DUP1 SWAP2 SUB SWAP1 REVERT JUMPDEST POP PUSH1 0x1 DUP1 SLOAD DUP1 DUP3 ADD DUP3 SSTORE PUSH32 0xB10E2D527612073B26EECDFD717E6A320CF44B4AFAC2B0732D9FCBE2B7FA0CF6 ADD DUP1 SLOAD PUSH1 0x1 PUSH1 0x1 PUSH1 0xA0 SHL SUB NOT AND PUSH1 0x1 PUSH1 0x1 PUSH1 0xA0 SHL SUB DUP7 AND SWAP1 DUP2 OR SWAP1 SWAP2 SSTORE SWAP1 SLOAD PUSH1 0x0 DUP3 DUP2 MSTORE PUSH1 0x2 PUSH1 0x20 MSTORE PUSH1 0x40 SWAP1 DUP2 SWAP1 KECCAK256 SWAP2 SWAP1 SWAP2 SSTORE MLOAD PUSH32 0x90D96DDDE868EEC6A07567F484E97FA3DE746A2D8DA09FEFB8913CF514016FB1 SWAP1 PUSH2 0x3E3 SWAP1 DUP6 SWAP1 PUSH2 0xC6D JUMP JUMPDEST PUSH1 0x40 MLOAD DUP1 SWAP2 SUB SWAP1 LOG2 POP POP POP JUMP JUMPDEST PUSH1 0x0 DUP3 DUP2 MSTORE PUSH1 0x20 DUP2 SWAP1 MSTORE PUSH1 0x40 SWAP1 KECCAK256 PUSH1 0x1 ADD SLOAD PUSH2 0x40C DUP2 CALLER PUSH2 0x6D7 JUMP JUMPDEST PUSH2 0x416 DUP4 DUP4 PUSH2 0x73B JUMP JUMPDEST POP POP POP JUMP JUMPDEST PUSH1 0x1 PUSH1 0x1 PUSH1 0xA0 SHL SUB DUP2 AND CALLER EQ PUSH2 0x48B JUMPI PUSH1 0x40 MLOAD PUSH3 0x461BCD PUSH1 0xE5 SHL DUP2 MSTORE PUSH1 0x20 PUSH1 0x4 DUP3 ADD MSTORE PUSH1 0x2F PUSH1 0x24 DUP3 ADD MSTORE PUSH32 0x416363657373436F6E74726F6C3A2063616E206F6E6C792072656E6F756E6365 PUSH1 0x44 DUP3 ADD MSTORE PUSH15 0x103937B632B9903337B91039B2B633 PUSH1 0x89 SHL PUSH1 0x64 DUP3 ADD MSTORE PUSH1 0x84 ADD PUSH2 0x34E JUMP JUMPDEST PUSH2 0x495 DUP3 DUP3 PUSH2 0x7BF JUMP JUMPDEST POP POP JUMP JUMPDEST PUSH32 0x7008CC5A90AAF80C912CA059D454C206ECC9421C9CE3CCBACA3B6EB06621BDB4 PUSH2 0x4C4 DUP2 CALLER PUSH2 0x6D7 JUMP JUMPDEST PUSH1 0x0 PUSH2 0x4CF DUP4 PUSH2 0x824 JUMP JUMPDEST PUSH1 0x1 DUP1 SLOAD SWAP2 SWAP3 POP PUSH1 0x0 SWAP2 PUSH2 0x4E3 SWAP2 SWAP1 PUSH2 0xCD7 JUMP JUMPDEST SWAP1 POP DUP1 DUP3 EQ PUSH2 0x57F JUMPI PUSH1 0x0 PUSH1 0x1 DUP3 DUP2 SLOAD DUP2 LT PUSH2 0x501 JUMPI PUSH2 0x501 PUSH2 0xD61 JUMP JUMPDEST PUSH1 0x0 SWAP2 DUP3 MSTORE PUSH1 0x20 SWAP1 SWAP2 KECCAK256 ADD SLOAD PUSH1 0x1 DUP1 SLOAD PUSH1 0x1 PUSH1 0x1 PUSH1 0xA0 SHL SUB SWAP1 SWAP3 AND SWAP3 POP DUP3 SWAP2 DUP6 SWAP1 DUP2 LT PUSH2 0x530 JUMPI PUSH2 0x530 PUSH2 0xD61 JUMP JUMPDEST PUSH1 0x0 SWAP2 DUP3 MSTORE PUSH1 0x20 SWAP1 SWAP2 KECCAK256 ADD DUP1 SLOAD PUSH1 0x1 PUSH1 0x1 PUSH1 0xA0 SHL SUB NOT AND PUSH1 0x1 PUSH1 0x1 PUSH1 0xA0 SHL SUB SWAP3 SWAP1 SWAP3 AND SWAP2 SWAP1 SWAP2 OR SWAP1 SSTORE PUSH2 0x564 DUP4 PUSH1 0x1 PUSH2 0xCA0 JUMP JUMPDEST PUSH1 0x1 PUSH1 0x1 PUSH1 0xA0 SHL SUB SWAP1 SWAP2 AND PUSH1 0x0 SWAP1 DUP2 MSTORE PUSH1 0x2 PUSH1 0x20 MSTORE PUSH1 0x40 SWAP1 KECCAK256 SSTORE JUMPDEST PUSH1 0x1 DUP1 SLOAD DUP1 PUSH2 0x590 JUMPI PUSH2 0x590 PUSH2 0xD4B JUMP JUMPDEST PUSH1 0x0 DUP3 DUP2 MSTORE PUSH1 0x20 DUP1 DUP3 KECCAK256 DUP4 ADD PUSH1 0x0 NOT SWAP1 DUP2 ADD DUP1 SLOAD PUSH1 0x1 PUSH1 0x1 PUSH1 0xA0 SHL SUB NOT AND SWAP1 SSTORE SWAP1 SWAP3 ADD SWAP1 SWAP3 SSTORE PUSH1 0x1 PUSH1 0x1 PUSH1 0xA0 SHL SUB DUP7 AND DUP1 DUP4 MSTORE PUSH1 0x2 SWAP1 SWAP2 MSTORE PUSH1 0x40 DUP1 DUP4 KECCAK256 DUP4 SWAP1 SSTORE MLOAD SWAP1 SWAP2 PUSH32 0xA05E18A4381752A83B38784B84C221F84BDD522ECBCA76B505B854D145773B8 SWAP2 LOG2 POP POP POP POP JUMP JUMPDEST PUSH1 0x1 DUP2 DUP2 SLOAD DUP2 LT PUSH2 0x60C JUMPI PUSH1 0x0 DUP1 REVERT JUMPDEST PUSH1 0x0 SWAP2 DUP3 MSTORE PUSH1 0x20 SWAP1 SWAP2 KECCAK256 ADD SLOAD PUSH1 0x1 PUSH1 0x1 PUSH1 0xA0 SHL SUB AND SWAP1 POP DUP2 JUMP JUMPDEST PUSH1 0x0 SWAP2 DUP3 MSTORE PUSH1 0x20 DUP3 DUP2 MSTORE PUSH1 0x40 DUP1 DUP5 KECCAK256 PUSH1 0x1 PUSH1 0x1 PUSH1 0xA0 SHL SUB SWAP4 SWAP1 SWAP4 AND DUP5 MSTORE SWAP2 SWAP1 MSTORE SWAP1 KECCAK256 SLOAD PUSH1 0xFF AND SWAP1 JUMP JUMPDEST PUSH1 0x0 DUP3 DUP2 MSTORE PUSH1 0x20 DUP2 SWAP1 MSTORE PUSH1 0x40 SWAP1 KECCAK256 PUSH1 0x1 ADD SLOAD PUSH2 0x66B DUP2 CALLER PUSH2 0x6D7 JUMP JUMPDEST PUSH2 0x416 DUP4 DUP4 PUSH2 0x7BF JUMP JUMPDEST PUSH1 0x60 PUSH1 0x1 DUP1 SLOAD DUP1 PUSH1 0x20 MUL PUSH1 0x20 ADD PUSH1 0x40 MLOAD SWAP1 DUP2 ADD PUSH1 0x40 MSTORE DUP1 SWAP3 SWAP2 SWAP1 DUP2 DUP2 MSTORE PUSH1 0x20 ADD DUP3 DUP1 SLOAD DUP1 ISZERO PUSH2 0x6CD JUMPI PUSH1 0x20 MUL DUP3 ADD SWAP2 SWAP1 PUSH1 0x0 MSTORE PUSH1 0x20 PUSH1 0x0 KECCAK256 SWAP1 JUMPDEST DUP2 SLOAD PUSH1 0x1 PUSH1 0x1 PUSH1 0xA0 SHL SUB AND DUP2 MSTORE PUSH1 0x1 SWAP1 SWAP2 ADD SWAP1 PUSH1 0x20 ADD DUP1 DUP4 GT PUSH2 0x6AF JUMPI JUMPDEST POP POP POP POP POP SWAP1 POP SWAP1 JUMP JUMPDEST PUSH2 0x6E1 DUP3 DUP3 PUSH2 0x626 JUMP JUMPDEST PUSH2 0x495 JUMPI PUSH2 0x6F9 DUP2 PUSH1 0x1 PUSH1 0x1 PUSH1 0xA0 SHL SUB AND PUSH1 0x14 PUSH2 0x8A0 JUMP JUMPDEST PUSH2 0x704 DUP4 PUSH1 0x20 PUSH2 0x8A0 JUMP JUMPDEST PUSH1 0x40 MLOAD PUSH1 0x20 ADD PUSH2 0x715 SWAP3 SWAP2 SWAP1 PUSH2 0xBAB JUMP JUMPDEST PUSH1 0x40 DUP1 MLOAD PUSH1 0x1F NOT DUP2 DUP5 SUB ADD DUP2 MSTORE SWAP1 DUP3 SWAP1 MSTORE PUSH3 0x461BCD PUSH1 0xE5 SHL DUP3 MSTORE PUSH2 0x34E SWAP2 PUSH1 0x4 ADD PUSH2 0xC6D JUMP JUMPDEST PUSH2 0x745 DUP3 DUP3 PUSH2 0x626 JUMP JUMPDEST PUSH2 0x495 JUMPI PUSH1 0x0 DUP3 DUP2 MSTORE PUSH1 0x20 DUP2 DUP2 MSTORE PUSH1 0x40 DUP1 DUP4 KECCAK256 PUSH1 0x1 PUSH1 0x1 PUSH1 0xA0 SHL SUB DUP6 AND DUP5 MSTORE SWAP1 SWAP2 MSTORE SWAP1 KECCAK256 DUP1 SLOAD PUSH1 0xFF NOT AND PUSH1 0x1 OR SWAP1 SSTORE PUSH2 0x77B CALLER SWAP1 JUMP JUMPDEST PUSH1 0x1 PUSH1 0x1 PUSH1 0xA0 SHL SUB AND DUP2 PUSH1 0x1 PUSH1 0x1 PUSH1 0xA0 SHL SUB AND DUP4 PUSH32 0x2F8788117E7EFF1D82E926EC794901D17C78024A50270940304540A733656F0D PUSH1 0x40 MLOAD PUSH1 0x40 MLOAD DUP1 SWAP2 SUB SWAP1 LOG4 POP POP JUMP JUMPDEST PUSH2 0x7C9 DUP3 DUP3 PUSH2 0x626 JUMP JUMPDEST ISZERO PUSH2 0x495 JUMPI PUSH1 0x0 DUP3 DUP2 MSTORE PUSH1 0x20 DUP2 DUP2 MSTORE PUSH1 0x40 DUP1 DUP4 KECCAK256 PUSH1 0x1 PUSH1 0x1 PUSH1 0xA0 SHL SUB DUP6 AND DUP1 DUP6 MSTORE SWAP3 MSTORE DUP1 DUP4 KECCAK256 DUP1 SLOAD PUSH1 0xFF NOT AND SWAP1 SSTORE MLOAD CALLER SWAP3 DUP6 SWAP2 PUSH32 0xF6391F5C32D9C69D2A47EA670B442974B53935D1EDC7FD64EB21E047A839171B SWAP2 SWAP1 LOG4 POP POP JUMP JUMPDEST PUSH1 0x1 PUSH1 0x1 PUSH1 0xA0 SHL SUB DUP2 AND PUSH1 0x0 SWAP1 DUP2 MSTORE PUSH1 0x2 PUSH1 0x20 SWAP1 DUP2 MSTORE PUSH1 0x40 SWAP2 DUP3 SWAP1 KECCAK256 SLOAD DUP3 MLOAD DUP1 DUP5 ADD SWAP1 SWAP4 MSTORE PUSH1 0x1A DUP4 MSTORE PUSH32 0x524546455252414C5F504152544E45525F4E4F545F464F554E44000000000000 SWAP2 DUP4 ADD SWAP2 SWAP1 SWAP2 MSTORE SWAP1 DUP2 PUSH2 0x894 JUMPI PUSH1 0x40 MLOAD PUSH3 0x461BCD PUSH1 0xE5 SHL DUP2 MSTORE PUSH1 0x4 ADD PUSH2 0x34E SWAP2 SWAP1 PUSH2 0xC6D JUMP JUMPDEST POP PUSH2 0x2AE PUSH1 0x1 DUP3 PUSH2 0xCD7 JUMP JUMPDEST PUSH1 0x60 PUSH1 0x0 PUSH2 0x8AF DUP4 PUSH1 0x2 PUSH2 0xCB8 JUMP JUMPDEST PUSH2 0x8BA SWAP1 PUSH1 0x2 PUSH2 0xCA0 JUMP JUMPDEST PUSH8 0xFFFFFFFFFFFFFFFF DUP2 GT ISZERO PUSH2 0x8D2 JUMPI PUSH2 0x8D2 PUSH2 0xD77 JUMP JUMPDEST PUSH1 0x40 MLOAD SWAP1 DUP1 DUP3 MSTORE DUP1 PUSH1 0x1F ADD PUSH1 0x1F NOT AND PUSH1 0x20 ADD DUP3 ADD PUSH1 0x40 MSTORE DUP1 ISZERO PUSH2 0x8FC JUMPI PUSH1 0x20 DUP3 ADD DUP2 DUP1 CALLDATASIZE DUP4 CALLDATACOPY ADD SWAP1 POP JUMPDEST POP SWAP1 POP PUSH1 0x3 PUSH1 0xFC SHL DUP2 PUSH1 0x0 DUP2 MLOAD DUP2 LT PUSH2 0x917 JUMPI PUSH2 0x917 PUSH2 0xD61 JUMP JUMPDEST PUSH1 0x20 ADD ADD SWAP1 PUSH1 0x1 PUSH1 0x1 PUSH1 0xF8 SHL SUB NOT AND SWAP1 DUP2 PUSH1 0x0 BYTE SWAP1 MSTORE8 POP PUSH1 0xF PUSH1 0xFB SHL DUP2 PUSH1 0x1 DUP2 MLOAD DUP2 LT PUSH2 0x946 JUMPI PUSH2 0x946 PUSH2 0xD61 JUMP JUMPDEST PUSH1 0x20 ADD ADD SWAP1 PUSH1 0x1 PUSH1 0x1 PUSH1 0xF8 SHL SUB NOT AND SWAP1 DUP2 PUSH1 0x0 BYTE SWAP1 MSTORE8 POP PUSH1 0x0 PUSH2 0x96A DUP5 PUSH1 0x2 PUSH2 0xCB8 JUMP JUMPDEST PUSH2 0x975 SWAP1 PUSH1 0x1 PUSH2 0xCA0 JUMP JUMPDEST SWAP1 POP JUMPDEST PUSH1 0x1 DUP2 GT ISZERO PUSH2 0x9ED JUMPI PUSH16 0x181899199A1A9B1B9C1CB0B131B232B3 PUSH1 0x81 SHL DUP6 PUSH1 0xF AND PUSH1 0x10 DUP2 LT PUSH2 0x9A9 JUMPI PUSH2 0x9A9 PUSH2 0xD61 JUMP JUMPDEST BYTE PUSH1 0xF8 SHL DUP3 DUP3 DUP2 MLOAD DUP2 LT PUSH2 0x9BF JUMPI PUSH2 0x9BF PUSH2 0xD61 JUMP JUMPDEST PUSH1 0x20 ADD ADD SWAP1 PUSH1 0x1 PUSH1 0x1 PUSH1 0xF8 SHL SUB NOT AND SWAP1 DUP2 PUSH1 0x0 BYTE SWAP1 MSTORE8 POP PUSH1 0x4 SWAP5 SWAP1 SWAP5 SHR SWAP4 PUSH2 0x9E6 DUP2 PUSH2 0xD1E JUMP JUMPDEST SWAP1 POP PUSH2 0x978 JUMP JUMPDEST POP DUP4 ISZERO PUSH2 0xA3C JUMPI PUSH1 0x40 MLOAD PUSH3 0x461BCD PUSH1 0xE5 SHL DUP2 MSTORE PUSH1 0x20 PUSH1 0x4 DUP3 ADD DUP2 SWAP1 MSTORE PUSH1 0x24 DUP3 ADD MSTORE PUSH32 0x537472696E67733A20686578206C656E67746820696E73756666696369656E74 PUSH1 0x44 DUP3 ADD MSTORE PUSH1 0x64 ADD PUSH2 0x34E JUMP JUMPDEST SWAP4 SWAP3 POP POP POP JUMP JUMPDEST DUP1 CALLDATALOAD PUSH1 0x1 PUSH1 0x1 PUSH1 0xA0 SHL SUB DUP2 AND DUP2 EQ PUSH2 0xA5A JUMPI PUSH1 0x0 DUP1 REVERT JUMPDEST SWAP2 SWAP1 POP JUMP JUMPDEST PUSH1 0x0 PUSH1 0x20 DUP3 DUP5 SUB SLT ISZERO PUSH2 0xA71 JUMPI PUSH1 0x0 DUP1 REVERT JUMPDEST PUSH2 0xA3C DUP3 PUSH2 0xA43 JUMP JUMPDEST PUSH1 0x0 DUP1 PUSH1 0x40 DUP4 DUP6 SUB SLT ISZERO PUSH2 0xA8D JUMPI PUSH1 0x0 DUP1 REVERT JUMPDEST PUSH2 0xA96 DUP4 PUSH2 0xA43 JUMP JUMPDEST SWAP2 POP PUSH1 0x20 DUP4 ADD CALLDATALOAD PUSH8 0xFFFFFFFFFFFFFFFF DUP1 DUP3 GT ISZERO PUSH2 0xAB3 JUMPI PUSH1 0x0 DUP1 REVERT JUMPDEST DUP2 DUP6 ADD SWAP2 POP DUP6 PUSH1 0x1F DUP4 ADD SLT PUSH2 0xAC7 JUMPI PUSH1 0x0 DUP1 REVERT JUMPDEST DUP2 CALLDATALOAD DUP2 DUP2 GT ISZERO PUSH2 0xAD9 JUMPI PUSH2 0xAD9 PUSH2 0xD77 JUMP JUMPDEST PUSH1 0x40 MLOAD PUSH1 0x1F DUP3 ADD PUSH1 0x1F NOT SWAP1 DUP2 AND PUSH1 0x3F ADD AND DUP2 ADD SWAP1 DUP4 DUP3 GT DUP2 DUP4 LT OR ISZERO PUSH2 0xB01 JUMPI PUSH2 0xB01 PUSH2 0xD77 JUMP JUMPDEST DUP2 PUSH1 0x40 MSTORE DUP3 DUP2 MSTORE DUP9 PUSH1 0x20 DUP5 DUP8 ADD ADD GT ISZERO PUSH2 0xB1A JUMPI PUSH1 0x0 DUP1 REVERT JUMPDEST DUP3 PUSH1 0x20 DUP7 ADD PUSH1 0x20 DUP4 ADD CALLDATACOPY PUSH1 0x0 PUSH1 0x20 DUP5 DUP4 ADD ADD MSTORE DUP1 SWAP6 POP POP POP POP POP POP SWAP3 POP SWAP3 SWAP1 POP JUMP JUMPDEST PUSH1 0x0 PUSH1 0x20 DUP3 DUP5 SUB SLT ISZERO PUSH2 0xB4E JUMPI PUSH1 0x0 DUP1 REVERT JUMPDEST POP CALLDATALOAD SWAP2 SWAP1 POP JUMP JUMPDEST PUSH1 0x0 DUP1 PUSH1 0x40 DUP4 DUP6 SUB SLT ISZERO PUSH2 0xB68 JUMPI PUSH1 0x0 DUP1 REVERT JUMPDEST DUP3 CALLDATALOAD SWAP2 POP PUSH2 0xB78 PUSH1 0x20 DUP5 ADD PUSH2 0xA43 JUMP JUMPDEST SWAP1 POP SWAP3 POP SWAP3 SWAP1 POP JUMP JUMPDEST PUSH1 0x0 PUSH1 0x20 DUP3 DUP5 SUB SLT ISZERO PUSH2 0xB93 JUMPI PUSH1 0x0 DUP1 REVERT JUMPDEST DUP2 CALLDATALOAD PUSH1 0x1 PUSH1 0x1 PUSH1 0xE0 SHL SUB NOT DUP2 AND DUP2 EQ PUSH2 0xA3C JUMPI PUSH1 0x0 DUP1 REVERT JUMPDEST PUSH32 0x416363657373436F6E74726F6C3A206163636F756E7420000000000000000000 DUP2 MSTORE PUSH1 0x0 DUP4 MLOAD PUSH2 0xBE3 DUP2 PUSH1 0x17 DUP6 ADD PUSH1 0x20 DUP9 ADD PUSH2 0xCEE JUMP JUMPDEST PUSH17 0x1034B99036B4B9B9B4B733903937B6329 PUSH1 0x7D SHL PUSH1 0x17 SWAP2 DUP5 ADD SWAP2 DUP3 ADD MSTORE DUP4 MLOAD PUSH2 0xC14 DUP2 PUSH1 0x28 DUP5 ADD PUSH1 0x20 DUP9 ADD PUSH2 0xCEE JUMP JUMPDEST ADD PUSH1 0x28 ADD SWAP5 SWAP4 POP POP POP POP JUMP JUMPDEST PUSH1 0x20 DUP1 DUP3 MSTORE DUP3 MLOAD DUP3 DUP3 ADD DUP2 SWAP1 MSTORE PUSH1 0x0 SWAP2 SWAP1 DUP5 DUP3 ADD SWAP1 PUSH1 0x40 DUP6 ADD SWAP1 DUP5 JUMPDEST DUP2 DUP2 LT ISZERO PUSH2 0xC61 JUMPI DUP4 MLOAD PUSH1 0x1 PUSH1 0x1 PUSH1 0xA0 SHL SUB AND DUP4 MSTORE SWAP3 DUP5 ADD SWAP3 SWAP2 DUP5 ADD SWAP2 PUSH1 0x1 ADD PUSH2 0xC3C JUMP JUMPDEST POP SWAP1 SWAP7 SWAP6 POP POP POP POP POP POP JUMP JUMPDEST PUSH1 0x20 DUP2 MSTORE PUSH1 0x0 DUP3 MLOAD DUP1 PUSH1 0x20 DUP5 ADD MSTORE PUSH2 0xC8C DUP2 PUSH1 0x40 DUP6 ADD PUSH1 0x20 DUP8 ADD PUSH2 0xCEE JUMP JUMPDEST PUSH1 0x1F ADD PUSH1 0x1F NOT AND SWAP2 SWAP1 SWAP2 ADD PUSH1 0x40 ADD SWAP3 SWAP2 POP POP JUMP JUMPDEST PUSH1 0x0 DUP3 NOT DUP3 GT ISZERO PUSH2 0xCB3 JUMPI PUSH2 0xCB3 PUSH2 0xD35 JUMP JUMPDEST POP ADD SWAP1 JUMP JUMPDEST PUSH1 0x0 DUP2 PUSH1 0x0 NOT DIV DUP4 GT DUP3 ISZERO ISZERO AND ISZERO PUSH2 0xCD2 JUMPI PUSH2 0xCD2 PUSH2 0xD35 JUMP JUMPDEST POP MUL SWAP1 JUMP JUMPDEST PUSH1 0x0 DUP3 DUP3 LT ISZERO PUSH2 0xCE9 JUMPI PUSH2 0xCE9 PUSH2 0xD35 JUMP JUMPDEST POP SUB SWAP1 JUMP JUMPDEST PUSH1 0x0 JUMPDEST DUP4 DUP2 LT ISZERO PUSH2 0xD09 JUMPI DUP2 DUP2 ADD MLOAD DUP4 DUP3 ADD MSTORE PUSH1 0x20 ADD PUSH2 0xCF1 JUMP JUMPDEST DUP4 DUP2 GT ISZERO PUSH2 0xD18 JUMPI PUSH1 0x0 DUP5 DUP5 ADD MSTORE JUMPDEST POP POP POP POP JUMP JUMPDEST PUSH1 0x0 DUP2 PUSH2 0xD2D JUMPI PUSH2 0xD2D PUSH2 0xD35 JUMP JUMPDEST POP PUSH1 0x0 NOT ADD SWAP1 JUMP JUMPDEST PUSH4 0x4E487B71 PUSH1 0xE0 SHL PUSH1 0x0 MSTORE PUSH1 0x11 PUSH1 0x4 MSTORE PUSH1 0x24 PUSH1 0x0 REVERT JUMPDEST PUSH4 0x4E487B71 PUSH1 0xE0 SHL PUSH1 0x0 MSTORE PUSH1 0x31 PUSH1 0x4 MSTORE PUSH1 0x24 PUSH1 0x0 REVERT JUMPDEST PUSH4 0x4E487B71 PUSH1 0xE0 SHL PUSH1 0x0 MSTORE PUSH1 0x32 PUSH1 0x4 MSTORE PUSH1 0x24 PUSH1 0x0 REVERT JUMPDEST PUSH4 0x4E487B71 PUSH1 0xE0 SHL PUSH1 0x0 MSTORE PUSH1 0x41 PUSH1 0x4 MSTORE PUSH1 0x24 PUSH1 0x0 REVERT INVALID LOG2 PUSH5 0x6970667358 0x22 SLT KECCAK256 0xD5 CALLVALUE 0xF7 0xCA CODESIZE PUSH23 0xC93751B694F1D776AA469F4FC54E5FBE454676FB6CDC63 GT JUMPI 0x1F PUSH5 0x736F6C6343 STOP ADDMOD MOD STOP CALLER ",
  "sha1": "de9d32bfd6411a9015b7fa4d78fe14e3f44253ac",
  "source": "// SPDX-FileCopyrightText: 2022 Lido <info@lido.fi>\n// SPDX-License-Identifier: GPL-3.0\n\npragma solidity ^0.8.4;\n\nimport \"OpenZeppelin/openzeppelin-contracts@4.3.2/contracts/access/AccessControl.sol\";\n\n/// @author psirex, dzhon\n/// @title Registry of allowed referral partners\n/// @notice Stores list of addresses with referral partners\ncontract ReferralPartnersRegistry is AccessControl {\n    // -------------\n    // EVENTS\n    // -------------\n    event ReferralPartnerAdded(address indexed _referralPartner, string _title);\n    event ReferralPartnerRemoved(address indexed _referralPartner);\n\n    // -------------\n    // ROLES\n    // -------------\n    bytes32 public constant ADD_REFERRAL_PARTNER_ROLE = keccak256(\"ADD_REFERRAL_PARTNER_ROLE\");\n    bytes32 public constant REMOVE_REFERRAL_PARTNER_ROLE = keccak256(\"REMOVE_REFERRAL_PARTNER_ROLE\");\n\n    // -------------\n    // ERRORS\n    // -------------\n    string private constant ERROR_REFERRAL_PARTNER_ALREADY_ADDED = \"REFERRAL_PARTNER_ALREADY_ADDED\";\n    string private constant ERROR_REFERRAL_PARTNER_NOT_FOUND = \"REFERRAL_PARTNER_NOT_FOUND\";\n\n    // -------------\n    // VARIABLES\n    // -------------\n\n    /// @dev List of allowed referral partners addresses\n    address[] public referralPartners;\n\n    // Position of the referral partners in the `referralPartners` array,\n    // plus 1 because index 0 means a value is not in the set.\n    mapping(address => uint256) private referralPartnersIndices;\n\n    // -------------\n    // CONSTRUCTOR\n    // -------------\n\n    /// @param _admin Address which will be granted with role DEFAULT_ADMIN_ROLE\n    /// @param _addReferralPartnerRoleHolders List of addresses which will be\n    ///     granted with role ADD_REFERRAL_PARTNER_ROLE\n    /// @param _removeReferralPartnerRoleHolders List of addresses which will\n    ///     be granted with role REMOVE_REFERRAL_PARTNER_ROLE\n    constructor(\n        address _admin,\n        address[] memory _addReferralPartnerRoleHolders,\n        address[] memory _removeReferralPartnerRoleHolders\n    ) {\n        _setupRole(DEFAULT_ADMIN_ROLE, _admin);\n        for (uint256 i = 0; i < _addReferralPartnerRoleHolders.length; i++) {\n            _setupRole(ADD_REFERRAL_PARTNER_ROLE, _addReferralPartnerRoleHolders[i]);\n        }\n        for (uint256 i = 0; i < _removeReferralPartnerRoleHolders.length; i++) {\n            _setupRole(REMOVE_REFERRAL_PARTNER_ROLE, _removeReferralPartnerRoleHolders[i]);\n        }\n    }\n\n    // -------------\n    // EXTERNAL METHODS\n    // -------------\n\n    /// @notice Adds address to list of allowed referral partners\n    function addReferralPartner(address _referralPartner, string memory _title)\n        external\n        onlyRole(ADD_REFERRAL_PARTNER_ROLE)\n    {\n        require(referralPartnersIndices[_referralPartner] == 0, ERROR_REFERRAL_PARTNER_ALREADY_ADDED);\n\n        referralPartners.push(_referralPartner);\n        referralPartnersIndices[_referralPartner] = referralPartners.length;\n        emit ReferralPartnerAdded(_referralPartner, _title);\n    }\n\n    /// @notice Removes address from list of allowed referral partners\n    /// @dev To delete a referral partner from the referralPartners array in O(1), we swap the element to delete with the last one in\n    /// the array, and then remove the last element (sometimes called as 'swap and pop').\n    function removeReferralPartner(address _referralPartner)\n        external\n        onlyRole(REMOVE_REFERRAL_PARTNER_ROLE)\n    {\n        uint256 index = _getReferralPartnerIndex(_referralPartner);\n        uint256 lastIndex = referralPartners.length - 1;\n\n        if (index != lastIndex) {\n            address lastReferralPartner = referralPartners[lastIndex];\n            referralPartners[index] = lastReferralPartner;\n            referralPartnersIndices[lastReferralPartner] = index + 1;\n        }\n\n        referralPartners.pop();\n        delete referralPartnersIndices[_referralPartner];\n        emit ReferralPartnerRemoved(_referralPartner);\n    }\n\n    /// @notice Returns if passed address are listed as referral partner in the registry\n    function isReferralPartner(address _maybeReferralPartner) external view returns (bool) {\n        return referralPartnersIndices[_maybeReferralPartner] > 0;\n    }\n\n    /// @notice Returns current list of referral partners\n    function getReferralPartners() external view returns (address[] memory) {\n        return referralPartners;\n    }\n\n    // ------------------\n    // PRIVATE METHODS\n    // ------------------\n\n    function _getReferralPartnerIndex(address _evmScriptFactory)\n        private\n        view\n        returns (uint256 _index)\n    {\n        _index = referralPartnersIndices[_evmScriptFactory];\n        require(_index > 0, ERROR_REFERRAL_PARTNER_NOT_FOUND);\n        _index -= 1;\n    }\n}\n",
  "sourcePath": "contracts/ReferralPartnersRegistry.sol",
  "type": "contract"
}